:020000040000fa
:080000000002040000000000f2
:020000040000fa
:10000800b6020000b6020000b6020000b602000008
:10001800b6020000b6020000b6020000b6020000f8
:10002800b6020000b6020000b60200006618000022
:10003800b6020000b6020000b60200002019000057
:10004800b6020000b6020000b6020000b6020000c8
:10005800b6020000b6020000b6020000b6020000b8
:10006800b6020000b6020000b6020000b6020000a8
:10007800b6020000b6020000b6020000b602000098
:10008800b6020000b6020000b6020000b602000088
:10009800b6020000b6020000b6020000b602000078
:1000a800b6020000b6020000b6020000b602000068
:1000b800b6020000b6020000b6020000b602000058
:1000c800b6020000b6020000b6020000b602000048
:1000d800b6020000b6020000b6020000b602000038
:1000e800b6020000b6020000b6020000b602000028
:1000f800b6020000b6020000b6020000b602000018
:10010800b6020000b6020000b6020000b602000007
:10011800b6020000b6020000b6020000b6020000f7
:10012800b6020000b6020000b6020000b6020000e7
:10013800b6020000b6020000b6020000b6020000d7
:10014800b6020000b6020000b6020000b6020000c7
:10015800b6020000b6020000b6020000b6020000b7
:10016800b6020000b6020000b6020000b6020000a7
:10017800b6020000b6020000b6020000b602000097
:10018800b6020000b6020000b6020000b602000087
:10019800b6020000b6020000b6020000b602000077
:1001a800b6020000b6020000b6020000b602000067
:1001b800b6020000b6020000b6020000b602000057
:1001c800b6020000b6020000b6020000b602000047
:1001d800b6020000b6020000b6020000b602000037
:1001e800b6020000b6020000b6020000b602000027
:0801f800b6020000b60200008f
:020000040000fa
:10020800b6020000b6020000b6020000b602000006
:10021800b6020000b6020000b6020000b6020000f6
:10022800b6020000b6020000b60200006618000020
:10023800b6020000b6020000b60200002019000055
:10024800b6020000b6020000b6020000b6020000c6
:10025800b6020000b6020000b6020000b6020000b6
:10026800b6020000b6020000b6020000b6020000a6
:10027800b6020000b6020000b6020000b602000096
:10028800b6020000b6020000b6020000b602000086
:10029800b6020000b6020000b6020000b602000076
:1002a800b6020000b6020000b6020000b602000066
:1002b800b6020000b6020000b6020000b602000056
:1002c800b6020000b6020000b6020000b602000046
:1002d800b6020000b6020000b6020000b602000036
:1002e800b6020000b6020000b6020000b602000026
:1002f800b6020000b6020000b6020000b602000016
:10030800b6020000b6020000b6020000b602000005
:10031800b6020000b6020000b6020000b6020000f5
:10032800b6020000b6020000b6020000b6020000e5
:10033800b6020000b6020000b6020000b6020000d5
:10034800b6020000b6020000b6020000b6020000c5
:10035800b6020000b6020000b6020000b6020000b5
:10036800b6020000b6020000b6020000b6020000a5
:10037800b6020000b6020000b6020000b602000095
:10038800b6020000b6020000b6020000b602000085
:10039800b6020000b6020000b6020000b602000075
:1003a800b6020000b6020000b6020000b602000065
:1003b800b6020000b6020000b6020000b602000055
:1003c800b6020000b6020000b6020000b602000045
:1003d800b6020000b6020000b6020000b602000035
:1003e800b6020000b6020000b6020000b602000025
:0803f800b6020000b60200008d
:020000040000fa
:100400004fd620000eff27000e01880000000000dc
:10041000000020000000e000020032000001200087
:10042000200288000c00070000db210001002000f2
:100430001f000700000020000000e0000200320062
:100440000000020000000000bc15020000000000d7
:100450000040da000000fe004440a900e002200055
:100460000000e0000300320000002000a00188002e
:100470004440a80000000600f03fb1000180b10038
:1004800006003500ee03090000000000403fb10007
:100490000180b100fbff3d001000b000203fb00024
:1004a0000200350000800900000000000000060086
:1004b00091018800800078000000eb0015003700f3
:1004c000e280400032a0b4009101ba00e280400016
:1004d00032a0b4009102ba00e280400032a0b40021
:1004e0000002eb00472bde00f507b200602ce100b4
:1004f00004003a000059eb008301e900fdff3e00d3
:10050000040037006128e100010032000082eb00a6
:10051000040007001101ba000200e000e8ff3a0001
:10052000000006003159ba008301e9000c003200d6
:100530002159ba008301e900080032000400e000fc
:1005400003003a00e280400032a0b400f5ff37001b
:1005500011d9ba008301e900faff3a008100e800ee
:10056000e180400032a0b400000006000040da0044
:100570000000fe0000c0da00000006000a00fa00d9
:10058000e20f500022003e00144b8000e10f5200a9
:100590000600320087232000462320002423200069
:1005a00005232000e08f530004003a00872220003a
:1005b00046222000242220000522200000002800de
:1005c0001500600003003a00800b78000700280047
:1005d000958a7300054020009482620001003a0071
:1005e00014a0a0008202780006003700940378006f
:1005f0000710b200fdff3200b103fb00070b7800cb
:100600008502e900e08f5200f8ff3a000800370049
:1006100034002000c0bf9f00e2bf9f00b4bf9f0016
:10062000d1bf9f006a805700d2ff07006fb99700c3
:10063000020078000080fa000000060003f0a2002b
:10064000889fbe008a9fbe008c1f7800140107009f
:100650001b0133006450e1004f0032006420e100d0
:100660005200320003826c0007003b000905d000f5
:100670000306d000820f54000c065d000200390012
:100680000200320089017800030678008582550057
:1006900004003d000003fd008103fd008502ea0027
:1006a0008b854200840f720002003b006000100046
:1006b000e08018006011b8000005eb007a28e10026
:1006c0000a00390006007800c75ddd00f707b200b8
:1006d000878075002d003700828171000a01780043
:1006e000610560008180d1000080d3008502e900af
:1006f000f9ff3b00060440008784480002003b00ed
:1007000060041400e0841c000988a3000700320084
:100710008a81710082817100610164008904d100c5
:100720000884d3008b05e800170037000978a30080
:1007300013003a000b00e000130034008b05e900c1
:100740000804440089844c000a4474000978a3001a
:100750000d003a000b00e000070034008b05e900b3
:100760000804440089844c0001003a000b0020007a
:100770000978a300f7ff32000001eb000200370008
:10078000828171000a017800dd0007000cf0a700eb
:1007900001f0a000d30037006420e10002003a001d
:1007a000838f6c00d30033000801be000200be003e
:1007b000cc003700889fbe008a9fbe008c1f780047
:1007c000b7000700be00330003866c006450e100f0
:1007d0002e0032006420e100330032006150e1005d
:1007e0002f0032006120e100310032008585550084
:1007f000eb07b000090020000804200005003700c6
:100800000804440089844c000a00310006034300b8
:1008100087834b000001530081815b00f8ff3300a8
:100820000203be000800a0000804440089844c00b4
:10083000f6ff3900c639dd00830173000100320084
:10084000130020008904d1000884d3000998a30074
:10085000050032000800a7000300a0008904d100b1
:100860000884d3008b05e8008904d1000884d300f4
:100870000001eb000281d200a100070001f0a100fd
:100880000cf0a70001f0a000960037006420e10002
:10089000980032000801be000200be00f7ff3700da
:1008a0006120e100930032006000b800f3ff3700e0
:1008b0000000200001f82700f0ff3700889fbe00ed
:1008c0008a9fbe008c1f7800750007007c003300f3
:1008d00003866c006450e100240032006420e100d3
:1008e000270032006150e100220032006120e10067
:1008f000210032008b854200eb07b1000134b800c3
:10090000003ab8000804420089844a00013ab8005d
:100910000030b8008880400009014a00040033001c
:100920000000400081804800020149008b05e90079
:10093000c909dd00830170000100320013002000ae
:10094000c814de004814dd004709de001200b200c2
:10095000c808de00088470006900070001f0a100eb
:100960000cf0a70001f0a0005e0037006120e1005c
:10097000600032000801be000200be00f7ff370031
:100980006150e100fcff3a005a0037000001be0050
:10099000810007000470a70003f0a1006509b10001
:1009a000160032000d0035006828e1000600350011
:1009b000f0ff2f00f1ff27000300e00013003b00d1
:1009c0000100280000000500000040008180480070
:1009d0008502e900fcff3a0008003700f88f42006a
:1009e00002003c008000eb00000005008100d10007
:1009f0000080d3008502e800fcff3a000300e0001d
:100a000002003b0060001000e080180000000600bb
:100a10006011b800750037004f89de008201780050
:100a2000a10037000001be005b0007000470a700b2
:100a300003f0a10003f8a30013003a006509b10018
:100a400010003200090035006928e100020035007d
:100a500001002800000005000000400081804800df
:100a60008502e900fcff3a0000000600f88f420012
:100a7000050035008100d1000080d3008502e80028
:100a8000fcff3a00000006008000eb0000000500bb
:100a90000081eb00940037000001eb00920037006a
:100aa0000004be003c0007000003be000405be00b9
:100ab0000200be0038000700844f750000000600e9
:100ac0000200be006450e100050036006420e10031
:100ad000020036000968a30001003a000800be00c9
:100ae0000160a0004f0678004f05be004f04be0015
:100af00000000600f0ff2f00f1ff2700f9ff37008c
:100b000081002000618055000b003d000b0020009b
:100b100061fe2f000100e1001d00340082817100a0
:100b2000610164008904d1000884d3000000e8005a
:100b3000faff3a00710020006100640003007000b9
:100b4000020060000900320061044400e0844c00af
:100b50000988a500050032008b05e8006808e1005f
:100b600002003a008904d1000884d300f20f20006b
:100b70000258e10005003d00c75ddd00f907b20045
:100b80008980750008007800000006000bf8270037
:100b90008b00780000000500c70ade00f107b200f4
:100ba000f50fb20008003200e1cf4200020032002f
:100bb0000170a00024000500810f700001003200c8
:100bc0000408050044000500810f700002003a008f
:100bd000140005008502e9000000400081c04800c3
:100be000fcff3b000170a00024000500889fbe00b0
:100bf0008a9fbe00008270000402710004827100ae
:100c0000260032000004be000200be006011b800e1
:100c10006b092000950220000182cf000a003900f4
:100c20000541b1000082cf00070039000541b10045
:100c30000982cf00040039000541b1000882cf00cd
:100c4000010039000541b100054252001200320096
:100c50000a003b0082817100610164008100d100c3
:100c60000080d3008984d3000884d3008b05e8007a
:100c70000442e800f7ff3a00070037000804440088
:100c800089844c0000004800818048008b05e90001
:100c90000442e900f9ff3a0099ff07004f05be0042
:100ca0004f04be0000000600881f7800030478008f
:100cb0000300e00007003d0060001000e080180025
:100cc00060011900e081190002003b0001f02d00d5
:100cd00003003700c5ff070008f0a70001f0a000df
:100ce0004f04780000000600889fbe008a9fbe0067
:100cf0008c9fbe00820578000004be00a6ff07009e
:100d00000800be006420e1000700390002003a003c
:100d1000f1ff2700f0ff2f000160a0001202200069
:100d200052438800550037006120e10003003a007b
:100d30000b00a70001f823005000370001f0a100cc
:100d40000200210093642400500007000800be0048
:100d500004003500b2fd2000930c24004d00070074
:100d60000004be000005eb000b00a6004f0dde00e6
:100d700001f0a1000004be0032982f0023ea2300f6
:100d8000cefe07000001eb0003f023000b00a700dc
:100d900003f823002afe0700fcfe07000000a7005e
:100da0000a00a2001cff07000b00e0000300320055
:100db0000200200003f0230020fe070001f0a20043
:100dc0000006be000200200093042400bbfe0700c2
:100dd0000801be001afe0700809fbe000c00be0086
:100de00022a22a00d3a72300b4fe07004f01be00b1
:100df00013fe07000004be0001f0a1000200200065
:100e000003982300210007000800be0019003500e8
:100e10000001be00a9fe07000006be00b2c5290001
:100e2000e3622300a5fe070022222b00f3942b008f
:100e300003fe07000c01be00a0fe0700e2732800bd
:100e400083c02300fefd07000c01be009bfe0700cf
:100e500042aa2a00a3e22b00f9fd07000c01be0004
:100e600096fe07000801be0094fe07000801be00c0
:100e7000f3fd07000a00a70001f0a2004f06be0024
:100e80004f05be004f04be00000006001400200005
:100e900002003700040020001b003700889fbe00be
:100ea0008a9fbe00841f7800fdfe07004f00780077
:100eb00011003300f0ff2f00838f6c0006003b0011
:100ec000040565000a00a7000800370009f0a60025
:100ed0001000200008003700820f5400838f5c0050
:100ee000030039001000200001003e000000200037
:100ef00009f0a7000000ea004f05be004f04be0045
:100f00000000e00000000600889fbe008a9fbe002f
:100f10008c1f78004f26dd00e1fe0700e8fe33005d
:100f20006120e100430032006250e10041003e00d8
:100f30003e0039006420e1003c003200058255008b
:100f40000f003b000402e80038003a00800f530015
:100f5000818f5b00350034000800be0003f0a10063
:100f600001f0a60003f0a0000cf0a700b4fd0700fc
:100f7000dcfe37000603430087834b000c46460027
:100f80000005530081855b00020033000a03be00a8
:100f90000c00a0000402e900f6ff3b008505780084
:100fa0000602430087824b0004003a006000b8004c
:100fb00009f0a70001f0a000cafe370000025200ad
:100fc00081825a000704e000040033000603430056
:100fd00087834b008b05e900faff3700090578008d
:100fe0000604be000203be006011b800c4fe070084
:100ff000e00f5200e08f5a000700350002003c006d
:101000000c08a300040032000601be0003f0a0009b
:101010000cf0a7008afd07000a85680001f0a10016
:101020000af0a70001f0a000aefe37000800be00e5
:10103000acfe3700100220000cf0a60050438800e0
:10104000acfe3700889fbe008a9fbe003004be0001
:101050002005be000404440085844c0006054d00b4
:1010600087854d000898be000a90be000440e1004c
:1010700005c8e10006d0e10007d8e1000200310018
:10108000680040001008e8004f05be004f04be0095
:10109000000006001000fa00889fbe008a9fbe0074
:1010a000110020000605be000404be003002be0090
:1010b0002003be00c4b79f00d5b79f00e6b79f00ce
:1010c000f7b79f000802520089825a000a035b00aa
:1010d0008b835b0084bf9f0095bf9f00a6bf9f00ce
:1010e000b7bf9f000498be000698be004fb297009d
:1010f000dfb297006fb39700ffb39700b00007000f
:10110000010039008000eb004f05be001088100080
:101110004f04be000080fa00000006001400fa0030
:10112000889fbe008a9fbe008c9fbe000006eb0019
:1011300079000700ccb79f00bcb79f00acb79f00f9
:101140009cb79f008cb79f000605be000404be003c
:101150000d0420004fb39700bfb2970086034300f1
:101160002fb29700e00f530004003d0099000700e4
:101170000f004000b3ff0700030037009500070091
:101180000f004000c3ff0700cfb2970095bf9f003c
:10119000e08f5200090035006600070014002000af
:1011a000050020006033b8000000720081807200ea
:1011b0000201730083817300570007000c06e800ea
:1011c0008d0f5600e3ff3a001fba9700e00f520060
:1011d00005003d000802be000a03be0000fe2f000d
:1011e0000f00400097ff07004faa9700e00f520042
:1011f00008003a000fb497009fb497002fb59700ee
:10120000bfb59700d8b79f00e9b79f00fab79f0016
:101210008bbf9f00470007004f06be004f05be0072
:101220004f04be000080fa0000000600881f78000e
:1012300018002000881f7800b8ff07008f87e9009a
:101240004f04780000000600801feb00b3ff07008a
:101250008f87e90000000600889fbe008a9fbe00bd
:101260004100070008003d007a0007004300070026
:10127000180020004600070008003d002f0007006e
:101280000004eb00050037000004eb0040000700fd
:1012900002003d002900070018002000e3ff0700be
:1012a000e00f5400010032003e0007004f05be0071
:1012b0004f04be0000000600889fbe008a9fbe004b
:1012c0008c1f78002800070006003d006100070021
:1012d0001c002000290007003900070006003d001f
:1012e000040037000006eb002900070002003d0063
:1012f0005800070012000700d3ff0700e00f560058
:1013000001003200270007004f0678004f05be009d
:101310004f04be00000006000100070000000600a8
:1013200090b79f00a1b79f00b2b79f00c3b79f00bf
:101330000000060007000700000006004500070047
:101340000402540085825c0006035d0087835d0013
:10135000000006001fb09700afb097003fb19700a4
:10136000cfb1970000000600e00f5000e08f58005a
:10137000e00f5900e08f5900000006000000540003
:1013800081805c0002015d0083815d000000060039
:10139000e00f5200e08f5a00e00f5b00e08f5b002f
:1013a000000006006022b8006033b8000000520060
:1013b00081805a0002015b0083815b00000006000f
:1013c0000820e10009a8e1000ab0e1000bb8e10043
:1013d000000006004f2bde00deff0700868373004f
:1013e000858242004f23de00a7b79f0086827200ed
:1013f0000402420095b79f00ffaa97004f2bde0022
:10140000858242000602720084b79f006faa97008f
:101410004f23de000402420086827200f5af9f0077
:101420004f18de0000027200caff0700e4af9f0001
:10143000000040008180480002014900838149008a
:101440000802be000a03be00b5ff070000fe2f0021
:10145000000006006044b8006055b80000000600b7
:10146000889fbe008a9fbe008c1f78000006eb009c
:10147000e00f5000e08f5800e00f5900e08f590056
:1014800007003d006044b8006055b8001c00200013
:101490000000540081805c0002015d0083815d00da
:1014a000e00f5200e08f5a00e00f5b00e08f5b001e
:1014b00007003d006044b8006055b8000c00a20071
:1014c0000402540085825c0006035d0087835d0092
:1014d00022000700e00f5600060032006022b8002c
:1014e0006033b8000000520081805a0002015b00a6
:1014f00083815b004f0678004f05be004f04be009d
:10150000000006006022b800060220000000d000a3
:101510008180d2000482d2008582d2000000a00027
:101520000202520083825a0003003100020242008c
:1015300083824a000000a1000603e900f3ff3a009d
:1015400000000600020ab900001bb9000200b80042
:10155000810042008100430000000600889fbe0019
:101560008a9fbe008c9fbe000404b8000506b80028
:101570008904460060854e000606b8000a0546004c
:10158000e0854e000706b8008b054600040eb80043
:10159000890446000a854e00e0854d00050eb8001e
:1015a0000a0546008b854e00060eb8008b054600e6
:1015b0000416b8000a0546008b854e000516b800d3
:1015c0008b054600041eb8008b0546000800be00cf
:1015d0000a01be004f06be004f05be004f04be000c
:1015e00000000600421188000011880011118800d7
:1015f00000000600209420000000fa0068815700d7
:10160000cfb897002c0007000080fa000000060009
:10161000881f7800000478003800900000027800ed
:101620001420b200e10f520005003a000002eb0066
:101630001404980028029000040c78001900370068
:1016400080027800242020002520b2000000eb005a
:10165000848f520016003a00a8009000808f50003e
:101660001300320018019000800f5100100032006a
:1016700048009000c1fb070018029000840f500042
:1016800003003200380290000403b30034049800d1
:10169000380090000002eb0014049800280290002b
:1016a000040c78000002b200010032000080eb0060
:1016b0004f04780000000600ef03b000889fbe00d2
:1016c0008a9fbe008c9fbe00800678008e1f780027
:1016d0000007eb00d1af9f00a2b79f006603370061
:1016e000dfa8970054c2b3008100e800d1af9f008b
:1016f000844f500006003a00010278000006eb001b
:1017000001c3b30000c2b300b7c2b3000e0037007c
:101710003d0290000404b200040032001d02780073
:10172000004a7800840ee800050037000000fb0046
:101730008d0078005c030700e10f40004e0332008b
:101740000e07e8004c03370084027800d2c2b300d1
:1017500034437800824f53000900320005003c00fa
:10176000804f530008003200874f53000c003a00ae
:1017700007003700814f530009003a000600370088
:101780000c30a000f0ff37000c00a000eeff370087
:101790000c10a000ecff37000c20a000eaff37007f
:1017a00062026600010032000c00a10068026600bf
:1017b000010032000c20a1000602fb000403b1006e
:1017c000e90f52000c003e00050378000002eb0018
:1017d000b603fb006a22b9000703b1008602780055
:1017e000048243009603fb000703b100e98f530016
:1017f000f7ff3600080037000002eb00a7c2b30075
:10180000874f530004003a00afb197008502e8000b
:1018100043027800a3b79f000003eb0096b79f0038
:10182000e6c2b300954f13000c003a000ce0a00094
:1018300064435300d54f13000300320005037800c2
:101840000000eb0009003700afb397008502e80005
:1018500047047800a7b79f0098b79f00050378005a
:10186000090037006a00b900008043008602780052
:10187000b603fb000703b100e98f5300f9ff360000
:1018800090b79f00f5ff3700b6427800cac6b30094
:10189000d6af9f008acf5200250032000f003c00d7
:1018a00036c6b30086cf52009e00320004003c00d2
:1018b000e0cf5200f50232006b4353000f003700b7
:1018c00046c6b30086cf520017003200654343007e
:1018d00086cf5200b2003a001300370036c7b3007b
:1018e00086cf52001f00320007003c0064435300c3
:1018f00086cf5200140032000643e80086cf520023
:10190000a7003a001300370056c7b30086cf520035
:10191000aa0032006343430086cf5200a0003a0081
:10192000e5779f000d003700e5779f00a5003700a1
:10193000f0036600050120000100320005002800c8
:101940000c867200d0ff3700e5779f000c60a00086
:101950009c003700e5779f000c50a0000c70a000a1
:1019600098003700afb59700e5779f00cb0278006d
:10197000abb79f00b5b79f00e08f520002003a005e
:10198000e1922000b1b79f003fb397008002eb00c7
:10199000010037008502e800e6c37a00e0cf53007b
:1019a000fcff3a00c5b79f001fb19700e00f510040
:1019b00005003200cfb19700830f510002003100c3
:1019c00082027800c5b79f00cfb297000004eb00f9
:1019d000850f5200010036000504520068066600bb
:1019e00009c2b3000f003200290037003d02900009
:1019f0000404b200040032001d027800094a780095
:101a0000840ee800050037008d00780000022000f9
:101a1000a5020700e10f4000010032000e07e800b8
:101a20000804e900e00f5400f0ff3a000084eb00e6
:101a300017003700bd0290000504b2000900320013
:101a4000880278009d03780035437800864b780043
:101a500005047800870ee800e04f53000a003a00c2
:101a600011003700880278008d0078003500fb00f7
:101a700084bf9f00050478008b0207000fba97000f
:101a8000e10f4000080032000e07e80006003700b2
:101a90000c027800080678003fb49700cfb4970096
:101aa0005fb59700efb59700890278008504e900db
:101ab000e08f5200dfff3a00b8b79f00c9b79f0020
:101ac000dab79f00ebb79f000c04780009c2b3009f
:101ad00004067800e00f56000f003a006602370057
:101ae0003d0290000404b200040032001d027800a0
:101af000094a7800840ee800050037008d00780060
:101b00000002200068020700e10f400001003200df
:101b10000e07e8000804e900e00f5400f0ff3a0067
:101b200055023700afb0970070036600410478009b
:101b3000a1b79f00cfc4de00090578008a057800b0
:101b40000800be000a01be004800de00c80add0031
:101b500000807200e0779f00e00f53000900320020
:101b6000e04f500007003200e14f40000500320016
:101b700026002000f0779f00887f9f00c6b79f0057
:101b80000300370017002000c7b79f00f8779f00b9
:101b900078fb2f0008844700b8b79f0082ff37000a
:101ba00069fb2f001a00200089844700e5779f0019
:101bb000b9b79f00cab79f007bff3700e5779f004a
:101bc0000c0cb3008c027800050cb2003b003a000c
:101bd000e00f560005003d00afb297004501be0082
:101be0004500be00a5b79f000f003700f002660059
:101bf000120032002fb497004803be00f69f9f00ea
:101c000087a79f00a8b79f0098029000cfaade0088
:101c100095a79f00a5a79f007f9897008fa097008a
:101c20001fa19700afa19700b0b79f00c1b79f0059
:101c3000d2b79f00e3b79f000b003700afb097000b
:101c4000c102780005047800cfc4de0009057800e1
:101c50008a057800a1b79f00b8b79f00c9b79f0059
:101c6000dab79f00ebb79f003fb09700cfb0970067
:101c70005fb19700efb19700e00f5000e08f580080
:101c8000e00f5900e08f590032003d006000b800bd
:101c90006011b8003fb49700cfb497005fb59700cc
:101ca000efb597003c00b300080450008984580049
:101cb0000a0559008b85590022003700e00f5600b5
:101cc00005003d00afb297004501be004500be00d3
:101cd000a5b79f000f003700f00266001200320027
:101ce0002fb497008004eb004803be000005eb0012
:101cf00096af9f00a7af9f00b9af9f00caaf9f00ec
:101d00001fa89700afa897003fa99700cfa99700f9
:101d1000a8b79f00b0b79f00c1b79f00d2b79f0080
:101d2000e3b79f000b003700afb09700c102780007
:101d3000a1b79f0005047800090020000a002000d8
:101d40000b002000b8b79f00c9b79f00dab79f000b
:101d5000ebb79f009fb49700e08f54000d003a004e
:101d60001a0020003fb09700cfb097005fb19700f6
:101d7000efb197009ab79f00e00f5000e08f580036
:101d8000e00f5900e08f5900020032008000eb00a4
:101d900091b79f000c01780005042000020cb200ee
:101da00082b79f00850f51003400320003003c00d1
:101db000e00f5100080032004800370005082000fd
:101dc0008fb19700858f510014003200050c200060
:101dd000858f510041003a004687200015c0b300ae
:101de0003600be003601be003fb49700cfb4970066
:101df0005fb59700efb597000040e10001c8e10032
:101e000002d0e10003d8e100330039008542e80048
:101e1000f4cf5200f2ff3a002f00370015c0b30094
:101e200000012000010020006011b8003fb49700bd
:101e3000cfb497005fb59700efb597000040e10081
:101e400001c8e10002d0e10003d8e100220039001e
:101e5000490020000000d0008180d2000281d20021
:101e60008381d2008904e900faff3a008542e80044
:101e7000f0cf5200edff3a001700370015c0b30055
:101e800080002000010020006011b8003fb49700de
:101e9000cfb497005fb59700efb597000040e10021
:101ea00001c8e10002d0e10003d8e1000a003900d6
:101eb000390020000000d0008180d2000281d200d1
:101ec0008381d2008904e900faff3a008542e800e4
:101ed000f5cf5200edff3a00e5779f006f75970050
:101ee0009fb597008a02fb008b8f520002003d00d5
:101ef000eb779f00040037001fb09700850f50005c
:101f000001003d0095b79f00e00f52000300320032
:101f1000e3026600010032000402e900050024002b
:101f200085026600060032009fb09700810f5200c4
:101f30000200340001025200010037000002eb00f1
:101f40006f7197008001eb008202fb00f3af9f00ee
:101f5000850f52000200340085025200f5af9f0049
:101f6000640266003b003200e20266006102660025
:101f7000e08f520011003200bd0290000504b20053
:101f8000080032009d027800b6c2b300e00f520094
:101f90000100320006c3e800864a7800850ee8009a
:101fa00015003700b0022000e00f5200010032009f
:101fb0000080e8008d0078000c003700e00f520030
:101fc0000e0032003d0290000404b2000500320011
:101fd0001d02780005c2b300054a7800840ee800af
:101fe000050037008d007800000220002e01070058
:101ff000e10f4000010032000e07e8007faa9700c1
:10200000e00f52004f00320008c3b3008404780090
:102010003d0290000404b200040032001d0278006a
:10202000084a7800840ee800050037008d0078002b
:10203000000320001c010700e10f400001003200f6
:102040000e07e8008904e900f1ff3a00f9af9f00ac
:102050003c003700ffaa9700e08f520014003200c6
:102060006802660012003a0008c2b30085047800d6
:102070003d0290000404b200040032001d0278000a
:10208000084a7800840ee800050037008d007800cb
:102090000002200004010700e10f400001003200af
:1020a0000e07e8008904e900f1ff3a00f9af9f004c
:1020b000e202660061026600e08f52001100320009
:1020c000bd0290000504b200080032009d027800b5
:1020d000b6c2b300e00f52000100320006c3e800b0
:1020e000864a7800850ee80015003700b00220000f
:1020f000e00f5200010032000080e8008d007800ff
:102100000c003700e00f52000e0032003d0290003c
:102110000404b200050032001d02780005c2b300bd
:10212000054a7800840ee800050037008d0078002d
:1021300000022000dc000700e10f40000100320037
:102140000e07e8001fb39700c58620000602e900cd
:10215000f0046600c223dd000c057800c7a79f00cd
:102160000a02b2006323b900e99f9f0006047800c9
:102170004322dd00b8a79f0085024200da9f9f003e
:10218000e5af9f00a30037009fb597000fb0970001
:102190008b05e900010420009bb79f00810f5000d0
:1021a0007300320003003c00e00f500008003200d2
:1021b0007e003700040820000fb19700840f510003
:1021c00056003200040c2000840f510077003a00c2
:1021d000e00f56001f003d00efa997003304be003a
:1021e0002305be003fb09700cfb097005fb19700c6
:1021f000efb197000802be000a03be000bfc070007
:102200000802be000a03be00e0779f000000fb004a
:10221000cf80de00010178008201780090fc070089
:102220003fb29700cfb297005fb39700efb397002c
:102230000002520081825a0002035b0083835b002c
:10224000b4b79f00c5b79f00d6b79f00e7b79f0000
:102250002e003700ef9a9700e08f520022003200e4
:102260006fab97003fb29700cfb297003604be0025
:102270002605be000400be000801be0084bf9f000a
:10228000f5b79f000005eb009efc07000801be00ab
:10229000e0779f000000fb00cf80de00a9fc070074
:1022a0000fba9700ffb297008aaf9f000004520058
:1022b00081845a00d8a79f00e9a79f008004eb0003
:1022c000f9a79f005fa09700efa097007fa197005c
:1022d0008fa99700b0b79f00c1b79f00d2b79f00ea
:1022e000e3b79f0009003700efa897003fb19700c0
:1022f00011027800110009000481d800a400200018
:10230000110009000480d800e1779f00ef71970069
:102310000343b000e3779f0024003700d4912000ee
:10232000df9a9700e08f520001003200c490200035
:102330003fb09700cfb097005fb19700efb1970023
:102340004fa397000603e900050033008301d10085
:102350000281d3008180d3000080d300f9ff3700d1
:102360006f00600064407800e0779f000f00370046
:102370003fb29700cfb297005fb39700efb39700db
:102380003fa497000804e900050033008703d1004b
:102390000683d3008582d3000482d300f9ff37007f
:1023a000674262000443b000e4779f003d02900062
:1023b0000404b200070032009d0278006f7297009b
:1023c000844a7800850ee800e04f520007003a008a
:1023d00007003700ef7497008d0078000900fb00bc
:1023e00031000700e10f4000010032000e07e80055
:1023f0004fa59700bfa597006fa8970064055500eb
:10240000e385550068005000caa79f00bba79f0046
:10241000e0af9f009fb09700e08f50005aff3a0056
:1024200068066600140032007fa99700e00f510093
:102430001100340008c2b300820478003d0290000d
:102440000404b200040032001d027800084a78003b
:10245000840ee800050037008d007800000220009f
:1024600011000700e10f4000010032000e07e800f4
:102470008904e900f1ff3a00dfa9970013407800d2
:10248000e0779f00e04f500095fc3a000e00780086
:102490004f0778004f06be004f05be004f04be0038
:1024a000ef03b10000000600889fbe000104780021
:1024b0008084eb0038029000e20262003b003200b0
:1024c00004037800980290000620b20002003a004f
:1024d000e08f520035003a000490a000800478009c
:1024e00034049800f90fb200e08f520002003a0065
:1024f000a8029000050c7800ea8f540005003a000d
:102500000408b20003003a0088007800d0002000e0
:10251000e5ff070018029000d8029000850f5200d6
:102520000b0032000402e80015c0b3001404980048
:1025300018027800094a7800040ce800c4952000cd
:10254000054a7800ea8f540018003a000500370069
:1025500009407800880078001700070080047800a0
:1025600012003700380290000410b2000f00320051
:1025700018019000a800900048009000fff70700a5
:1025800018029000840f50000400320038029000be
:102590000403b300340498008084eb000002eb00d5
:1025a0001404980028029000040c780009007800b8
:1025b0004f04be00000006000200fa00889fbe0023
:1025c00001047800a0ff9f00380290008402780088
:1025d0000504b200020032000000fb0035003700a5
:1025e000e202620005003a000403b30015049800fb
:1025f000340498000080eb002e003700d8049000cf
:10260000e08f540006003a0012002000e6805700d8
:1026100048009000d9f707001904980023003700fc
:10262000a8029000e08f520008003a0005962000b2
:102630000430a00025049800050c780034049800ac
:1026400025002000550498001504980018019000fa
:10265000a800900048009000c8f7070028029000ea
:102660008082eb0015049800affa9700054a7800c5
:10267000040ce8002ffa9700ea4f52000b003a00d2
:10268000380290000410b2000800320018019000d7
:10269000a800900048009000b8f707000002eb0087
:1026a000a802900014049800050c78002ffa9700f7
:1026b0000400fb004f04be000080fa00000006008a
:020000040000fa
:1026c0002d2d000020420000616c00006c200000f5
:1026d000706f000073690000746900006f6e000085
:1026e0003a2000002d2d0000002500003464000079
:1026f000206400005f6d00006973000073650000d6
:102700007321000021210000005100004549000014
:0c2710003a200000253500007500000094
:020000040000fa
:10271c000800fa00889fbe00200798003107980037
:10272c0004428000154280000401be002e0090007f
:10273c00be009000bef707000002be0034408800c7
:10274c004540880074408000854080000401be0034
:10275c002e009000be009000b5f707000002be00ee
:10276c00d2cc2c00c3d423000400be000ef807000a
:10277c000002be00b4408800c5408800d8408000ec
:10278c00e940800004428000154280002e01900038
:10279c00be0190000400be00a5f707000002be00b9
:1027ac00d2cc2c00c3d423000400be0040f8070098
:1027bc000002be000401be000800be009cf707002a
:1027cc000002be00d4408800e540880054428000de
:1027dc00654280000403be0007f0a2003440800074
:1027ec00454080000401be000600be0030f8070022
:1027fc000002be000404be007642800087428000c6
:10280c00b4408000c54080000401be000600be003c
:10281c0027f807000002be000401be000800be003d
:10282c0083f707000002be000404be00364180009e
:10283c0047418000d4408000e54080000401be0088
:10284c000600be001af807000002be000401be001c
:10285c000800be0076f707000002be00048fbe0021
:10286c002e029000be0290007440880085408800c3
:10287c001e00be0042f807000002be0004027800f1
:10288c00040078004f04be000080fa00000006002f
:10289c000800fa00889fbe002007980031079800b6
:1028ac0024428000354280000401be002e009000be
:1028bc00be0090005ef707000002be005440880086
:1028cc006540880094408000a54080000401be0053
:1028dc002e009000be00900055f707000002be00cd
:1028ec00d2cc2c00c3d423000400be00aef70700ea
:1028fc000002be00f44088000541880018418000a9
:10290c002941800024428000354280002e01900035
:10291c00be0190000400be0045f707000002be0097
:10292c00d2cc2c00c3d423000400be00e0f7070077
:10293c000002be000401be000800be003cf7070008
:10294c000002be001441880025418800944280009a
:10295c00a54280000403be0007f0a2005440800092
:10296c00654080000401be000600be00d0f70700e1
:10297c000002be000404be00b6428000c7428000c4
:10298c00f4408000054180000401be000600be003a
:10299c00c7f707000002be000401be000800be001d
:1029ac0023f707000002be000404be00564180005d
:1029bc006741800014418000254180000401be0065
:1029cc000600be00baf707000002be000401be00fc
:1029dc000800be0016f707000002be00048fbe0000
:1029ec002e029000be02900094408800a540880002
:1029fc001e00be00e2f707000002be0004027800d1
:102a0c00040078004f04be000080fa0000000600ad
:102a1c000800fa00889fbe0030079800d44280005e
:102a2c00be029000848f520002003d00d442800010
:102a3c0034079800e4428000be029000848f52005c
:102a4c0002003400e442800034079800d442800035
:102a5c008402780005f0a7008502ea003e0290008f
:102a6c0004824200040f78001e027800050020004a
:102a7c000400be00e3f707000004be00e54280003e
:102a8c00d442800004825200cfa2de000400be00bb
:102a9c00def707000002be000401be000800be0005
:102aac0041f707000002be001407980025079800a4
:102abc000200200003f823001e009000ae009000de
:102acc00dcf607000002be001407980025079800ea
:102adc0002002000a34724001e009000ae009000ce
:102aec0073f707000002be00140798002507980032
:102afc001e009000ae009000c7f707000002be0059
:102b0c0004027800040078004f04be000080fa0034
:102b1c00000006000000fa0005e1a9000421a9004c
:102b2c0004c1a900240880000440a0000450a000a7
:102b3c0024088800441f2000140888000002eb00c1
:102b4c00040888002405800004c0a00004d0a10063
:102b5c0004e0a100240588008460a9009460a8000a
:102b6c0005e1a8000080fa00000006001800fa0039
:102b7c00889fbe008a9fbe008c9fbe006022b8005a
:102b8c0034079800450798000042eb004447980032
:102b9c004e40900030479800be409000214798006e
:102bac002e429000144798006e040700000021008c
:102bbc00710220002df60700a8010700c082a900b1
:102bcc0000000000c0a2a90000000000c122a90062
:102bdc0000000000c142a90000000000c002a900d2
:102bec0000000000bc0407000040eb00c901070016
:102bfc0080c1b300c70107000040eb00a101070032
:102c0c0090c1b300c30107000040eb009d01070019
:102c1c0004362900841f780073fa07008f87e900b7
:102c2c002094200077fa0700baff07000042eb005f
:102c3c00044f780022003700140280004522de0089
:102c4c0067426200244f9800950280006507980047
:102c5c00ff3ffc00140280000450a0000460a000a0
:102c6c000470a000140288006e0290009402880088
:102c7c00000088004680200016437800064f78003c
:102c8c009002800070079800ff3ffc002e4a9000d5
:102c9c00674262000482fb00670262004522dd008d
:102cac0016028000f5f12f00850263000502720008
:102cbc00140288007e0290009402880000008800b4
:102ccc001e427800e04f5200dbff32001e429000a3
:102cdc00e04f520068003a001440800005002000cc
:102cec000400be0047f707000006be002a42800021
:102cfc003b42800004408000050020000400be0020
:102d0c0040f7070008428000194280000c03be0007
:102d1c000a02be000001be000800be00fe02070051
:102d2c003e009000ce00900036f707000002be0077
:102d3c00d2cc2c00c3dc23000400be00dcf6070060
:102d4c000002be000400be004ef707000002be00e9
:102d5c0002002000433b24000400be00d4f6070010
:102d6c000002be0002002400e34c24000400be005c
:102d7c0030f607000002be000442880015428800ad
:102d8c003e009000ce0090001ef707000002be002f
:102d9c00d2cc2c00c3dc23000400be00c4f6070018
:102dac000002be000400be0038f707000002be009f
:102dbc0002002000433b24000400be00bcf60700c8
:102dcc000002be0002002c00834a24000400be0056
:102ddc0018f607000002be00244288003542880025
:102dec003e029000ce02900061024200e0824a0056
:102dfc003407980045079800044080000500200027
:102e0c000400be00fff607000002be000400be0076
:102e1c003ffe070000027800040f98001440800069
:102e2c00050020000400be00f6f607000002be00fc
:102e3c000400be0096fe070000027800140f9800f4
:102e4c000e089000f2fe070000027800240f980094
:102e5c001e089000eefe070000027800340f980068
:102e6c00ae08900010c0b30021030700be0890000c
:102e7c0020c0b3001e0307002e429000e04f52000a
:102e8c0016003a005480200014427800e04f5200a3
:102e9c001200320080c1b3001e0107000040eb009d
:102eac00f800070090c1b3001a01070000c3b3007b
:102ebc00f400070054802000144278000482fb00c8
:102ecc00841f780054372900841f7800c6f9070046
:102edc00e487570020942000caf907003e42900076
:102eec00e04f520014003a0080c1b3000901070002
:102efc000040eb00e300070090c1b30005010700a0
:102f0c0080c3b300df000700e9020700000278006d
:102f1c00841f780054382900841f7800b2f9070008
:102f2c00e487570020942000b6f907004e42900029
:102f3c000442e800444798001e4290000482fb00c3
:102f4c008402e80024002000110009008402d8004b
:102f5c0001027800144798002e4290000482fb0076
:102f6c008402e80044012000110009008402d8000a
:102f7c0001027800244798003e4290000482fb0036
:102f8c008402e80044062000110009008402d800e5
:102f9c0001027800344798000042eb0004437800ab
:102fac0045802000864a780020ff37000600fa0092
:102fbc00200798000042eb00044f78000042eb0021
:102fcc00144798000042eb00144798003500370076
:102fdc000042eb00044f78002c0037009e42780032
:102fec000582fb0004024200ae0290000482420003
:102ffc00940278001e4378000682fb000402e8006d
:10300c00040242002e0390000402430014027800d4
:10301c00848f52001c0036009e4278000582fb0013
:10302c000402e80004024200ae0290000482420056
:10303c0014037800160798009e4278000582fb0066
:10304c000402e80004024200ae02900084824200b6
:10305c001e4378000682fb00040242002e039000ff
:10306c000402430014027800840a78009e4278001f
:10307c000582fb0004024200ae0290000482420072
:10308c001e039000060a78001e4fe8001e427800ce
:10309c00e34f5200d1ff36001e4290000442e8007c
:1030ac00144798001e429000e44f5200c8ff3600af
:1030bc002e029000040078000080fa000000060048
:1030cc003600f800809fbe00829fbe00849fbe0029
:1030dc00869fbe003400f80000002000a00188008c
:1030ec000400fa004480200014427800e14f5200a2
:1030fc0006003a0054802000144278000442e80094
:10310c000443780055802000864a780014c0b30030
:10311c000443780045802000864a7800848420008f
:10312c0014427800e14f52001c003a000002eb0000
:10313c00040f78000002eb00040f78000900370040
:10314c005103070000027800840278001e02780008
:10315c0004034200e482200004024300050a7800c4
:10316c001e0fe8001e027800e40f5200f4ff34003a
:10317c00e08220008dff070094418000044088000d
:10318c0020c0b3001803070024c0b3000443780028
:10319c0085842000864a78001d0037000002eb0071
:1031ac00140798000002eb00140798000b0037007e
:1031bc002103070000027800840278001e029000b0
:1031cc0004034200e482200004024300050a780054
:1031dc001e0290000402e800140798001e029000e2
:1031ec00e40f5200f2ff3400e08220006fff070072
:1031fc00944180001440880010c0b300fa0207000c
:10320c0014c0b3000443780085842000864a7800fb
:10321c008460a9000080fa003400f9004f03be005e
:10322c004f02be004f01be004f00be003600f90039
:10323c00004006003400f800881f780008002000c9
:10324c00a80188004f0478000000fa0084e0a9006f
:10325c000080fa003400f900004006000000fa007b
:10326c00620020000140200000002800daf807006e
:10327c0000802e00310020007cf407000080fa0052
:10328c00000006000200fa00004f78000100370031
:10329c000000000023c2bf00624060000004e00098
:1032ac00fbff3a001e80fb00201188000100370054
:1032bc000000000023c2bf00614060000004e00079
:1032cc00fbff32000080fa00000006000600fa0046
:1032dc0010079800414798000040eb00004f780021
:1032ec00070037001e80fb00800078001e00900055
:1032fc000080400010407800e2ff07001e4fe800fd
:10330c004e4090009e4f1000f6ff39000080fa00ee
:10331c00000006000200fa00004f7800c0c7b3009e
:10332c00d8ff07001e407800d6ff07000080fa0087
:10333c00000006000000fa00c0c7b300d1ff070070
:10334c000040eb00cfff07000080fa0000000600f1
:10335c000200fa00000f7800c0c7b300c9ff0700d5
:10336c0010c0b300c7ff07001e007800c5ff0700a0
:10337c000080fa00000006000200fa00000f78003e
:10338c00c0c7b300bfff070020c0b300bdff0700dc
:10339c001e007800bbff07000080fa00000006004a
:1033ac000800fa00000f7800110798002207980017
:1033bc0033079800c0c7b300b2ff070030c0b3009a
:1033cc00b0ff07001e007800aeff07001e00900043
:1033dc00acff07002e009000aaff07003e009000f3
:1033ec00a8ff07000080fa00000006000000fa00a9
:1033fc00c0c7b300a3ff070040c0b300a1ff070084
:10340c000080fa00000006000800fa00000f7800a7
:10341c00110798002207980033079800c0c7b30023
:10342c0098ff070050c0b30096ff07001e007800fd
:10343c0094ff07001e00900092ff07002e009000e2
:10344c0090ff07003e0090008eff07000080fa00fe
:10345c00000006000000fa00c0c7b30089ff070097
:10346c0060c0b30087ff07000080fa000000060070
:10347c000200fa00000f78001e00e00002003c0081
:10348c0010002000000f7800600020009e0f10003c
:10349c000200340060002000000f7800c0c7b300a9
:1034ac0078ff070070c0b30076ff07001e0078009d
:1034bc0074ff07000080fa00000006000000fa000c
:1034cc00c0c7b3006fff070080c0b3006dff0700db
:1034dc000080fa00000006000200fa00000f7800dd
:1034ec00c0c7b30067ff0700a0c0b30065ff0700ab
:1034fc001e00780063ff07000080fa000000060041
:10350c000800fa00000f78001107980022079800b5
:10351c0033079800c0c7b3005aff0700b0c0b30010
:10352c0058ff07001e00780056ff07001e00900091
:10353c0054ff07002e00900052ff07003e00900041
:10354c0050ff07000080fa00000006000a00fa0095
:10355c00000f780011079800220798003307980095
:10356c0044079800c0c7b30046ff0700c0c0b300b3
:10357c0044ff07001e00780042ff07001e00900069
:10358c0040ff07002e0090003eff07003e00900019
:10359c003cff07004e0090003aff07000080fa0045
:1035ac00000006000a00fa00100798002107980096
:1035bc003207980043079800c0c7b30031ff0700db
:1035cc00d0c0b3002fff07001e0090002dff070096
:1035dc002e0090002bff07003e00900029ff0700f3
:1035ec000000eb00000f7800070037001e00780089
:1035fc00800078004e009000008040001040780061
:10360c0020ff07001e0fe800f00120009e0f1000a5
:10361c00f6ff34000080fa00000006000a00fa00f1
:10362c00000f7800110798002207980033079800c4
:10363c0044079800c0c7b30012ff0700f0c0b300e6
:10364c0010ff07001e0078000eff07001e00900000
:10365c000cff07002e0090000aff07003e009000b0
:10366c0008ff07004e00900006ff07000080fa00dc
:10367c00000006000600fa00000f78001107980001
:10368c0022079800c0c7b300fefe070000c1b300bc
:10369c00fcfe0700000820009e0f10000300340001
:1036ac0000c8b300f7fe0700070037001e00e0005b
:1036bc0003003d000040eb00f2fe07000200370063
:1036cc001e007800effe07009e0090000004200012
:1036dc00808f50000300340000c4b300e9fe0700e3
:1036ec00080037001e0090000000e00003003d00c1
:1036fc000040eb00e3fe0700020037001e009000c4
:10370c00e0fe07002e009000e10f50000600320092
:10371c002e0090000000e0000300320010c0b30047
:10372c00d8fe0700020037002e009000d5fe0700df
:10373c000080fa00000006000a00fa00000f780072
:10374c00110798002207980033079800044f98003f
:10375c00c0c7b300cbfe070020c1b300c9fe0700f1
:10376c001e007800c7fe07001e009000c5fe070073
:10377c002e009000c3fe07003e009000c1fe070023
:10378c000e489000bffe07000080fa000000060003
:10379c000000fa00c0c7b300bafe070040c1b30076
:1037ac00b8fe07000080fa00000006000000fa00d6
:1037bc00c0c7b300b3fe070050c1b300b1fe070091
:1037cc000080fa00000006000e00fa0010079800b6
:1037dc002107980032079800430798005407980077
:1037ec0065079800c0c7b300a6fe070060c1b30010
:1037fc00a4fe07001e009000a2fe07002e00900001
:10380c00a0fe07003e0090009efe07004e009000b8
:10381c009cfe07005e0090009afe0700ce00900010
:10382c005e0090000088b9008200200011000900a1
:10383c000200d800000f78000000eb001007980081
:10384c00090037001e009000800078006e00900088
:10385c0000804000104078008afe07001e00900097
:10386c000000e800100798001e0090009e0f50000a
:10387c00f4ff35000080fa00000006000400fa0096
:10388c00000f780011079800c0c7b3007dfe070039
:10389c0080c1b3007bfe07001e00780079fe070094
:1038ac00c0c7b30077fe070090c1b30075fe0700d8
:1038bc001e00900073fe07000080fa000000060056
:1038cc000400fa00100798001e009000e80f50004a
:1038dc000300340080002000100798000c00370013
:1038ec001e0090000000e00003003c0010002000cf
:1038fc0010079800060037001e0090004300dd0002
:10390c00680f50009e00780010002000dbff0700bd
:10391c000080fa00000006001800fa00889fbe0024
:10392c0040079800510798006207980073079800a9
:10393c00040f9800150f9800260f9800370f980069
:10394c006e019000fe0190004e009000de00900091
:10395c0037f307000002be000401be000400be00e5
:10396c00d3f307000002be000404be002e09900031
:10397c00be0990000e0890009e0890002cf30700e2
:10398c000002be000401be000400be00c8f3070024
:10399c000002be000401be000800be0025f30700b3
:1039ac000002be00a2702d0033c223000400be0032
:1039bc00bff307000002be00048fbe00344380003a
:1039cc00cfa2de000400be0010f407000002be000f
:1039dc000401be000400be00b5f307000002be00e7
:1039ec000404be0044438000cfa2de000400be00ed
:1039fc0006f407000002be000401be000400be0075
:103a0c00abf307000002be000401be000800be00bc
:103a1c0008f307000002be00a2702d0033c2230081
:103a2c000400be00a2f307000002be0024079800a9
:103a3c0035079800f442800005438000a2702d00e9
:103a4c0033ca23000400be00faf207000002be00d5
:103a5c00f4428800054388002e019000be019000be
:103a6c001e00be00f3f207000002be00a2702d0083
:103a7c0033ca23000400be008df307000002be0011
:103a8c000403be0014438000254380000401be00e3
:103a9c000600be00e7f207000002be0014438800d7
:103aac00254388004f04be000080fa000000060089
:103abc000000fa001643800027438000f442800087
:103acc00054380000401be000600be0036f307006b
:103adc000002be000400be00cff307000002be00cf
:103aec0004027800040078000080fa000000060050
:103afc000400fa00004f7800110798009e427800ed
:103b0c000582fb00e10f520003003200e20f52006d
:103b1c00060032000a0037009e02900044a22f00db
:103b2c000482420034438800050037009e02900056
:103b3c0044a22f000482420044438800000000008d
:103b4c009e0090001e407800fa0007000080fa00ea
:043b5c00000006005f
:020000040000fa
:103b60003808000026000000020000005401cc00cc
:103b70000bc60100610a000040ce440000c0c10035
:103b8000440100009a9999003fcdcc000c3f9a0067
:103b900099993f00cdcc0c003f30f800d0070000d1
:103ba0000008000038000000000000005e0800006f
:103bb0000c000000000000006a0800000200000085
:103bc0000000000036090000240000000200000090
:103bd0005e090000005e090009000000000200000c
:103be00060090000006009000e02010000000000f2
:103bf00000000000000000000602020000000000bb
:103c00005a0900000200000002000000360900000e
:103c10005c09000002000000000000005e090000d6
:103c20000200000000000000600900000200000027
:103c3000000000000c0900002a0000000200000043
:103c400030313200333435003637380039414200e4
:103c500043444500460030003132330034353600ed
:103c600037383900616263006465660000286e00c1
:103c7000756c6c00290000006c080000a0000000ba
:103c800002000000010000000000000000000a0027
:103c900000000000000000000064000000000000c0
:103ca00000000000e8030000000000000000100019
:103cb000270000000000000000a0860001000000b6
:103cc0000000000040420f000000000000008000e3
:103cd00096980000000000000000e100f5050000db
:103ce0000000000000ca9a003b0000000000000035
:103cf000e40b5400020000000000e80076481700c2
:103d0000000000000010a500d4e800000000000042
:103d1000a0724e0018090000000040007a10f30065
:103d20005a0000000080c600a47e8d000300000041
:103d300000c16f00f2862300000000008a5d780059
:103d40004563010000006400a7b3b600e00d000069
:103d500000e889000423c7008a000000620900000f
:103d6000020000000200000001000000000000004e
:020000040000fa
:103d70000000fa0021e3a900c722a8002d23a90012
:103d8000c7e2a8002de3a9002143a8000419800080
:103d90000480a1000490a100041988000419800087
:103da0000450a0000460a0000470a0000419880062
:103db0000002eb001419880025e3a90025198000f2
:103dc00004f02100050272002419880024c0b30009
:103dd0000443780045322000864a780021e3a80099
:103de000d822a900d842a900d862a9000080fa0010
:103df000000006000200fa00004f78001e42780022
:103e0000e14f520007003a00dc22a900dc42a80082
:103e1000dc62a80000402f001100200096f107008e
:103e200006003700dc22a800dc42a900dc62a90001
:103e300000402f00110020008ff107000080fa00e1
:103e4000000006000000fa004519800004fe2f0063
:103e5000048262009400b300441988002023a80063
:103e6000000000000419800061026200e00f5200af
:103e7000fcff32002003a9000418800084027800af
:103e8000f4ff200004826200040078000080fa0041
:103e9000000006000000fa004519800004fe2f0013
:103ea00004826200f400b300441988002023a800b3
:103eb000000000000419800061026200e00f52005f
:103ec000fcff32002003a90004188000840278005f
:103ed000f4ff200004826200040078000080fa00f1
:103ee000000006000000fa0011e1a9001021a9005d
:103ef00010c1a9000002eb0034088800840880008b
:103f00000440a1000450a0008408880084e0a900b7
:103f100094e0a90004fa20006408880011e1a800d8
:103f2000d2e2a900d2c2a90064002000440d88009a
:103f300064002000740d88000080fa000000060074
:103f40000800fa004047980031079800be02900030
:103f500044012000110009008482d800000278008a
:103f60004222dd00050020000400be00a8f2070088
:103f70000002be00048fbe001e00be0083f20700d8
:103f80000002be000402780005fa200004825200fc
:103f9000340798004e429000e14f520005003a006d
:103fa0003e029000640d88003e009000500d880095
:103fb00004003700be009000310d88003e029000e2
:0c3fc000240d88000080fa0000000600bc
:020000040000fa
:0200000401f009
:04000800ffff0000f6
:020000040000fa
:0200000401f009
:04000c00fbff0000f6
:020000040000fa
:0200000401f009
:04001000fdff0000f0
:020000040000fa
:0200000401f009
:040014007fff00006a
:00000001FF
