:020000040000fa
:080000000002040000000000f2
:020000040000fa
:10000800be020000be020000be020000be020000e8
:10001800be020000be020000be020000be020000d8
:10002800be020000be020000be020000be020000c8
:10003800be020000be020000be02000024730000e1
:10004800be020000be020000be020000be020000a8
:10005800be020000be020000be020000be02000098
:10006800be020000be020000be020000be02000088
:10007800be020000be020000be020000be02000078
:10008800be020000be020000be0200009a7300001b
:10009800be020000be020000be020000be02000058
:1000a800be020000be020000be020000be02000048
:1000b800be020000be020000be020000be02000038
:1000c800be020000be020000be020000be02000028
:1000d800be020000be020000be020000be02000018
:1000e800be020000be020000be020000be02000008
:1000f800be020000be020000be020000be020000f8
:10010800be020000be020000be020000be020000e7
:10011800be020000be020000be020000be020000d7
:10012800be020000be020000be020000be020000c7
:10013800be020000be020000be020000be020000b7
:10014800be020000be020000be020000be020000a7
:10015800be020000be020000be020000be02000097
:10016800be020000be020000be020000be02000087
:10017800be020000be020000be020000be02000077
:10018800be020000be020000be020000be02000067
:10019800be020000be020000be020000be02000057
:1001a800be020000be020000be020000be02000047
:1001b800be020000be020000be020000be02000037
:1001c800be020000be020000be020000be02000027
:1001d800be020000be020000be020000be02000017
:1001e800be020000be020000be020000be02000007
:0801f800be020000be0200007f
:020000040000fa
:10020800be020000be020000be020000be020000e6
:10021800be020000be020000be020000be020000d6
:10022800be020000be020000be020000be020000c6
:10023800be020000be020000be02000024730000df
:10024800be020000be020000be020000be020000a6
:10025800be020000be020000be020000be02000096
:10026800be020000be020000be020000be02000086
:10027800be020000be020000be020000be02000076
:10028800be020000be020000be0200009a73000019
:10029800be020000be020000be020000be02000056
:1002a800be020000be020000be020000be02000046
:1002b800be020000be020000be020000be02000036
:1002c800be020000be020000be020000be02000026
:1002d800be020000be020000be020000be02000016
:1002e800be020000be020000be020000be02000006
:1002f800be020000be020000be020000be020000f6
:10030800be020000be020000be020000be020000e5
:10031800be020000be020000be020000be020000d5
:10032800be020000be020000be020000be020000c5
:10033800be020000be020000be020000be020000b5
:10034800be020000be020000be020000be020000a5
:10035800be020000be020000be020000be02000095
:10036800be020000be020000be020000be02000085
:10037800be020000be020000be020000be02000075
:10038800be020000be020000be020000be02000065
:10039800be020000be020000be020000be02000055
:1003a800be020000be020000be020000be02000045
:1003b800be020000be020000be020000be02000035
:1003c800be020000be020000be020000be02000025
:1003d800be020000be020000be020000be02000015
:1003e800be020000be020000be020000be02000005
:0803f800be020000be0200007d
:020000040000fa
:100400002f8022000eff27000e0188000000000050
:10041000000020000000e000020032000001200087
:10042000200288000c00070040582700010020002f
:1004300011000700000020000000e0000200320070
:100440000000020000000000e04502000000000083
:100450000040da000000fe004440a900c022200055
:100460000000e0000300320000002000a00188002e
:100470004440a80000000600910188008000780038
:100480000000eb0015003700e280400032a0b4000d
:100490009101ba00e280400032a0b4009102ba009b
:1004a000e280400032a0b4000002eb00472bde00e7
:1004b000f507b200602ce10004003a000059eb009f
:1004c0008301e900fdff3e00040037006128e100e0
:1004d000010032000082eb00040007001101ba00a5
:1004e0000200e000e8ff3a00000006003159ba00bf
:1004f0008301e9000c0032002159ba008301e900b0
:10050000080032000400e00003003a00e2804000ee
:1005100032a0b400f5ff370011d9ba008301e90019
:10052000faff3a008100e800e180400032a0b40008
:100530000000060016460400000000007447040096
:1005400000000000fe490400000000001c4c0400f4
:100550000000000070160400000000009a1604005d
:1005600000000000524504000000000094780400e0
:1005700000000000ee690400000000000040da0006
:100580000000fe0003f0a200889fbe008a9fbe000c
:100590008c1f780019010700200133006450e1002e
:1005a0004f0032006420e1005200320003826c00f0
:1005b00007003b000905d0000306d000820f54005d
:1005c0000c065d000200390002003200890178004b
:1005d000030678008582550004003d000003fd00fd
:1005e0008103fd008502ea008b854200840f7200c2
:1005f00002003b0060001000e08018006011b800ad
:100600000005eb007a28e1000a00390006007800b6
:10061000c75ddd00f707b200878075002d00370049
:10062000828171000a017800610560008180d1003b
:100630000080d3008502e900f9ff3b00060440007a
:100640008784480002003b0060041400e0841c0022
:100650000988a300070032008a817100828171003d
:10066000610164008904d1000884d3008b05e8008f
:10067000170037000978a30013003a000b00e000d0
:10068000130034008b05e9000804440089844c0001
:100690000a4474000978a3000d003a000b00e00042
:1006a000070034008b05e9000804440089844c00ed
:1006b00001003a000b0020000978a300f7ff320088
:1006c0000001eb0002003700828171000a0178000e
:1006d0008f0007000cf0a70001f0a000d800370041
:1006e0006420e10002003a00838f6c00d8003300e0
:1006f0000801be000200be00d10037000081eb00ff
:100700000a013700889fbe008a9fbe008c1f7800b8
:10071000ba000700c100330003866c006450e1009a
:100720002e0032006420e100330032006150e1000d
:100730002f0032006120e100310032008585550034
:10074000eb07b00009002000080420000500370076
:100750000804440089844c000a0031000603430069
:1007600087834b000001530081815b00f8ff330059
:100770000203be000800a0000804440089844c0065
:10078000f6ff3900c639dd00830173000100320035
:10079000130020008904d1000884d3000998a30025
:1007a000050032000800a7000300a0008904d10062
:1007b0000884d3008b05e8008904d1000884d300a5
:1007c0000001eb000281d2005100070001f0a100fe
:1007d0000cf0a70001f0a000990037006420e100b0
:1007e0009b0032000801be000200be00f7ff370088
:1007f0006120e100960032006000b800f3ff37008e
:100800000000200001f82700f0ff37000001be00c3
:10081000650007000470a70003f0a1006509b1009e
:10082000160032000d0035006828e1000600350092
:10083000f0ff2f00f1ff27000300e00013003b0052
:1008400001002800000005000000400081804800f1
:100850008502e900fcff3a0008003700f88f4200eb
:1008600002003c008000eb00000005008100d10088
:100870000080d3008502e800fcff3a000300e0009e
:1008800002003b0060001000e0801800000006003d
:100890000001be00440007000470a70003f0a1009f
:1008a00003f8a30013003a006509b10010003200fc
:1008b000090035006928e100020035000100280028
:1008c0000000050000004000818048008502e9002a
:1008d000fcff3a0000000600f88f420005003500da
:1008e0008100d1000080d3008502e800fcff3a00bf
:1008f000000006008000eb00000005004f89de00cc
:1009000082017800060137006011b8001401370039
:1009100081002000618055000b003d000b0020008d
:1009200061fe2f000100e1001d0034008281710092
:10093000610164008904d1000884d3000000e8004c
:10094000faff3a00710020006100640003007000ab
:10095000020060000900320061044400e0844c00a1
:100960000988a500050032008b05e8006808e10051
:1009700002003a008904d1000884d300f20f20005d
:100980000258e10005003d00c75ddd00f907b20037
:100990008980750008007800000006000bf8270029
:1009a0008b00780000000500c70ade00f107b200e6
:1009b000f50fb20008003200e1cf42000200320021
:1009c0000170a00024000500810f700001003200ba
:1009d0000408050044000500810f700002003a0081
:1009e000140005008502e9000000400081c04800b5
:1009f000fcff3b000170a000240005000004be00c5
:100a0000e9ff07000003be000405be000200be00af
:100a1000e5ff0700844f7500000006000200be00dd
:100a20006450e100050036006420e1000200360059
:100a30000968a30001003a000800be000160a000a0
:100a40004f0678004f05be004f04be0000000600b0
:100a5000f0ff2f00f1ff2700f9ff3700889fbe004d
:100a60008a9fbe008c1f7800e4ff0700ebff330075
:100a700003866c006450e100240032006420e10031
:100a8000270032006150e100220032006120e100c5
:100a9000210032008b854200eb07b1000134b80021
:100aa000003ab8000804420089844a00013ab800bc
:100ab0000030b8008880400009014a00040033007b
:100ac0000000400081804800020149008b05e900d8
:100ad000c909dd008301700001003200130020000d
:100ae000c814de004814dd004709de001200b20021
:100af000c808de000884700085ff070001f0a1002f
:100b00000cf0a70001f0a000cdff37006120e1004c
:100b1000cfff32000801be000200be00f7ff370021
:100b20006150e100fcff3a00c9ff3700889fbe001a
:100b30008a9fbe008c9fbe00820578000004be0024
:100b400099ff07000800be006420e100070039009b
:100b500002003a00f1ff2700f0ff2f000160a00023
:100b60001202200002408800550037006120e10099
:100b700003003a000b00a70001f8230050003700e3
:100b800001f0a1000200210093642400620007002c
:100b90000800be0004003500b2fd2000930c2400c4
:100ba0009e0007000004be000005eb000b00a6003d
:100bb0004f0dde0001f0a1000004be0032982f00ae
:100bc00023ea2300a5ff07000001eb0003f0230048
:100bd0000b00a70003f823006bfe07000bff0700c4
:100be0000000a7000a00a20044ff07000b00e0007d
:100bf000030032000200200003f0230061fe070022
:100c000001f0a2000006be000200200093042400b0
:100c100092ff07000801be005bfe0700809fbe0038
:100c20000c00be0022a22a00d3a723008bff0700de
:100c30004f01be0054fe07000004be0001f0a100f9
:100c40000200200003982300330007000800be00c4
:100c5000190035000001be0080ff07000006be003d
:100c6000b2c52900e36223007cff070022222b008b
:100c7000f3942b0044fe07000c01be0077ff070031
:100c8000e273280083c023003ffe07000c01be0072
:100c900072ff070042aa2a00a3e22b003afe0700d7
:100ca0000c01be006dff07000801be006bff0700ce
:100cb0000801be0034fe07000a00a70001f0a200f0
:100cc0004f06be004f05be004f04be0000000600e8
:100cd0000001eb0095ff37006022b80006022000fb
:100ce0000000d0008180d2000482d2008582d20030
:100cf0000000a0000202520083825a00030031006b
:100d00000202420083824a000000a1000603e900bb
:100d1000f3ff3a00000006001400200090003700a6
:100d2000881f7800030478000300e00007003d00fe
:100d300060001000e080180060011900e0811900d7
:100d400002003b0001f02d00030037000400070003
:100d500008f0a70001f0a0004f0478000000060092
:100d6000889fbe008a9fbe0000827000040271004e
:100d700004827100260032000004be000200be00a2
:100d80006011b8006b092000950220000182cf009d
:100d90000a0039000541b1000082cf000700390088
:100da0000541b1000982cf00040039000541b100be
:100db0000882cf00010039000541b1000542520010
:100dc000120032000a003b00828171006101640060
:100dd0008100d1000080d3008984d3000884d3002f
:100de0008b05e8000442e800f7ff3a0007003700ef
:100df0000804440089844c000000480081804800b9
:100e00008b05e9000442e900f9ff3a00c0fe070043
:100e10004f05be004f04be00000006000400200085
:100e200000003700889fbe008a9fbe008c1f78009c
:100e30004f26dd00f1fe0700f8fe33006120e100df
:100e4000430032006250e10041003e003e003900a4
:100e50006420e1003c003200058255000f003b0099
:100e60000402e80038003a00800f5300818f5b00d5
:100e7000350034000800be0003f0a10001f0a60018
:100e800003f0a0000cf0a700bffd0700ecfe370048
:100e90000603430087834b000c46460000055300c1
:100ea00081855b00020033000a03be000c00a00035
:100eb0000402e900f6ff3b008505780006024300c6
:100ec00087824b0004003a006000b80009f0a700d8
:100ed00001f0a000dafe37000002520081825a00c1
:100ee0000704e000040033000603430087834b003f
:100ef0008b05e900faff3700090578000604be00fb
:100f00000203be006011b80081fe0700e00f52002e
:100f1000e08f5a000700350002003c000c08a300d7
:100f2000040032000601be0003f0a0000cf0a70090
:100f300095fd07000a85680001f0a1000af0a700ee
:100f400001f0a000befe37000800be00bcfe370066
:100f5000100220000cf0a60000408800bcfe370004
:100f6000889fbe008a9fbe00841f7800a3fe0700f2
:100f70004f00780011003300f0ff2f00838f6c00ca
:100f800006003b00040565000a00a70008003700c2
:100f900009f0a6001000200008003700820f54005e
:100fa000838f5c00030039001000200001003e0028
:100fb0000000200009f0a7000000ea004f05be0075
:0c0fc0004f04be000000e000000006002e
:020000040000fa
:100fcc000000000001000000020000000100000011
:100fdc0003000000010000000200000001000000fe
:100fec0004000000010000000200000001000000ed
:100ffc0003000000010000000200000001000000de
:10100c0005000000010000000200000001000000cb
:10101c0003000000010000000200000001000000bd
:10102c0004000000010000000200000001000000ac
:10103c00030000000100000002000000010000009d
:10104c00060000000100000002000000010000008a
:10105c00030000000100000002000000010000007d
:10106c00040000000100000002000000010000006c
:10107c00030000000100000002000000010000005d
:10108c00050000000100000002000000010000004b
:10109c00030000000100000002000000010000003d
:1010ac00040000000100000002000000010000002c
:1010bc00030000000100000002000000010000001d
:1010cc000700000001000000020000000100000009
:1010dc0003000000010000000200000001000000fd
:1010ec0004000000010000000200000001000000ec
:1010fc0003000000010000000200000001000000dd
:10110c0005000000010000000200000001000000ca
:10111c0003000000010000000200000001000000bc
:10112c0004000000010000000200000001000000ab
:10113c00030000000100000002000000010000009c
:10114c000600000001000000020000000100000089
:10115c00030000000100000002000000010000007c
:10116c00040000000100000002000000010000006b
:10117c00030000000100000002000000010000005c
:10118c00050000000100000002000000010000004a
:10119c00030000000100000002000000010000003c
:1011ac00040000000100000002000000010000002b
:1011bc00030000000100000002000000010000001c
:1011cc00754300002f4f0000532d000049490000cb
:1011dc0020490000646c00006500000075430000ad
:1011ec002f4f0000532d00004949000020530000f0
:1011fc0074610000740000000100000078560000cb
:10120c003412000014000000100000000100000067
:10121c002000000080020000010000001600000009
:10122c000c0000000200000005000000100000008f
:10123c003f0000000100000001000000050000005c
:10124c001000000020000000a000000001000000c1
:10125c000200000001000000040000000e0000006d
:10126c000800000001000000020000000000000067
:10127c000100000001000000a000000001000000bf
:10128c00160000001000000001000000a00000008b
:10129c0001000000010000004000000048000000b8
:1012ac00e8030000010000001e0100000100000026
:1012bc001000000010000000080000000a000000f0
:1012cc002800000080020000040000002000000044
:1012dc00da0f0000537400006172000074200000eb
:1012ec0054610000736b0000004c0000434400008c
:1012fc0020540000617300006b0000005049000096
:10130c004420000054610000736b00000054000086
:10131c006f750000636800002054000061730000ca
:10132c006b00000053610000766500002074000023
:10133c006865000020570000686100006c650000c3
:10134c007300000053650000636f00006e640000c2
:10135c0073200000536900006e63000065200000dc
:10136c005265000073650000743a00002000000014
:10137c00583a000020000000593a000020000000fc
:10138c004f5300002d5400006d7200004c6f000094
:10139c00636b0000004f0000532d0000546d0000e3
:1013ac00725300006967000000750000432f0000b5
:1013bc004f5300002d49000049200000546d0000df
:1013cc0072000000507200006f6200006520000087
:1013dc004f530000205000006c750000674900005e
:1013ec006e000000754300002f500000726f00006b
:1013fc0062650000204300006f6d000000000000db
:10140c00754300002f4c000043440000204c0000aa
:08141c006f6300006b0000008b
:020000040000fa
:101424000a00fa0020079800310798004207980044
:101434000002eb00040f780044c42000144278003a
:10144400e04f5200050032004e02900015c1b30077
:10145400054a78000042eb001f0037002e0290007e
:10146400144278000482fb000402e900e30f5200f6
:1014740015003e0014028000040f7800140280005e
:101484000450a0000460a0000470a00014028800ae
:101494002e0290006f024200840078003e0090000b
:1014a400e105070000427800244798001e027800f6
:1014b400140288004e0290008042eb00054a780036
:1014c4002e429000040037004e02900015c0b30075
:1014d400054a78000042eb00044078000080fa00de
:1014e400000006000a00fa0020079800310798005f
:1014f400420798000002eb00040f780044c4200067
:1015040014427800e04f5200040032004e02900072
:1015140025c1b300054a7800290037002e02900047
:10152400144278000482fb000402e900e30f520035
:101534000f003e0014028000040f780014028000a3
:101544000450a0000460a0000470a00014028800ed
:101554003e009000d0050700004278002447980020
:101564002e429000ef4f520005003e000a00370063
:101574004e02900015c0b300054a780010003700f1
:101584001e027800140288004e029000b5c0b30019
:10159400054a78000a0037002e0290006f024200cc
:1015a400be009000040078009f0507001e0278002a
:1015b400140288004e0290008042eb00054a780035
:1015c4000080fa00000006001800fa007007980076
:1015d400010f9800120f9800230f9800340f980001
:1015e4000002eb00540798000e0a90008002eb0002
:1015f400050a78007e029000040f78001e0278002d
:101604009402780015079800170037001e02900016
:10161400144278000482fb00e20f520009003200f9
:10162400e30f520009003200e10f520009003200ba
:101634003e0a900015c0b300054a78000002eb0092
:101644005c013700000000000300370000000000c8
:1016540001003700000000001e8fe8001e02780021
:1016640094027800150798001e029000e00f5200c3
:10167400e6ff3a0044c4200014427800e04f5200d0
:10168400050032003e0a900025c0b300054a7800e8
:101694000002eb004701370054c4200014427800d4
:1016a400e04f5200050032003e0a9000d5c0b3005e
:1016b400054a78000002eb003e0137001402800066
:1016c40054079800140280000450a0000460a00095
:1016d4000470a000140288000042eb004447980004
:1016e4000002eb00340798000042eb00044f98001e
:1016f400fe029000050f78001e0278009402780024
:1017040015079800860037001e02900014427800e6
:101714000482fb00e20f520042003200e30f520049
:1017240003003200e10f5200200032006e00370047
:101734001e02900024029000e00f520017003200b5
:101744001e029000240290008402e9001e02900010
:10175400250298000e0a90009e029000050a780067
:101764000e0a90000482e800040f980014c0b3002d
:10177400444798001e0a90008002eb00050a780096
:101784001e0a90000482e800140f98003e029000a4
:101794000402e800340798005d0037000e4a900008
:1017a4000404a000044f9800590037001e02900062
:1017b40014029000e00f5200160032001e02900046
:1017c400940290001e0a9000050a78001e0a9000f8
:1017d4000482e800140f98001e0290008002eb00bf
:1017e400150298000e0a90009e029000050a7800e7
:1017f4000e0a90000482e800040f980014c0b3009d
:10180400444798003e0290000402e8003407980020
:101814003f0037000e4a90000414a000044f9800c3
:101824003b0037001e0290001402900064079800e9
:101834006e02900064029000e00f52002600320015
:101844006e02900044029000140378009e0a9000f7
:10185400860a78009e0a90008582e800150f980099
:101864008482e8006e029000450298006e029000a7
:10187400c40290006e02900024029000848f5200f3
:1018840004003a006e029000940290006e029000f0
:10189400450298006e029000640290008402e90000
:1018a4006e029000650298000e0a90009e0290005d
:1018b400050a78000e0a90000482e800040f9800dc
:1018c40014c0b300444798003e0290000402e800ac
:1018d400340798000e0037000e4a90000424a0003c
:1018e400044f98000a0037005e029000140288003a
:1018f4000e0a90008002eb00050a78003e0a900070
:1019040015c0b300054a78003e029000a9003700d4
:101914001e8fe8001e0278009402780015079800d4
:101924001e029000e00f520077ff3a004e429000f2
:10193400e14f52000a003a000e0a90008002eb00c8
:10194400050a78005e029000140288003e0a9000a6
:101954008042eb00054a78003e0290009500370073
:10196400c46c8000c56c8000655b90008e4a90005a
:101974000543730005c8b30085427300655a980097
:10198400c46c80008042eb00755a9800c46c8000df
:10199400ae0a9000650a98007e0090009c02070041
:1019a4005e029000140288005704070015028000ac
:1019b40055079800140280000450a0000460a000a1
:1019c4000470a00014028800c46c8000745a900053
:1019d4000482fb00e00f520002003200e20f5200ca
:1019e4001b003a00c46c8000940a9000150798000c
:1019f4001e029000e00f52000d0032000e0a90000b
:101a04009e029000050a78000e0a90000482e80005
:101a1400040f98000e0a90008002eb00050a78007b
:101a24003e0290000402e800340798000d003700dd
:101a3400c46c800015c0b300755a9800c46c800053
:101a4400fe00900004007800e9020700050037005a
:101a5400c46c8000fe00900004007800e4020700db
:101a640000000000c46c8000745a90000482fb00e3
:101a7400e00f520003003200e20f52002700320050
:101a8400300037001e029000144278000482fb00ec
:101a9400e10f520013003500e20f52000900340038
:101aa400e30f52000f003a001e0a90008002eb0080
:101ab400050a78001e0a90000482e800140f9800ba
:101ac40012003700c46c8000b40a90001e0a900013
:101ad400050a78001e0a90000482e800140f98009a
:101ae4000a0037005e029000140288000e0a90007b
:101af4008002eb00050a78003e0a900015c0b3008e
:101b0400054a78003e0290002a0037003e0a900001
:101b14008042eb00054a7800140037001e0a90004a
:101b24008002eb00050a78001e0a90000482e80097
:101b3400140f98003e0a9000e5c0b300054a7800ef
:101b44000a0037001e0a90008002eb00050a7800a4
:101b54001e0a90000482e800140f98003e0a9000c8
:101b6400a5c0b300054a780000000000c46c8000e2
:101b74008042eb00655a9800c46c80008042eb0000
:101b8400755a9800c46c80008002eb00150a980016
:101b9400c46c80008002eb00250a9800c46c8000ad
:101ba4008002eb00350a9800de02900015028800de
:101bb4003e029000040078000080fa000000060055
:101bc4000000fa00153007000c0307002c0307007f
:101bd40076030700d70207000d0f0700f02b07005c
:101be40032230700450307005a030700941a07002d
:101bf40011300700093307000080fa0000000600d6
:101c04000000fa0014c5200014427800e14f52008d
:101c140009003a0044c4200014427800e14f420015
:101c24000500320044c42000144278008442e800d5
:101c340044c42000054a78000080fa000000060031
:101c44000200fa000002eb00040f780014c5200023
:101c540014427800e14f520037003a001402800029
:101c6400040f7800140280000450a0000460a00057
:101c74000470a0001402880044c4200014427800b8
:101c8400e04f52000500320044c4200014427800a2
:101c94008442e90044c42000054a780044c420007a
:101ca40014427800e04f520021003a0054c420004e
:101cb40014427800e04f52001d003a00c5030700ab
:101cc40074c420009442780064c420001442780054
:101cd40084cf52001600320074c4200014427800ed
:101ce4000482fb008402420004da200004824200e1
:101cf40014027800e46c8800e66c800036129000d0
:101d0400c612900061024200e0824a003413980037
:101d14004513980014408000254080006102420071
:101d2400e0824a00144088002540880024320700dd
:101d34001e027800140288000080fa0000000600e9
:101d44000200fa000002eb00040f780014c5200022
:101d540014427800e14f520016003a001402800049
:101d6400040f7800140280000450a0000460a00056
:101d74000470a0001402880044c4200014427800b7
:101d8400e04f520009003a0054c420001442780085
:101d9400e14f42000500320054c420001442780090
:101da4008442e80054c42000054a78001e027800ea
:101db400140288000080fa00000006000200fa0005
:101dc4000002eb00040f780014c5200014427800d0
:101dd400e14f520024003a0014028000040f7800fe
:101de400140280000450a0000460a0000470a0004d
:101df4001402880054c4200014427800e04f5200ba
:101e04001700320054c42000144278008442e900d0
:101e140054c42000054a780054c4200014427800b9
:101e2400e04f52000b003a0044c4200014427800f2
:101e3400e04f520004003a001e02780014028800a9
:101e440031030700080037001e02780014028800de
:101e5400050037001e0278001402880002003700d3
:101e64001e027800140288000080fa0000000600b8
:101e74000000fa0014c5200014427800e04f52001c
:101e840010003a005303070074c420009442780001
:101e940064c42000054a780074c420001442780009
:101ea4000482fb008402420004da2000048242001f
:101eb40014027800e46c8800e46c8000c46c880030
:101ec4005e3107000080fa00000006000200fa00fc
:101ed4000002eb00040f780020002000092e070008
:101ee40014028000040f7800140280000450a00043
:101ef4000460a0000470a000140288006022b800ee
:101f0400a4628800b56288001e027800140288006a
:101f140040062000fb2d070014028000040f780007
:101f2400140280000450a0000460a0000470a0000b
:101f340014028800a4628000b5628000d45788002f
:101f4400e557880024b0200015c0b300054a780086
:101f54001e027800140288000080fa0000000600c7
:101f64000600fa000002eb0024079800532f070034
:101f74001402800024079800140280000450a0007a
:101f84000460a0000470a0001402880074a98000fa
:101f940085a9800061024200e0824a0074a9880099
:101fa40085a98800ae0290001502880014c520009f
:101fb40014427800e14f52006f003a0004452100ba
:101fc400144278000482fb00e10f52000700320043
:101fd400e20f520008003200e00f52000c003a00f9
:101fe40014c0b300244798000f0037000042eb00f0
:101ff400244798000c00370014c0b300244798000d
:102004000445210015c0b300054a780006003700d6
:1020140014c0b30024479800044521008042eb001b
:10202400054a7800000000002e429000e04f520064
:1020340050003200f46c8000040f78004700370031
:102044001502800025079800140280000450a000a7
:102054000460a0000470a000140288001e0278002e
:10206400640a9000e00f5200370032001e0278002c
:10207400640a90008402e9001e027800650a980050
:102084001e027800640a9000e00f52002e003a000d
:102094001e027800645a90008482fb0074032000be
:1020a40004826200e00f52000a0032001e0278002f
:1020b400e45a900084ccb30084c262001e0278000b
:1020c400655a98001e02780015c0b300755a98002e
:1020d400030037001e0278008042eb00755a980016
:1020e4001e027800645a90000482fb0068026200b9
:1020f400e00f520014003a001e027800c4629000ff
:1021040084c420001442780084c2720084c4200075
:10211400054a78001e027800246290000482fb00c5
:102124009e027800a56290008582fb0096c4200080
:1021340066c37a009e027800b5629000054373007e
:1021440095c4200086727a001e027800f402900082
:10215400050f78002e029000140288001e027800f9
:1021640084629000f4c3b30084cf5200b4ff3a00f9
:1021740001003700000000000080fa0000000600a3
:102184000000fa00e4112000040078000080fa0046
:10219400000006000000fa000080fa0000000600bb
:1021a4000c00fa003007980041079800224f98006d
:1021b400334f98003e029000644290000482fb007a
:1021c400657e2800654f7a009e4278000582fb00f8
:1021d400be02900066024200048242001442900053
:1021e4000482fb00657e280065437a001647980048
:1021f4009e42780034002000842add001e429000b4
:1022040004c24200244798002e4290000482fb003e
:102214008402420004da200004824200940278001e
:10222400250798002e0290008002eb00650a9800b2
:102234002e0290004e039000360a98002e02900061
:10224400645a9000844278002e4a900004c2ea0046
:1022540004c26200844278002e029000655a9800fd
:102264002e029000be4a9000755a98002e029000eb
:10227400645a90000482fb0068026200e00f52007e
:1022840012003a002e029000c462900084c4200020
:102294001442780084c2720084c42000054a780085
:1022a4001e4378000682fb001e4378008682fb00f2
:1022b40096c4200066c37a00ae029000b562900016
:1022c4000543730095c4200086727a00be00900016
:1022d4002e0090009c0007002e029000240a90001b
:1022e400e00f5200080032002e029000240a9000f1
:1022f400840078002e009000bd0007002e0290009c
:10230400be029000150a98002e4290000440780006
:102314000080fa00000006000400fa00100798008c
:10232400c46c80009e029000150a9800c46c800062
:10233400246290000482fb00c56c8000a5629000ba
:102344008582fb001e039000e68242008502430062
:1023540015439000c56c8000b562900085427300ff
:102364001e03900004024300754298001e02900070
:10237400e4429000c46c80004462900084c2720005
:102384001e02900065429800c46c80002463900093
:10239400064f78009e4278000582fb001e437800b9
:1023a4008682fb0096c42000e6c27a0005437800ca
:1023b400c56c8000b562900085c2ea008542630066
:1023c4000543780095c4200086727a009e42780006
:1023d4000582fb0095c4200065427a00e04f52005c
:1023e40009003a00c46c80004462900084c2ea0090
:1023f40084c420001442780004c26200844278003d
:1024040084c42000054a78000080fa000000060019
:102414000800fa0030079800c46c80008002eb00ca
:10242400150a9800c46c8000be029000250a98002a
:102434003e029000040f78001e0278009402780097
:10244400150798001b003700c46c800024629000bc
:102454000482fb00c56c8000a56290008582fb00ad
:102464001e039000e682420085024300154390005b
:10247400c56c8000b5629000854273001e03900015
:1024840004024300754298001e029000e44290004a
:10249400c46c80004462900084c272001e029000ea
:1024a400654298001e8fe8001e02780094027800ae
:1024b400150798001e029000e00f5200e2ff3a0058
:1024c400c46c8000a4629000454798004e4290007e
:1024d4000482fb00ce4290008582fb0096c420005b
:1024e400e6c27a0005437800c56c8000b5629000ae
:1024f40085c2ea00854263000543780095c4200044
:1025040086727a004e4290000482fb0095c420003b
:1025140065427a00e04f520009003a00c46c800022
:102524004462900084c2ea0084c42000144278000b
:1025340004c262008442780084c42000054a780002
:102544000080fa00000006000600fa001007980058
:10255400210798001e029000a4629000054f7800a5
:102564001e4378000682fb001e4378008682fb002f
:102574002e039000e68242008502430095429000bb
:10258400054378009e029000b562900085c2ea007f
:10259400854263002e0390000402430075429800b4
:1025a4009e4278000582fb00ae0290006602420063
:1025b4000482420014429000e04f52000a003a00a4
:1025c4002e02900064429000844278001e02900023
:1025d4004462900004c2ea0004c2620084427800ab
:1025e4002e029000654298000080fa000000060068
:1025f4000c00fa0040079800510798004e02900022
:10260400a4629000454798004e029000c462900076
:10261400554798004e029000b462900065479800b8
:102624005e029000040f78001e0278009402780085
:1026340015079800240037004e4290000482fb00e6
:10264400ce4290008582fb001e039000e682420089
:10265400850243009542900005437800ee429000c5
:1026640085c2ea00854263001e0390000402430011
:10267400754298004e4290000482fb009e02900036
:10268400660242000482420014429000e04f52006d
:1026940009003a001e0290006442900084427800cf
:1026a4005e42900004c2ea0004c2620084427800e0
:1026b4001e029000654298001e8fe8001e027800fa
:1026c40094027800150798001e029000e00f520053
:1026d400d9ff3a000080fa00000006000600fa0064
:1026e400200798002e0290008042eb00654298007b
:1026f4002e029000670f42000042eb00244798002e
:10270400070037001e0278008042eb00054a78007b
:102714001e0fe8002e4290000442e800244798006f
:102724002e429000e74f5200f6ff36000080fa0078
:10273400000006000600fa00848020000128200022
:1027440004007800cb000700848020001407980060
:1027540084822000240798000002eb00040f780014
:10276400130037001e0290008042eb00054a7800f7
:102774001e029000ae029000150298001e02900006
:10278400f5c3b300754a98001e0290008042eb0026
:10279400055298001e0290000402b000140798002d
:1027a4002e0290000402b000240798001e0fe800d7
:1027b4001e027800f20f5200eaff36001e0290005b
:1027c4008042eb00054a78001e0290008002eb0074
:1027d400150298001e029000f5c3b300754a9800d4
:1027e4001e0290008042eb00055298008480200075
:1027f400344088000080fa00000006000000fa005f
:102804006022b80074a9880085a9880044c4200007
:102814008042eb00054a780054c420008042eb005b
:10282400054a780024c520008042eb00054a780060
:1028340014c520008042eb00054a78006022b800ed
:1028440014408800254088006022b800a4628800f3
:10285400b56288006022b800f457880005588800e3
:102864006022b800d4578800e557880024b02000bf
:102874008042eb00054a78000080fa000000060060
:102884000400fa0084c420008042eb00054a78006a
:1028940094c42000140798000042eb00044f780011
:1028a400070037001e0290008042eb00054a7800c2
:1028b4001e0290000402e800140798001e4fe8006e
:1028c4001e427800e74f5200f6ff360064c4200031
:1028d4008042eb00054a780074c420008042eb007b
:1028e400054a78000002eb00e46c88000002eb006b
:1028f400c46c88000080fa00000006000200fa00a0
:1029040034002000841f78000002eb00841f78004c
:10291400060a20000700200065d920000082eb0091
:10292400f3c3b30082c520008000eb0000672100e0
:10293400700d0700e4875700648e28000e017800ac
:1029440084007800f0c3b3001f0f07000080fa0072
:10295400000006000200fa0034002000841f780002
:102964000002eb00841f7800060a20000700200004
:1029740025c42000e4ff2f00e3c3b30042b02000cd
:102984008000eb00a06921005a0d0700e48757007e
:10299400448f28000e01780084007800e0c3b3005f
:1029a400090f07000080fa00000006000600fa0084
:1029b40004e2200001632000040078002d000700d9
:1029c40004da200001082000040078002900070030
:1029d40004e220001407980084e6200024079800ed
:1029e4000042eb00044f7800100037001e029000f4
:1029f400ae029000750298001e029000f5c3b30069
:102a0400057a98001e0290008042eb00157a980027
:102a14001e0290008404b000140798002e02900057
:102a24008404b000240798001e4fe8001e4278007a
:102a3400f44f5200edff36001e0290008002eb00be
:102a4400750298001e029000f5c3b300057a980041
:102a54001e0290008042eb00157a98000002eb0001
:102a6400f46c880004e22000d46c88000080fa0032
:102a7400000006000400fa00000f78001107980017
:102a8400070037001e0278008042eb00054a7800f8
:102a94001e0fe8001e0290000402e90014079800cb
:102aa4001e029000e00f5200f6ff3a000080fa0088
:102ab400000006000600fa00000f780011079800d5
:102ac400220798000b0037001e0290009442780001
:102ad4001e027800054a78001e0fe8001e029000ce
:102ae4000402e800140798002e0290000402e90092
:102af400240798002e029000e00f5200f2ff3a00e3
:102b04000080fa00000006000200fa000002eb0058
:102b1400040f780014028000040f7800140280006f
:102b24000450a0000460a0000470a00014028800f7
:102b340044c4200014427800e04f520021003a00bf
:102b440054c4200014427800e04f52001d003a00a3
:102b54002000070074c420009442780064c420005c
:102b64001442780084cf52001600320074c420004e
:102b7400144278000482fb008402420004da20003c
:102b84000482420014027800e46c8800e66c800041
:102b940036129000c612900061024200e0824a00a0
:102ba4003413980045139800144080002540800099
:102bb40061024200e0824a001440880025408800f7
:102bc4003e2e07001e027800140288000080fa00de
:102bd400000006000200fa0084c4200014427800b9
:102be4000482fb00657e2800654f7a009e427800cf
:102bf40034002000842add001e4378000682fb0096
:102c040096c4200066427a000482fb00667e280097
:102c140066427a0084c2420074c42000054a7800e7
:102c24000080fa00000006000600fa001007980071
:102c3400210798000042eb00044f78000b00370096
:102c44002e029000944278001e029000054a7800fb
:102c54001e0290000402e800140798002e0290005f
:102c64000402e800240798001e4fe8002e0290009a
:102c740014427800e04f5200f1ff3a001e02900027
:102c84008042eb00054a78001e4278000440780038
:102c94000080fa00000006000400fa001007980003
:102ca4000042eb00044f7800040037001e0290003d
:102cb4000402e800140798001e4fe8001e0290006a
:102cc40014427800e04f5200f8ff3a001e427800a8
:102cd400044078000080fa00000006000400fa00b6
:102ce400100798000002eb00040f78001402800023
:102cf400040f7800140280000450a0000460a000b7
:102d04000470a00014028800a4628000b5628000f0
:102d140061024200e0824a00a4628800b562880031
:102d24001e02780014028800d22b0700efff370040
:102d34000400fa00100798000002eb00040f78006a
:102d440002003700800c20006e2a070024b0200007
:102d540014427800e04f5200faff3200d45780004a
:102d6400e557800042062000030020000400be0056
:102d7400d8f707000002be00d4578800e557880042
:102d8400d4578000e5578000e00f5200e08f5a00ce
:102d940005003a0084af20008042eb00054a780029
:102da40000c0eb001c0f070014028000040f780021
:102db400140280000450a0000460a0000470a0006d
:102dc40014028800a4628000b5628000f457880071
:102dd400055888006022b800a4628800b5628800a3
:102de4001e02780014028800f657800007588000fd
:102df400d4578000e55780000401be000600be00e1
:102e0400b4f707000002be000442780045c6b300d0
:102e140084c2520084af2000054a7800992b070031
:102e24000300070040062000362a0700deff3700b3
:102e34000c00fa000042eb00044f78002700370032
:102e440064024700840078001e407800880e070062
:102e540000427800144798001e429000e04f520050
:102e64001d003a009e4278000582fb008402420065
:102e740004da2000048242009402780015079800c6
:102e84001e029000e00f5200130032001e02900058
:102e9400e10f5200100032001e0290002403900043
:102ea4001e029000c40290003402900004027800d4
:102eb400040242000402ea00840243001e0290005d
:102ec400151a98004e029000de0290001e03900036
:102ed400241b9800351b98001e4fe800f4c3b30070
:102ee4009e42780084cf5200d5ff36000080fa005d
:102ef400000006001400fa004047980031079800cb
:102f040042079800530798006407980075079800d3
:102f1400060f9800170f98000002eb00040f7800ca
:102f240014028000040f7800140280000450a000f2
:102f34000460a0000470a00014028800d56c800016
:102f4400150798001e029000e00f5200a400320002
:102f54001e02900074029000d46c88001e03780056
:102f6400160288001e029000be039000070a780033
:102f74001e029000ce429000056298001e0290004e
:102f84008042eb00655a98001e0290008042eb00dc
:102f9400755a98001e0290008002eb00650a9800a2
:102fa4001e0290000e0b9000160298001e02900064
:102fb4006e039000fe0390003602980047029800ca
:102fc4001e029000ce039000270298001e0290007b
:102fd4009e0a9000550298001e0290005e03900025
:102fe400660298001e0290008042eb005562980031
:102ff4004e4290000482fb004322de0084427800ab
:103004001e029000256298004e429000e742620042
:103014001e029000156298001e0290002462900027
:103024000482fb0015002000042add00844278009d
:103034001e029000456298001e02900014629000e7
:103044000482fb0015002000042add00844278007d
:103054001e029000356298001e0290008002eb0070
:10306400150a98001e0290008002eb00250a9800c1
:103074001e0290008002eb00450a98001e02900098
:103084008002eb00350a98001e0390006022b8000d
:1030940034139800451398001e0390006022b80072
:1030a40074139800051b98001e0390006022b8005a
:1030b40054139800651398001e0290008002eb00e0
:1030c400151a98001e0390006022b800241b980073
:1030d400351b98001e029000f5c3b300057a9800d2
:1030e4001e0290008042eb00157a98001e009000aa
:1030f400ec2a07001e009000d22a07001702800065
:10310400070f7800140280000450a0000460a0009f
:103114000470a000140288004e4290000482fb0058
:103124008402420004da2000048242009e029000dd
:10313400050a7800f56c80001e0290007502980064
:103144001e0290008002eb00050a9800f46c8000d7
:10315400e00f520003003200f46c80001e03900064
:10316400060a98009e039000f76c88001e029000e7
:10317400c462900084c420001442780084c27200a7
:1031840084c42000054a78001e0290002462900046
:103194000482fb009e029000a56290008582fb00e1
:1031a40096c4200066c37a009e029000b562900027
:1031b4000543730095c4200086727a0024c520005c
:1031c400144278008442e80024c52000054a7800af
:1031d4001e027800140288000042eb00030037004e
:1031e4009e0278001502880024c4b30004407800cd
:1031f4000080fa00000006000000fa000002eb0064
:10320400a43789000002eb00b4378900842e07003c
:103214006022b800a4368900b53689006022b8005f
:10322400c4368900d53689006022b800e4368900a6
:10323400f53689006022b800043789001537890003
:103244006022b80024378900353789006022b8002d
:1032540044378900553789006022b80064378900f3
:10326400753789006022b800843789009537890052
:103274008467250045232100d43b8900e53b890070
:103284000002eb00f43b89000002eb00c43b890020
:103294000080fa00000006001000fa0040079800c1
:1032a4005107980062079800730798006e02900017
:1032b400e10f520002003e000002eb007a003700ea
:1032c4004e029000140798005e02900024079800b4
:1032d4001e0290000402e800144278000482fb00fd
:1032e400c822dd001e029000144278000482fb0014
:1032f40004824200340798001e0290000482e80011
:1033040014079800a4368100b5368100610242009a
:10331400e0824a00a4368900b5368900c4368100ab
:10332400d536810061024200e0824a00c436890039
:10333400d53689003e0290006123b8000082eb007c
:103344008082eb000602420087824a009600200039
:1033540007002000860f5200878f5a004b003e0062
:103364000460010009003700180037002700370007
:103374000e00370045003700440037001b003700bb
:103384002a0037003100370038003700fe01900072
:103394006e019000ae0090001e0090000f01070027
:1033a40000027800040f78003e003700fe01900010
:1033b4006e019000ae0090001e009000b301070063
:1033c40000027800040f780036003700fe019000f8
:1033d4006e019000ae0090001e009000e90107000d
:1033e40000027800040f78002e003700fe019000e0
:1033f4006e019000ae0090001e0090002f020700a6
:1034040000027800040f780026003700fe019000c7
:103414006e019000ae0090001e0090009e02070016
:1034240000027800040f78001e003700fe019000af
:103434006e019000ae0090001e009000dd020700b7
:1034440000027800040f780016003700fe01900097
:103454006e019000ae0090001e009000490307002a
:1034640000027800040f78000e003700fe0190007f
:103474006e019000ae0090001e009000eb03070068
:1034840000027800040f78000600370091cfb300e3
:103494002e009000b900070000027800040f7800a5
:1034a400000000001e027800040078000080fa008a
:1034b400000006000400fa001007980014028000bf
:1034c400040f7800140280000450a0000460a000df
:1034d4000470a000140288001e029000f43b8900ce
:1034e4001e027800140288000080fa000000060022
:1034f4000400fa001007980014028000040f7800fa
:10350400140280000450a0000460a0000470a00015
:10351400140288001e029000c43b89001e02780039
:10352400140288000080fa00000006001400fa006b
:10353400000f9800110f98001e0a9000e00f52002f
:1035440005003a000040eb00d52d0700004278004a
:10355400044f78000400370010c0b300d02d0700da
:1035640000427800044f78001e427800e04f520079
:1035740002003a000042eb005f0037000e089000a2
:10358400ea1c0700000278000500200014079800d8
:103594002507980051003700b4378100640798006c
:1035a400a437810074079800ee0290007e02900018
:1035b400848f520006003600ee0290007e029000d6
:1035c400048252000402e900440798000c0037000a
:1035d4006e029000e00f520005003a00f50720004b
:1035e4007e029000048252004407980004003700d1
:1035f400050820007e0290000482520044079800cf
:103604004e029000e00f520009003a001e0a90009a
:10361400e00f520003003a00c12d07000042eb0006
:10362400350037001e0890008a2d07002b00370054
:103634004e0290006123b8001e029000ae0290007a
:10364400840f5300858f5b00030036001e02900038
:1036540054079800020037004e0290005407980067
:10366400fe0290005e02900004824200340798003b
:10367400be02900004082000848f520002003a0029
:103684000002eb0034079800fe029000846f2200d1
:10369400048242005e0190008e08900004007800cd
:1036a400d22507003e029000a43789008e0a9000bc
:1036b4005e02900004824200040f98005e029000b3
:1036c400050020001e039000ae0390000402530086
:1036d40085825b0014079800250798001e0290005d
:1036e400ae029000e00f5200e08f5a00aaff3a00a9
:1036f4008b2d070014c0b300044078000080fa004a
:10370400000006000600fa00a437810014079800a0
:10371400b4378100240798009e0290002e02900086
:10372400848f520003003a000042eb00044f7800fb
:103734000200370014c0b300044f78001e42780022
:10374400044078000080fa00000006000200fa003d
:103754000042eb00044f7800eaff070000427800c3
:10376400e14f520001003a001e04a0001e427800fe
:10377400044078000080fa00000006000400fa000b
:10378400000f7800214798002437810035378100e5
:1037940061024200e0824a002437890035378900fb
:1037a400010028000e00780099030700ae40900045
:1037b4000e0078008a030700e4ff07000042780047
:1037c400844078000e007800850307004400200040
:1037d400040078000080fa00000006001000fa00df
:1037e40040079800510798006207980073079800f3
:1037f4000002eb00140798000002eb00040f7800ad
:103804006e029000e40f5200060032005e02900047
:10381400e1cfb30004007800d8ff0700000278006d
:10382400970037006802470004007800430307004c
:1038340000027800140798001e0290001520200052
:10384400850f52000a00320015202000850f520017
:1038540004003e001410b100e10f520027003e00a6
:103864000300370015002100850f520023003a00a1
:103874006a0247001100280004007800640307006e
:103884006a02470011c0b300040078005403070023
:10389400aeff0700804278006a0247008540780046
:1038a400040078004e0307001e029000152020003b
:1038b400850f52005400320015202000850f52005d
:1038c40007003e0015102000850f52001100320041
:1038d40025102000850f52001900320063003700c4
:1038e40015002100850f5200200032002500210020
:1038f400850f5200500032005c0037005e029000d9
:10390400c1cfb300040078009cff070000027800d8
:103914005b0037006a0247000104200004007800bd
:103924003b0307006a0247008000eb0004007800b4
:103934003703070044002000040f78004e003700ce
:103944006a024700010420000400780030030700e5
:103954006a0247008000eb00040078002c03070093
:1039640044002000040f7800430037006a02470037
:103974001100200004007800250307006a024700b4
:103984004100200004007800210307006a02470078
:1039940021002000040078001d0307006a0247008c
:1039a400710020000400780019030700840020003f
:1039b400040f78006a0247003100200004007800f8
:1039c400130307006a024700810020000400780006
:1039d4000f0307001e027800640f42006a024700ca
:1039e4009100200004007800090307006a024700e0
:1039f400a100200004007800050307009e0278005f
:103a0400648f42001c003700846725004523210091
:103a1400d43b8900e53b89005e029000420020000f
:103a2400a177220004007800f0240700440020005d
:103a3400040f780010003700840c200005002000db
:103a440024079800350798005e029000e4024700be
:103a5400420020008500780004007800e324070079
:103a640044002000040f7800030037000002eb003c
:103a7400040f7800000000009e0278006482420077
:103a8400040078000080fa00000006001200fa002a
:103a9400500798006107980072079800030f980078
:103aa4007e029000e80f5200060032006e02900081
:103ab400e1cfb3000400780030ff07000002780073
:103ac4002d00370014028000040f780014028000d7
:103ad4000450a0000460a0000470a0001402880038
:103ae400f43b8100140798001e0278001402880039
:103af4001e029000e00f5200100032006a024700dc
:103b0400040078008d020700000278002407980062
:103b14006a024700040078009a0207000002be000f
:103b240034079800450798001e0290003e0190005b
:103b3400ce0190002e009000040001006c024700aa
:103b44004100280004007800b10207006c0247001d
:103b540011c0b30004007800a1020700fbfe0700b7
:103b6400804278006c0247008540780004007800a9
:103b74009b02070044002000040078000080fa0043
:103b8400000006000c00fa00200798003107980096
:103b940042079800530798000002eb00040f7800d6
:103ba4000002eb00140798004e029000e80f520048
:103bb400060032003e029000e1cfb300040078001a
:103bc400eefe070000027800390037006402470067
:103bd40004007800590207000002780014079800d6
:103be40064024700040078005402070000027800d1
:103bf400040f78001e029000e40242005e0290006e
:103c0400848f5200060036003e029000d1cfb300ec
:103c140004007800d9fe0700000278002400370071
:103c2400e4368100f536810061024200e0824a00f8
:103c3400e4368900f53689001e0290006123b8003d
:103c440004378100153781000602420087824a004a
:103c540004378900153789006602470021002800cf
:103c6400040078006a0207006602470011c0b3002e
:103c7400040078005a020700b4fe0700804278006e
:103c8400660247008540780004007800540207006b
:103c94009e0278003e0290001e019000850078008c
:103ca40004007800512407001e02900064024200c0
:103cb400040078000080fa00000006001600fa00f4
:103cc400881f780070079800010f9800120f980061
:103cd400230f98001e0a9000e60f520005003e00d4
:103ce400e1cfb3000e089000a4fe070000027800a4
:103cf400650037000e0a9000440798004400200035
:103d0400040f78000e0a900075c0b300054a7800cd
:103d14000e0a90000402e80005c8b300054a7800c2
:103d24000e0a90000482e80015c0b300054a78002a
:103d34000e0a90006304420084fe070000427800eb
:103d4400044c78000e0a900064024200040f9800ac
:103d540074002000140798000002eb002407980068
:103d64000002eb0034079800320037007e02900016
:103d7400144278000482fb00540798007e029000ed
:103d84000482e800144278000482fb00c822dd00ab
:103d94007e0290000402e800144278000482fb00d2
:103da40004824200640798007e029000650242008b
:103db400740798001e0290006502420014079800e0
:103dc4005e0290001e0f42002e0a90009e027800b0
:103dd400848f5200070036004e029000040f9800b2
:103de400d1cfb3000e08900064fe070000027800f3
:103df400250037002e0290000402e80024079800f2
:103e0400be0290005e0290000482420034079800d3
:103e14006e0290005e019000840078000e0890000d
:103e2400f22307008e0a90005e0290000482420092
:103e3400040f98009e0290001e0a9000848f520086
:103e4400caff36002e0290006123b800e4368100d8
:103e5400f53681000602420087824a00e436890072
:103e6400f53689003e0290006123b80004378100d2
:103e7400153781000602420087824a000437890010
:103e8400153789001e027800040078004f0478007a
:103e94000080fa00000006000e00fa0030079800c7
:103ea4004107980052079800630798005e0290004b
:103eb400e70f520006003e004e029000e1cfb3002f
:103ec400040078002dfe0700000278003600370059
:103ed4006602470004007800980107000002780099
:103ee400040f78006602470004007800930107007d
:103ef40000027800140798003e0290000482e80053
:103f0400340798001e027800e80242005e02900026
:103f1400848f5200060032004e029000e1cfb300bd
:103f24000400780015fe0700000278001e00370028
:103f34001402800024079800140280000450a0009a
:103f44000460a0000470a00014028800be02900067
:103f54001e0290001e01780085007800040078009d
:103f6400a22307002e029000140288006802470072
:103f74003100280004007800a5010700680247000a
:103f840011c0b3000400780095010700effd07009d
:103f94008042780068024700854078000400780079
:103fa4008f01070044002000040078000080fa001c
:103fb400000006001400fa006007980071079800da
:103fc400020f9800130f98000e0a9000e60f52009b
:103fd40006003e007e029000e1cfb30004007800aa
:103fe400e6fd07000002780063003700740020003b
:103ff400040f78000002eb00140798000002eb00a5
:1040040024079800390037006e02900014427800ab
:104014000482fb00340798006e0290000482e800da
:10402400144278000482fb00c822dd006e02900076
:104034000402e800144278000482fb000482420077
:10404400440798006e0290006502420064079800dd
:104054003e0290009e0242000e0a9000848f52009d
:10406400060036007e029000e1cfb3000400780021
:10407400c2fd0700000278003f0037001e029000d6
:104084000402e80014079800ae0290003e0290007b
:104094000482420024079800140280005407980008
:1040a400140280000450a0000460a0000470a0006a
:1040b400140288004e0290003e019000ee00900031
:1040c40004007800492307005e029000140288006f
:1040d400ee0290003e0290000482420064079800c1
:1040e4003e0290001e024200650f42000e0a90003c
:1040f4009e027800848f5200c3ff36001e02900097
:104104006123b800643781007537810006024200dc
:1041140087824a0064378900753789002e0290002f
:104124006123b8008437810095378100060242007c
:1041340087824a0084378900953789006e024700d8
:104144008100280004007800310107006e02470056
:1041540011c0b30004007800210107007bfd0700b3
:10416400804278006e0247008540780004007800a1
:104174001b01070044002000040078000080fa00be
:10418400000006001400fa00600798007107980008
:10419400020f9800130f9800a43781003407980089
:1041a400b5378100450798000002eb00040f780042
:1041b4000e0a9000e40f5200060032007e029000c6
:1041c400e1cfb300040078006cfd07000002780022
:1041d40093003700be0290004e029000848f52007c
:1041e40006003a007e02900081cfb30004007800fc
:1041f40062fd070000027800890037006e02470064
:104204009100280004007800010107006e024700b5
:1042140011c0b30004007800f10007006e024700eb
:104224008040eb0004007800ed0007001e0a9000b7
:104234006502520054079800be0290004e0290009e
:10424400848f520020003600be0290004e0290007f
:1042540004825200140798009e0290005e029000af
:10426400848f5200070039005e0290001407980002
:10427400ce0290005e02900004824200240798005f
:1042840002003700be029000250798001e0290002d
:10429400040f7800ce029000846f220084824200d2
:1042a4007e0290001e0190008500780004007800d2
:1042b400ce2207007e0290001e0242008042eb00e4
:1042c400054a78004a003700050820004e02900095
:1042d40004825200140798009e0290005e0290002f
:1042e400848f520013003900de029000050f78001d
:1042f400ce0290005e0290000482420024079800df
:10430400ce029000846f2200848242007e029000dc
:104314001e0178008500780004007800b3220700ad
:104324007e0290001e0242008042eb00054a7800a3
:104334002f0037001e029000040f78000002eb00eb
:1043440024079800ce029000846f220084824200e9
:104354007e0290001e019000850078000400780021
:10436400a2220700ae02900045079800fe029000ca
:104374001e02900004824200740798003e029000de
:10438400140798001e0290009e0242005e029000f4
:10439400848f5200030039005e0290001e02520016
:1043a400140798001e0290001e0f4200ce029000d7
:1043b4001e0290000482420024079800ce0290005e
:1043c400846f2200848242007e0290001e019000cd
:1043d400850078000400780084220700fe02900023
:1043e4001e029000048242008042eb00054a7800dd
:1043f400ae029000b53789001e0278006123b80030
:1044040044378100553781000602420087824a0002
:1044140044378900553789009e027800658242003e
:10442400040078000080fa00000006001000fa0082
:104434004007980051079800620798007307980096
:104444006e029000e40f520006003e005e029000ef
:10445400e1cfb30004007800c8fc07000002780034
:104464002700370014028000040f78001402800033
:104474000450a0000460a0000470a000140288008e
:10448400c43b8100140798001e02780014028800bf
:104494001e029000e00f52000a0032004e0290000b
:1044a40064024200240798006e02900064025200e5
:1044b400340798001e029000be0090002e00900069
:1044c400040001006a024700a100280004007800eb
:1044d4004f0007006a02470011c0b30004007800cf
:1044e4003f00070099fc0700804278006a024700f9
:1044f400854078000400780039000700440020005b
:10450400040078000080fa00000006000200fa00af
:10451400000f78001e02780014027800944278009c
:104524000403e8001e027800060a780005427800b9
:10453400044078000080fa00000006000600fa003b
:10454400200798002e009000f0ff0700004278003a
:104554000482fb00040f78002e009000ebff07009c
:10456400004278000482fb00140798001e029000a9
:104574004822dd001e027200040078000080fa0068
:10458400000006000a00fa00400798004e00900060
:10459400eaff07000002780005002000048fbe0037
:1045a4004e009000e5ff070000027800050020009f
:1045b40024079800350798002e029000be02900050
:1045c400c022dd00040020003e037200ae837200ae
:1045d4000602be000400be000080fa0000000600cf
:1045e4000400fa00000f7800214798001e027800aa
:1045f40014027800ae429000054a78008402e80074
:104604001e027800050a78000080fa000000060007
:104614000400fa00000f7800110798001e029000b1
:1046240004427800844078001e007800ecff070004
:104634001e0290004822de00044278008440780084
:104644001e007800e6ff07000080fa000000060064
:104654001000fa004007980051079800424f980054
:10466400730798000002eb00240798004e029000a4
:1046740014427800e54f5200050032007e0290009b
:1046840015c0b300054a78000002eb008d00370026
:10469400ce4a900004c8b30004c262006447980084
:1046a4006e429000e04f5200060032004e4a9000e5
:1046b4000474a100444f980014c0b3002447980028
:1046c400020037000042eb00244798007e0290006d
:1046d4008042eb00054a7800140280002407980009
:1046e400140280000450a0000460a0000470a00024
:1046f400140288004e4a90000482fb00cfa2de0020
:104704003600200007002000860f5200878f5a00d1
:1047140063003e00046001003200370049003700a6
:1047240001003700180037004e029000a4029000e8
:104734005e029000048f62005e0290009e02780088
:10474400848f52000a003a002e429000e14f52003a
:104754000a003a004e029000a40290001e82ea0071
:10476400848262004e029000250298000300370004
:104774007e02900005c7b300054a78002e0290001f
:10478400140288004e0037004e029000a4029000ec
:104794005e029000048f62001e027800e00f520057
:1047a4000a0032002e429000e14f52000a003a0003
:1047b4004e029000a40290001e82ea0084826200ed
:1047c4004e02900025029800030037007e029000fc
:1047d40005c7b300054a78002e0290001402880031
:1047e400370037004e029000240290008482ea00d1
:1047f4005e029000048f62005e0290009e027800c8
:10480400848f520009003a002e429000e14f52007a
:1048140009003a004e029000240290009e027200a9
:104824004e02900025029800030037007e0290009b
:1048340005c7b300054a78002e02900014028800d0
:104844001f0037004e029000240290008482ea0088
:104854005e029000048f62001e027800e00f520096
:10486400090032002e429000e14f520009003a0044
:104874004e029000240290009e0272004e029000ac
:1048840025029800030037007e02900005c7b3009c
:10489400054a78002e0290001402880008003700b0
:1048a4002e029000140288000002eb00040f78002e
:1048b4007e029000f5c6b300054a780000000000af
:1048c4001e027800040078000080fa000000060050
:1048d4000800fa0020079800310798000002eb0056
:1048e400040f780044c4200014427800e04f5200c2
:1048f400050032003e02900005c1b300054a78006d
:104904000002eb002a00370014028000040f780034
:10491400140280000450a0000460a0000470a000f1
:1049240014028800b5578000150798001e029000f5
:10493400e00f520018003200b457800014029000b7
:10494400b45788001e02900055c0b300054a780091
:104954001e029000ae029000250298001e029000f4
:104964008002eb00150298001e029000f5c3b3000c
:10497400654298001e0290008042eb007542980048
:104984001e027800140288003e0290008042eb0070
:10499400054a7800050037009e0278001502880059
:1049a4003e02900025c7b300054a78001e0290001d
:1049b400040078000080fa00000006000e00fa00ef
:1049c40040079800214f9800620798000002eb000e
:1049d4003407980044c4200014427800e04f520089
:1049e400050032006e029000f5c0b300054a78005d
:1049f4004e029000770037004e0290001442780077
:104a0400e54f5200050032006e02900015c0b3005d
:104a1400054a78004e0290006e00370014028000b0
:104a240034079800140280000450a0000460a00021
:104a34000470a000140288004e029000140290003a
:104a4400e00f52000300320014c0b300044f78009a
:104a5400020037000042eb00044f78002e4a900019
:104a64000482fb00e00f520003003200e10f520009
:104a7400250032004e0037001e427800e04f5200fd
:104a840019003a004e029000f5c3b3006542980045
:104a94004e0290008042eb00754298004e02900056
:104aa4008042eb00054a7800b55780004e02900022
:104ab400150298004e0290008002eb002502980037
:104ac4004e029000b45788003e0290001402880001
:104ad4006e0290008042eb00054a78000002eb0071
:104ae400240798003a0037003e0290001402880020
:104af4006e02900095c4b300054a78004e029000ff
:104b040024079800320037004e02900014029000ef
:104b140014079800060037008000eb001e00900088
:104b24006d0307001e029000140278001407980019
:104b34001e029000e00f5200f7ff3a004e02900070
:104b4400f5c3b300654298004e0290008042eb002a
:104b5400754298004e0290008042eb00054a7800ae
:104b6400b55780004e029000150298004e02900046
:104b74008002eb00250298004e029000b457880092
:104b84003e029000140288001e427800e14f520059
:104b940001003a00dcf707006e0290008042eb004f
:104ba400054a78000002eb0024079800080037004b
:104bb4003e029000140288006e02900075c0b3009b
:104bc400054a78004e029000240798000000000077
:104bd4002e029000040078000080fa000000060015
:104be4000a00fa002007980031079800420798004d
:104bf4000002eb00040f780044c420001442780043
:104c0400e04f5200050032004e02900015c1b3007f
:104c1400054a78000042eb001f00370014028000b0
:104c2400040f7800140280000450a0000460a00067
:104c34000470a000140288002e0290001442780030
:104c4400e54f5200070032001e027800140288006b
:104c54004e02900015c0b300054a78000042eb00f4
:104c64000d0037002e029000660242008400780096
:104c74003e009000ecf707000042780024479800bb
:104c84001e027800140288004e0290008042eb005d
:104c9400054a78002e429000044078000080fa0013
:104ca400000006000a00fa00200798003107980067
:104cb400420798000002eb00040f780044c420006f
:104cc40014427800e04f5200040032004e0290007b
:104cd40025c1b300054a780029003700140280007a
:104ce400040f7800140280000450a0000460a000a7
:104cf4000470a000140288002e0290001442780070
:104d0400e54f5200060032001e02780014028800ab
:104d14004e02900015c0b300054a78001800370011
:104d24003e009000dcf7070000427800244798001a
:104d34002e429000ef4f5200060036001e0278000b
:104d4400140288004e02900035c7b300054a78006b
:104d54000b0037002e02900066024200be00900055
:104d640004007800b0f707001e02780014028800df
:104d74004e0290008042eb00054a780000000000db
:104d84000080fa00000006002000fa00300f9800ae
:104d9400410f9800225f9800630f9800740f9800e9
:104da4000002eb001407980044c420001442780069
:104db400e04f5200050032007e0a900025c0b30087
:104dc400054a78000002eb003101370054c420008a
:104dd40014427800e04f5200050032007e0a900031
:104de400d5c0b300054a78000002eb002801370063
:104df4003e0a900014427800e54f5200050032004c
:104e04007e0a900015c0b300054a78000002eb004a
:104e14001f013700ae5a900004c8b30004c26200f8
:104e2400444798004e429000e04f52000600320082
:104e34002e5a90000474a100245f980014c0b3009b
:104e4400044f7800020037000042eb00044f780062
:104e54001402800014079800140280000450a0007b
:104e64000460a0000470a000140288002e5a900070
:104e74000482fb00cfa2de003600200007002000e1
:104e8400860f5200878f5a009f003e000460010085
:104e94005000370076003700010037002700370044
:104ea4003e0a9000a40290004e0a90000482620020
:104eb40034079800be0290004e0a9000848f52007e
:104ec40014003a001e427800e14f520007003a00f5
:104ed4003e0a9000a40290003e0290000482ea0080
:104ee400848262003e0a900025029800c46c80000f
:104ef400be029000550a98001e0290001402880019
:104f04007e0a90008042eb00054a78003e02900041
:104f1400df003700ea0247006e0a9000ae599000a5
:104f24004e099000850078003e089000e2010700d9
:104f34009e029000150288007c0037003e0a900013
:104f4400a40290004e0a9000048262003407980084
:104f54003e029000e00f5200140032001e4278001e
:104f6400e14f520007003a003e0a9000a40290006c
:104f74003e0290000482ea00848262003e0a9000ad
:104f840025029800c46c8000be029000550a980067
:104f94001e029000140288007e0a90008042eb00fa
:104fa400054a78003e029000b9003700ea02470043
:104fb4006e0a9000ae5990004e099000850078006a
:104fc4003e089000bc0107009e0290001502880074
:104fd400560037003e0a9000240290008482ea00c2
:104fe4004e0a90000482620034079800be029000ca
:104ff4004e0a9000848f520013003a001e4278003b
:10500400e14f520006003a003e0a9000a4029000cc
:105014003e029000850272003e0a9000250298002c
:10502400c46c8000be029000550a98001e029000d5
:10503400140288007e0a90008042eb00054a780042
:105044003e02900092003700ea0247006e0a900088
:10505400ae5990004e099000850078003e089000fb
:10506400950107009e029000150288002f0037006a
:105074003e0a9000240290008482ea004e0a9000c6
:1050840004826200340798003e029000e00f520050
:10509400130032001e427800e14f520006003a002d
:1050a4003e0a9000a40290003e0290008502720025
:1050b4003e0a900025029800c46c8000be02900055
:1050c400550a98001e029000140288007e0a90007f
:1050d4008042eb00054a78003e0290006c003700e5
:1050e400ea0247006e0a9000ae5990004e09900003
:1050f400850078003e0890006f0107009e02900032
:1051040015028800090037001e029000140288006e
:105114000002eb00340798007e0a9000f5c6b30045
:10512400054a78003e0290005900370076f60700e1
:105134001502800015079800140280000450a00096
:105144000460a0000470a00014028800c46c8000f5
:10515400745a9000e04f52001e003200c46c80006c
:10516400f45a9000054f9800c46c80008042eb0014
:10517400755a98006a024700040078000e0207007e
:10518400c46c80008042eb00655a98001e029000b7
:10519400140288000002eb00340798000e4a9000c5
:1051a4000482fb00e20f520004003a007e0a9000e1
:1051b400e5c0b300054a7800040037007e0a900079
:1051c400a5c0b300054a7800000000003e0290002c
:1051d4002f003700c46c8000d40a90003507980073
:1051e4001e427800e14f520023003a002e5a9000ec
:1051f4000482fb00cfa2de0036002000070020005e
:10520400860f5200878f5a0014003e00046001008c
:105214000b0037000a003700010037000000370098
:105224003e0a9000a40290003e0290000482ea002c
:10523400848262003e0a9000250298000e00370026
:105244003e0a9000a40290003e0290008502720083
:105254003e0a900025029800070037001e029000c5
:10526400140288007e0a9000f5c6b300054a78004f
:105274000002eb00060037009e0290001502880031
:105284007e0a90008042eb00054a78003e029000be
:10529400040078000080fa00000006000400fa0010
:1052a4000002eb00040f780014028000040f780061
:1052b400140280000450a0000460a0000470a00048
:1052c40014028800c46c8000d40a9000150798006a
:1052d4001e027800140288001e0290000400780068
:1052e4000080fa00000006001400fa00600798002d
:1052f4007107980002579800130f98000002eb0002
:10530400240798006e02900014427800e54f520082
:10531400050032001e0a900015c0b300054a78004b
:105324000002eb00c000370014028000240798003c
:10533400140280000450a0000460a0000470a000c7
:10534400140288000e5290000482fb00e00f520009
:1053540003003200e10f5200090032000f00370051
:105364006e029000a40290007e0290000482ea0083
:10537400848262006e029000250298000e003700bd
:105384006e029000a40290007e02900085027200da
:105394006e0290002502980007003700ae029000cc
:1053a400150288001e0a900015c7b300054a78004c
:1053b4000002eb009c0037000042eb0024479800f9
:1053c4006e02900014029000040f78007d003700f4
:1053d4001e027800244a90000482fb00cfa2de0063
:1053e4003600200007002000860f5200878f5a00e5
:1053f4005b003e00046001002d00370043003700cd
:1054040001003700160037006e029000a4029000dd
:105414001e0278004402900004826200340798005f
:105424001e027800c40290003e029000848f520055
:1054340052003a00be0090001e00780026010700ca
:1054440000427800044f98000e4a9000e14f520049
:105454004c003a0014c0b3002447980056003700ab
:105464006e029000a40290001e0278004402900094
:1054740004826200340798003e029000e00f52005c
:1054840042003200be0090001e00780012010700a6
:1054940000427800044f98000e4a9000e14f5200f9
:1054a4003c003a0014c0b30024479800420037007f
:1054b4006e029000240290008482ea001e027800aa
:1054c4004402900004826200340798001e027800af
:1054d400c40290003e029000848f52002f003a00d4
:1054e400be0090001e007800fb0007000042780018
:1054f400044f98000e4a9000e14f520029003a00f0
:1055040014c0b300244798002b0037006e029000ab
:10551400240290008482ea001e0278004402900073
:1055240004826200340798003e029000e00f5200ab
:105534001e003200be0090001e007800e600070046
:1055440000427800044f98000e4a9000e14f520048
:1055540018003a0014c0b30024479800160037001e
:105564002e029000140288001e0a9000f5c6b300b3
:10557400054a78000002eb002b0037000000000011
:105584000d003700000000000b0037000000000091
:105594000900370000000000070037000000000089
:1055a4000500370000000000030037000000000081
:1055b40001003700000000001e0278001402780089
:1055c400040f78001e027800e00f520080ff3a00ba
:1055d400ae029000150288002e429000e14f520066
:1055e40001003a0048f507001402800024079800df
:1055f400140280000450a0000460a0000470a00005
:10560400140288006e029000a402900055079800ce
:105614002e029000140288001e0a90008042eb00c3
:10562400054a78005e029000040078000080fa00c9
:10563400000006000800fa002007980031079800cf
:105644000002eb00040f78002e0290001442780050
:10565400e54f5200050032003e02900015c0b30031
:10566400054a78000002eb001000370014028000a5
:10567400040f7800140280000450a0000460a0000d
:105684000470a000140288002e029000a40290006e
:10569400150798001e027800140288003e0290004c
:1056a4008042eb00054a78001e0290000400780056
:1056b4000080fa00000006000e00fa00200798009f
:1056c4003107980042079800234f98006407980018
:1056d400c46c8000c56c8000655b900005c2b3009b
:1056e40085427300655a9800c46c80008042eb00c8
:1056f400755a9800c46c8000ee029000650a980008
:10570400c46c8000be029000450a98003e029000de
:10571400ce029000450298003e029000ae4a9000ee
:10572400254a9800c56c80003e029000250298002e
:105734002e029000940290003e029000050a780028
:105744003e0290008002eb00150298003e02900099
:10575400ae029000350298002e02900014029000d0
:10576400040f78001e027800e00f5200030032009c
:105774001e027800be029000150298002e029000ce
:10578400be02900015029800c46c8000a4629000d0
:10579400254798002e4290000482fb00ae42900000
:1057a4008582fb0096c42000e6c27a000543780097
:1057b400c56c8000b562900085c2ea008542630032
:1057c4000543780095c4200086727a002e4290002a
:1057d4000482fb0095c4200065427a00e04f520029
:1057e40009003a00c46c80004462900084c2ea005c
:1057f40084c420001442780004c262008442780009
:1058040084c42000054a78000080fa0000000600e5
:105814000600fa0084a82000e106200004007800b5
:1058240094f4070084a8200014079800e4a9200039
:10583400240798000002eb00040f780013003700df
:105844001e0290008042eb00054a78001e02900080
:10585400ae029000150298001e029000f5c3b3003a
:10586400654298001e0290008042eb007542980049
:105874001e02900076024200140798002e02900047
:1058840076024200240798001e0fe8001e027800ea
:10589400e30f5200eaff36001e0290008042eb0044
:1058a400054a78001e0290008002eb001502980061
:1058b4001e029000f5c3b300654298001e029000da
:1058c4008042eb007542980084a82000b4578800f9
:1058d4000080fa00000006000800fa002007980083
:1058e400310798002e0290002402900014079800bb
:1058f4001e0290008002eb00650a98001e029000d0
:10590400be029000550a98001e029000e45a9000ce
:10591400f4cdb30084c262001e029000655a980060
:105924001e0290008042eb00755a98001e029000ff
:10593400645a9000e04f520017003a001e02900093
:10594400c462900084c420001442780084c27200af
:1059540084c42000054a78001e029000246290004e
:105964000482fb009e029000a56290008582fb00e9
:1059740096c4200066c37a009e029000b56290002f
:105984000543730095c4200086727a0014c0b300e6
:10599400044f7800020037000042eb00044f780007
:1059a4002e009000040007001e4278000440780096
:1059b4000080fa00000006000a00fa004007980080
:1059c4004e02900014029000040f78004e029000e2
:1059d40014027800140798001e027800e00f5200a9
:1059e4000d003a004e029000340290002407980003
:1059f4002e0290009e029000150298001e02900054
:105a0400e00f52000d0032001e0290008002eb00f5
:105a140015029800090037001e0278009e029000cb
:105a2400050a78001e029000e00f520003003200c5
:105a34001e0290009e027800150298004e0290000b
:105a440024029000340798003e0290008002eb008c
:105a5400450a98000080fa00000006001200fa00cf
:105a640000579800115798000002eb002407980093
:105a74001402800024079800140280000450a0003f
:105a84000460a0000470a000140288001e5290005c
:105a94000482fb008402420004da200004824200f3
:105aa40014027800e00f520004003200ae029000ad
:105ab4001502880084c2b3000b0137000e52900017
