:020000040000fa
:080000000002040000000000f2
:020000040000fa
:10000800b6020000b6020000b6020000b602000008
:10001800b6020000b6020000b6020000b6020000f8
:10002800b6020000b6020000b6020000262d00004d
:10003800b6020000b6020000b6020000f62c00006e
:10004800b6020000b6020000b6020000b6020000c8
:10005800b6020000b6020000b6020000b6020000b8
:10006800b6020000b6020000b6020000b6020000a8
:10007800b6020000b6020000b6020000b602000098
:10008800b6020000b6020000b6020000b602000088
:10009800b6020000b6020000b6020000b602000078
:1000a800b6020000b6020000b6020000b602000068
:1000b800b6020000b6020000b6020000b602000058
:1000c800b6020000b6020000b6020000b602000048
:1000d800b6020000b6020000b6020000b602000038
:1000e800b6020000b6020000b6020000b602000028
:1000f800b6020000b6020000b6020000b602000018
:10010800b6020000b6020000b6020000b602000007
:10011800b6020000b6020000b6020000b6020000f7
:10012800b6020000b6020000b6020000b6020000e7
:10013800b6020000b6020000b6020000b6020000d7
:10014800b6020000b6020000b6020000b6020000c7
:10015800b6020000b6020000b6020000b6020000b7
:10016800b6020000b6020000b6020000b6020000a7
:10017800b6020000b6020000b6020000b602000097
:10018800b6020000b6020000b6020000b602000087
:10019800b6020000b6020000b6020000b602000077
:1001a800b6020000b6020000b6020000b602000067
:1001b800b6020000b6020000b6020000b602000057
:1001c800b6020000b6020000b6020000b602000047
:1001d800b6020000b6020000b6020000b602000037
:1001e800b6020000b6020000b6020000b602000027
:0801f800b6020000b60200008f
:020000040000fa
:10020800b6020000b6020000b6020000b602000006
:10021800b6020000b6020000b6020000b6020000f6
:10022800b6020000b6020000b6020000262d00004b
:10023800b6020000b6020000b6020000f62c00006c
:10024800b6020000b6020000b6020000b6020000c6
:10025800b6020000b6020000b6020000b6020000b6
:10026800b6020000b6020000b6020000b6020000a6
:10027800b6020000b6020000b6020000b602000096
:10028800b6020000b6020000b6020000b602000086
:10029800b6020000b6020000b6020000b602000076
:1002a800b6020000b6020000b6020000b602000066
:1002b800b6020000b6020000b6020000b602000056
:1002c800b6020000b6020000b6020000b602000046
:1002d800b6020000b6020000b6020000b602000036
:1002e800b6020000b6020000b6020000b602000026
:1002f800b6020000b6020000b6020000b602000016
:10030800b6020000b6020000b6020000b602000005
:10031800b6020000b6020000b6020000b6020000f5
:10032800b6020000b6020000b6020000b6020000e5
:10033800b6020000b6020000b6020000b6020000d5
:10034800b6020000b6020000b6020000b6020000c5
:10035800b6020000b6020000b6020000b6020000b5
:10036800b6020000b6020000b6020000b6020000a5
:10037800b6020000b6020000b6020000b602000095
:10038800b6020000b6020000b6020000b602000085
:10039800b6020000b6020000b6020000b602000075
:1003a800b6020000b6020000b6020000b602000065
:1003b800b6020000b6020000b6020000b602000055
:1003c800b6020000b6020000b6020000b602000045
:1003d800b6020000b6020000b6020000b602000035
:1003e800b6020000b6020000b6020000b602000025
:0803f800b6020000b60200008d
:020000040000fa
:100400002fe720000eff27000e01880000000000eb
:10041000000020000000e000020032000001200087
:10042000200288000c000700400a23000100200081
:100430001f000700000020000000e0000200320062
:10044000000002000000000024270200000000005d
:100450000040da000000fe004440a900200920000e
:100460000000e0000300320000002000a00188002e
:100470004440a80000000600f03fb1000180b10038
:1004800006003500ee03090000000000403fb10007
:100490000180b100fbff3d001000b000203fb00024
:1004a0000200350000800900000000000000060086
:1004b00091018800800078000000eb0015003700f3
:1004c000e280400032a0b4009101ba00e280400016
:1004d00032a0b4009102ba00e280400032a0b40021
:1004e0000002eb00472bde00f507b200602ce100b4
:1004f00004003a000059eb008301e900fdff3e00d3
:10050000040037006128e100010032000082eb00a6
:10051000040007001101ba000200e000e8ff3a0001
:10052000000006003159ba008301e9000c003200d6
:100530002159ba008301e900080032000400e000fc
:1005400003003a00e280400032a0b400f5ff37001b
:1005500011d9ba008301e900faff3a008100e800ee
:10056000e180400032a0b400000006000040da0044
:100570000000fe0000c0da00000006000a00fa00d9
:10058000e20f500022003e0044538000e10f520071
:100590000600320087232000462320002423200069
:1005a00005232000e08f530004003a00872220003a
:1005b00046222000242220000522200000002800de
:1005c0001500600003003a00800b78000700280047
:1005d000958a7300054020009482620001003a0071
:1005e00014a0a0008202780006003700940378006f
:1005f0000710b200fdff3200b103fb00070b7800cb
:100600008502e900e08f5200f8ff3a000800370049
:1006100034002000c0bf9f00e2bf9f00b4bf9f0016
:10062000d1bf9f006a805700d2ff07006fb99700c3
:10063000020078000080fa00000006006011b80097
:10064000fb0037004f89de00820178002701370068
:10065000889fbe008a9fbe008c1f78003301070070
:100660003a01330003866c006450e1002e00320032
:100670006420e100330032006150e1002f003200bd
:100680006120e1003100320085855500eb07b000a4
:100690000900200008042000050037000804440079
:1006a00089844c000a0031000603430087834b0015
:1006b0000001530081815b00f8ff33000203be009c
:1006c0000800a0000804440089844c00f6ff3900ab
:1006d000c639dd00830173000100320013002000e1
:1006e0008904d1000884d3000998a30005003200d2
:1006f0000800a7000300a0008904d1000884d300eb
:100700008b05e8008904d1000884d3000001eb00c8
:100710000281d2001d01070001f0a1000cf0a7002a
:1007200001f0a000120137006420e1001401320042
:100730000801be000200be00f7ff37006120e100a3
:100740000f0132006000b800f3ff37000000200006
:1007500001f82700f0ff3700889fbe008a9fbe0087
:100760008c1f7800f1000700f800330003866c004e
:100770006450e100240032006420e10027003200d0
:100780006150e100220032006120e10021003200ce
:100790008b854200eb07b1000134b800003ab80085
:1007a0000804420089844a00013ab8000030b800c9
:1007b0008880400009014a00040033000000400026
:1007c00081804800020149008b05e900c909dd006c
:1007d000830170000100320013002000c814de0005
:1007e0004814dd004709de001200b200c808de0030
:1007f00008847000e500070001f0a1000cf0a700dc
:1008000001f0a000da0037006120e100dc003200d6
:100810000801be000200be00f7ff37006150e10092
:10082000fcff3a00d600370003f0a200889fbe000c
:100830008a9fbe008c1f7800bc000700c3003300f5
:100840006450e1004f0032006420e10052003200a9
:1008500003826c0007003b000905d0000306d000ae
:10086000820f54000c065d000200390002003200c5
:1008700089017800030678008582550004003d0058
:100880000003fd008103fd008502ea008b85420024
:10089000840f720002003b0060001000e08018002e
:1008a0006011b8000005eb007a28e1000a00390069
:1008b00006007800c75ddd00f707b200878075008d
:1008c0002d003700828171000a0178006105600007
:1008d0008180d1000080d3008502e900f9ff3b0050
:1008e000060440008784480002003b0060041400b6
:1008f000e0841c000988a300070032008a8171008f
:1009000082817100610164008904d1000884d300f0
:100910008b05e800170037000978a30013003a00a0
:100920000b00e000130034008b05e90008044400cc
:1009300089844c000a4474000978a3000d003a0031
:100940000b00e000070034008b05e90008044400b8
:1009500089844c0001003a000b0020000978a300b4
:10096000f7ff32000001eb000200370082817100c6
:100970000a017800850007000cf0a70001f0a00034
:100980007b0037006420e10002003a00838f6c0096
:100990007b0033000801be000200be007400370077
:1009a0000001be009f0007000470a70003f0a10033
:1009b0006509b100160032000d0035006828e1001d
:1009c00006003500f0ff2f00f1ff27000300e000d4
:1009d00013003b000100280000000500000040005b
:1009e000818048008502e900fcff3a0008003700da
:1009f000f88f420002003c008000eb000000050080
:100a00008100d1000080d3008502e800fcff3a009d
:100a10000300e00002003b0060001000e0801800ce
:100a200000000600940007000400be00000006005d
:100a3000889fbe008a9fbe00008270000402710081
:100a400004827100260032000004be000200be00d5
:100a50006011b8006b092000950220000182cf00d0
:100a60000a0039000541b1000082cf0007003900bb
:100a70000541b1000982cf00040039000541b100f1
:100a80000882cf00010039000541b1000542520043
:100a9000120032000a003b00828171006101640093
:100aa0008100d1000080d3008984d3000884d30062
:100ab0008b05e8000442e800f7ff3a000700370022
:100ac0000804440089844c000000480081804800ec
:100ad0008b05e9000442e900f9ff3a002b0007000a
:100ae0004f05be004f04be0000000600881f7800be
:100af000030478000300e00007003d0060001000e0
:100b0000e080180060011900e081190002003b003c
:100b100001f02d0003003700c5ff070008f0a70013
:100b200001f0a0004f047800000006000004be00a1
:100b30003c0007000003be000405be000200be002a
:100b400038000700844f7500000006000200be0058
:100b50006450e100050036006420e1000200360028
:100b60000968a30001003a000800be000160a0006f
:100b70004f0678004f05be004f04be00000006007f
:100b8000f0ff2f00f1ff2700f9ff37008100200060
:100b9000618055000b003d000b00200061fe2f001e
:100ba0000100e1001d0034008281710061016400d8
:100bb0008904d1000884d3000000e800faff3a005d
:100bc00071002000610064000300700002006000fa
:100bd0000900320061044400e0844c000988a5004b
:100be000050032008b05e8006808e10002003a00c9
:100bf0008904d1000884d300f20f20000258e100dc
:100c000005003d00c75ddd00f907b2008980750071
:100c100008007800000006000bf827008b00780021
:100c200000000500c70ade00f107b200f50fb200b0
:100c300008003200e1cf4200020032000170a00043
:100c400024000500810f7000010032000408050037
:100c500044000500810f700002003a0014000500f6
:100c60008502e9000000400081c04800fcff3b0015
:100c70000170a000240005006022b80006022000d8
:100c80000000d0008180d2000482d2008582d20090
:100c90000000a0000202520083825a0003003100cb
:100ca0000202420083824a000000a1000603e9001c
:100cb000f3ff3a00000006002800fa00889fbe00fb
:100cc0008a9fbe008c9fbe0003866b004d03070009
:100cd0000028a30064003a000128a30067003a003e
:100ce0000008a30062003a000108a30065003a0072
:100cf0001e009000be08900081064000ed3fb1004c
:100d0000f4805700ee019000111ab8008e0990008f
:100d1000311bb8009e099000311cb800511db8006d
:100d2000f485570046000700fe0190003a000700d6
:100d30008b85e8003e0007008e0990004000070008
:100d4000ee019000340007008b85e80038000700b2
:100d50008e099000400007009e0990001b18b80003
:100d6000890440000a854800fe0190003400070015
:100d70008b85e80038000700ee0190003000070086
:100d80008e0990001b18b800890440000a854800ad
:100d90000a98a30008003a000402420085824a0033
:100da00006034b0087834b0008044c0089844c00e9
:100db0000a054d008d06e9008482720085027300e9
:100dc0004c3add008502720001003200150020005f
:100dd000443ade001400b2004538de00cb45dd00a9
:100de0000b007000c540de00cb4ddd008b80700035
:100df0004549de00cb55dd000b017100c551de0019
:100e00000d0378001803070003f0a1000cf0a70001
:100e100003f0a0000f0337001b18b8008502400044
:100e200006834800e0834b0060044c000700370055
:100e30001b18b8000603400087834800faff3700fc
:100e40001b18b8008703400008844800e0844c0069
:100e500060054d00000006001b18b80008044000a3
:100e600089844800faff37000108a300f6023a001f
:100e70005800be005801be00e3ff37000008a30081
:100e8000f1023a0009047800f9ff37008103780085
:100e900064ff07000001be006000b8000478a300f2
:100ea00013003a006220e10015003e000d003900f9
:100eb0008301d1000281d3008180d3008301d1005e
:100ec0000281d3008180d3008301d1000281d3004d
:100ed0008180d3000538b000c42add00f300b200e1
:100ee0008381720007f0a70003f0a0000000060055
:100ef000f3ff2700f2ff2f006110b900fbff37005e
:100f000003ff2700f7ff37008f1fd1000203070000
:100f10008f87e9000000e00000000600801feb0062
:100f2000fd0207008f87e9000000e00000000600d6
:100f30001400fa00889fbe008a9fbe008c9fbe00ee
:100f4000040678000004be000205be0068004700e9
:100f50000a90be000890be00180307006200e1007e
:100f60000800be000a01be00040020000b003a0089
:100f70001e029000e43fb1006e009000fe00900061
:100f80000e0990009e099000f300b20005fe2300b8
:100f9000858171000bf0a70003f0a000040e78001b
:100fa000ac023700809feb00db0207008f87e9006f
:100fb0000000e000000006002800fa00889fbe0044
:100fc0008a9fbe008c9fbe0003866b008d020700c7
:100fd0006400e100440032006408e1004a0032008d
:100fe0006100e100460032006108e1004900320082
:100ff000ec0647006000b8003d02be003d03be00a5
:10100000f48657006011b8003d04be003d05be00e7
:101010007d0320000b0037000000a0008d06e900d2
:10102000130032000402420085824a0006034b008e
:1010300087834b0000004000818048000201490086
:10104000838149000802520089825a000a035b002a
:101050008b835b00f0ff3b000802420089824a005c
:101060000a034b008b834b008d06e900edff3a002d
:101070008482720086827200f707b2008782720053
:1010800001003200150020001e0490003e0b90006d
:1010900006035400e63fb0000368a30007003200d7
:1010a0000000a7000500a0008301d1000281d30049
:1010b0008180d3000080d3000603e8008301d100c3
:1010c0000281d3008180d3000080d3000002eb00b6
:1010d0000482d2006402070003f0a1000cf0a70014
:1010e00003f0a0005b023700640247006408e100df
:1010f000550232003400be003401be00f6ff370056
:101100006108e100500232006011b8006000b800d0
:10111000f1ff370003ff270002002000fbff37002c
:101120001400fa00889fbe008a9fbe008c9fbe00fc
:101130000004be000205be00680047000a90be0021
:101140000890be009d0207000070a7000bf0a100f0
:101150000bf8a30016003a009e02900030432000d6
:1011600080825200b0fe2f000028e1000d003c00fc
:10117000b0fc2f000028e1000d0034001e09900093
:101180008e0890007e0090000501b0000201d100a1
:101190008180d3000080d3008502e800fbff3a0085
:1011a0002c0237000100280000002000290237002f
:1011b0006000b800270237006011b800b70137009f
:1011c00007f0a200000037002800fa00889fbe0048
:1011d0008a9fbe008c9fbe00070678008786690044
:1011e0000c003b00030478008704780008f0a1009d
:1011f00009f0a100840f5000858f5800860f590018
:10120000890f5c00030033000cf0a20001003a00db
:101210000cf0a100fb0107006400e1005f00320058
:10122000780147006408e100610032006c0147006a
:10123000748557003200be001201be003a04be00a1
:101240001a05be001e039000be0a900085035300dd
:1012500006003d000004fd008104fd000205fd00c4
:101260008305fd008703ea00050378000df8a3005d
:101270000400320060041400e0841c0060051d00be
:10128000e0851d006022b8007d0320000d38e100dc
:101290008006eb000b0039004433dd00f300b200a0
:1012a0008301730039003700848272000d027800d8
:1012b000e10664008b85d1000a85d3008984d300c0
:1012c0000884d3008703e900f7ff3b0008004000d3
:1012d000898048000a0149008b81490004003b00d5
:1012e00060001000e080180060011900e081190022
:1012f0000358a300090032008d82720084827200bc
:10130000610260008301d1000281d3008180d3009b
:101310000080d3000603e8001b0037000348a30049
:1013200017003a000600e000170034000603e90049
:101330000d00a30000004800818048000201490020
:10134000838149000348a3000f003a000600e00033
:10135000090034000603e9000000400081804800d5
:10136000020149008381490001003a000003eb00bb
:101370000348a300f5ff32006022b80002003700e6
:101380008482720061826600b701070003f0a10049
:101390000cf0a70003f0a000ae0137006401470085
:1013a0006408e10002003a000df8a300a6013a002b
:1013b0003200be001201be00a6013700889fbe00a9
:1013c0008a9fbe003004be002005be000404440015
:1013d00085844c0006054d0087854d000898be00a9
:1013e0000a90be000440e10005c8e10006d0e1001b
:1013f00007d8e10002003100680040001008e80052
:101400004f05be004f04be00000006001000fa00a9
:10141000889fbe008a9fbe00110020000605be0006
:101420000404be003002be002003be00c4b79f000b
:10143000d5b79f00e6b79f00f7b79f00080252009c
:1014400089825a000a035b008b835b0084bf9f0084
:1014500095bf9f00a6bf9f00b7bf9f000498be0026
:101460000698be004fb29700dfb297006fb39700a7
:10147000ffb39700b0000700010039008000eb00c7
:101480004f05be00108810004f04be000080fa0017
:10149000000006001400fa00889fbe008a9fbe006c
:1014a0008c9fbe000006eb0079000700ccb79f00c0
:1014b000bcb79f00acb79f009cb79f008cb79f0044
:1014c0000605be000404be000d0420004fb39700c3
:1014d000bfb29700860343002fb29700e00f53007e
:1014e00004003d00990007000f004000b3ff070013
:1014f00003003700950007000f004000c3ff0700fe
:10150000cfb2970095bf9f00e08f520009003500d1
:101510006600070014002000050020006033b800ba
:1015200000007200818072000201730083817300e9
:10153000570007000c06e8008d0f5600e3ff3a0045
:101540001fba9700e00f520005003d000802be00e0
:101550000a03be0000fe2f000f00400097ff0700a7
:101560004faa9700e00f520008003a000fb497000e
:101570009fb497002fb59700bfb59700d8b79f00cd
:10158000e9b79f00fab79f008bbf9f004700070095
:101590004f06be004f05be004f04be000080fa009b
:1015a00000000600881f780018002000881f7800bf
:1015b000b8ff07008f87e9004f047800000006009d
:1015c000801feb00b3ff07008f87e90000000600d3
:1015d000889fbe008a9fbe004100070008003d00b2
:1015e0007a000700430007001800200046000700ab
:1015f00008003d002f0007000004eb000500370045
:101600000004eb004000070002003d002900070035
:1016100018002000e3ff0700e00f54000100320033
:101620003e0007004f05be004f04be00000006004c
:10163000889fbe008a9fbe008c1f7800280007008c
:1016400006003d00610007001c0020002900070083
:101650003900070006003d00040037000006eb00db
:101660002900070002003d00580007001200070093
:10167000d3ff0700e00f56000100320027000700eb
:101680004f0678004f05be004f04be000000060064
:10169000010007000000060090b79f00a1b79f005f
:1016a000b2b79f00c3b79f00000006000700070005
:1016b00000000600450007000402540085825c001b
:1016c00006035d0087835d00000006001fb09700e1
:1016d000afb097003fb19700cfb197000000060070
:1016e000e00f5000e08f5800e00f5900e08f5900e4
:1016f000000006000000540081805c0002015d00d3
:1017000083815d0000000600e00f5200e08f5a0068
:10171000e00f5b00e08f5b00000006006022b80075
:101720006033b8000000520081805a0002015b0063
:1017300083815b00000006000820e10009a8e100a9
:101740000ab0e1000bb8e100000006004f2bde00fc
:10175000deff070086837300858242004f23de0090
:10176000a7b79f00868272000402420095b79f00cf
:10177000ffaa97004f2bde0085824200060272000e
:1017800084b79f006faa97004f23de000402420037
:1017900086827200f5af9f004f18de0000027200d3
:1017a000caff0700e4af9f000000400081804800ae
:1017b00002014900838149000802be000a03be00fd
:1017c000b5ff070000fe2f00000006006044b800cf
:1017d0006055b800000006001400fa00889fbe00a3
:1017e0008a9fbe008c9fbe000004be000205be00a2
:1017f000680047000a90be000890be00ef00070096
:101800000070a7000bf0a1000bf8a30020003a0025
:101810009e0990000e099000fe0090006e0090005e
:101820009e029000344320008482520089003200de
:101830000a003c00b4fc2f000428e100140034002e
:101840008301d1000281d3008180d3000080d300c6
:101850008502e800faff3a007e003700b40020005d
:101860000428e10007003c0000004000818048009f
:1018700002014900838149008502e900faff3a002c
:101880007400370003002800020020000100370028
:101890006011b8006000b8006e003700889fbe007d
:1018a0000082700004027100048271002400320082
:1018b00036432000c50020008383cf000a00390092
:1018c0000541b1008283cf00070039000541b10016
:1018d0008183cf00040039000541b1008083cf002f
:1018e000010039000541b10085c353006022b800f2
:1018f000120032000a003b00848272006102600024
:101900008301d1000281d3008180d3000080d30005
:101910000603e8008743e800f7ff3a0007003700b6
:101920000000400081804800020149008381490095
:101930000603e9008743e900f9ff3a004a0007007f
:101940004f04be0000000600889fbe008a9fbe00b4
:101950008c1f78000006eb00e00f5000e08f58006d
:10196000e00f5900e08f590007003d006044b800c7
:101970006055b8001c0020000000540081805c000d
:1019800002015d0083815d00e00f5200e08f5a008c
:10199000e00f5b00e08f5b0007003d006044b80093
:1019a0006055b8000c00a2000402540085825c005f
:1019b00006035d0087835d00a7000700e00f560067
:1019c000060032006022b8006033b8000000520008
:1019d00081805a0002015b0083815b004f06780022
:1019e0004f05be004f04be0000000600020ab90009
:1019f000001bb9000200b8008100420081004300d2
:101a000000000600680447000294be000094be0077
:101a1000fc0447008694be008494be000900780050
:101a2000660007000800780064000700990078004d
:101a3000814f70000b003b000800be00a8000700ab
:101a40004f00b10003003700f3ff2700f2ff2f0023
:101a50006110b9004f06be004f05be004f04be0026
:101a60000080fa0000000600180020005700200047
:101a7000080453000d003d000600200097fc2f00d5
:101a80000740e1001e0034008482720061026000a1
:101a90008301d1000281d3008180d3000080d30074
:101aa0000804e800f8ff3a004700200061046000e5
:101ab00005047400040464000d003200610040005d
:101ac000e080480060014900e081490003b8a500ba
:101ad000070032000603e8006538e10004003a0020
:101ae0008301d1000281d3008180d3000080d30024
:101af000f87f20000830e10003003500080378007b
:101b00006000b8006011b8004433dd00f300b2009b
:101b10008301730000000600889fbe008a9fbe00fc
:101b20008c9fbe000404be000605be00809fbe0060
:101b3000829fbe0078000700040678000800be00ff
:101b40000a01be0074000700840678004f03be003f
:101b50004f02be008d4f76007fb097001300330018
:101b6000f0ff2f008b8f6b0006003b000d06660018
:101b70000c00a7000a00370007f0a60010002000a4
:101b80000a003700880f5200898f5a008a0f5b00c5
:101b90008b8f5b00030039001000200001003e0025
:101ba0000000200007f0a7000000ea004f06be007a
:101bb0004f05be004f04be00000006008000780004
:101bc0005002be005003be004439de00f700b200f0
:101bd000f37f200003016100090032000218e100d8
:101be00016003a008501720083017300838173003f
:101bf0000008200015003a004000200013003700c4
:101c000085017200830173008381730005003a002f
:101c100004a8be0006a8be00100020000b0037007c
:101c20000201e9000402420085824a0006034b00db
:101c300087834b000748a300f9ff32000740a0004c
:101c400004a8be0006a8be00200020008000980066
:101c50009200980000000600889fbe008a9fbe0088
:101c60008c9fbe000404b8000506b8008904460035
:101c700060854e000606b8000a054600e0854e0065
:101c80000706b8008b054600040eb800890446001c
:101c90000a854e00e0854d00050eb8000a05460095
:101ca0008b854e00060eb8008b0546000416b80062
:101cb0000a0546008b854e000516b8008b054600c8
:101cc000041eb8008b0546000800be000a01be00d5
:101cd0004f06be004f05be004f04be0000000600c8
:101ce000e48240001078a300070032006402400044
:101cf0001178a3003400be001401be0004003200bd
:101d00000330a700000006003500be001501be002c
:101d10000330a0000000060005ff270005826100d7
:101d2000070032000428e100010032002400050011
:101d30000600070001003a00440005000408050001
:101d400002000700f9ff3a00140005006f826100ed
:101d50008102700085027100850272000000060099
:101d6000421188000011880011118800000006004f
:101d700000a520000000fa0068815700cfb8970046
:101d8000e90007000080fa0000000600881f7800c4
:101d90000004780038009000000278001420b2009f
:101da000e10f520005003a000002eb001404980015
:101db00028029000040c7800190037008002780097
:101dc000242020002520b2000000eb00848f520068
:101dd00016003a00a8009000808f500013003200d7
:101de00018019000800f5100100032004800900050
:101df000e2f9070018029000840f5000030032003f
:101e0000380290000403b3003404980038009000b6
:101e10000002eb001404980028029000040c7800e3
:101e20000002b200010032000080eb004f04780095
:101e300000000600d4c6b3000800fa00889fbe0068
:101e40000084fb008a9fbe00844f5000340036009f
:101e5000a98c20004b062000110009000b84d8003b
:101e6000720040004300dd000080440081057800de
:101e70006022b8000600200007fe2300aa00200010
:101e80005001be004000be008bfb07000002be00f8
:101e9000110009008a85d80080057800e985450091
:101ea000c35ddd008b8544000203be0084bf9f003c
:101eb00095bf9f00a6bf9f00b7bf9f003b02be001b
:101ec0002b03be000fb897009fb897002fb997005b
:101ed000bfb9970078fb07000002be00110009009f
:101ee0000a84d800010478004344dd00888444005b
:101ef0000203be0084bf9f0095bf9f00a6bf9f0046
:101f0000b7bf9f003902be002903be000fb897007b
:101f10009fb897002fb99700bfb997001d003700f1
:101f2000ea4f500013003600aa002000a98c2000c0
:101f3000110009000a84d8000105780069044000f6
:101f40004355dd004344dd00088444008a84440096
:101f50006022b8000600200007fe23003800be0003
:101f60002801be0054fb07003902be002903be0051
:101f700008003700a48c20004344dd000804420020
:101f80006022b8000600200007fe23003800be00d3
:101f90002801be0048fb07004f05be004f04be00ed
:101fa0000080fa0000000600d4c6b3000800fa0062
:101fb000889fbe008a9fbe00e04f500022003d0077
:101fc0000040ea000004fb00844f50000a00340087
:101fd00044062000a9002000110009000404d800d4
:101fe000aa8c2000110009008900d800e9004000f7
:101ff000c308dd0020003700ea4f50000f00340016
:10200000a4002000110009000404d800a48c2000c2
:10201000690040004300dd0000004200430cdd0089
:10202000080242005001be004000be005403be0042
:102030004402be0020fb0700370037004344dd00a8
:10204000a48c2000310037000004fb00844f5000b6
:102050002300340044062000a900200011000900dc
:102060000404d800aa812000110009008900d800ca
:10207000e9004000c308dd00810045008b09200015
:102080008a8545003102be002103be003b00be0030
:102090002b01be0008fb07000002be001100090072
:1020a0000904d800010478004344dd000805450018
:1020b0000203be0084bf9f0095bf9f00a6bf9f0084
:1020c000b7bf9f003a02be002a03be000fb89700b8
:1020d0009fb897002fb99700bfb99700d5ff370079
:1020e000ea4f500007003400a4002000110009004e
:1020f0000404d800a4812000690040004300dd00f2
:10210000c5ff37004344dd00a481200008044200dd
:102110003800be002801be004f05be004f04be00bf
:102120000080fa00000006000f07b000889fbe0084
:102130008a9fbe008c9fbe00000678008e1f78002c
:102140008006eb0091a79f00e2a79f006000b80007
:102150006011b800d09f9f00e19f9f00f29f9f00f9
:1021600083a79f00a30837009fa0970054c2b30025
:102170008100e80091a79f00844f500006003a00bc
:10218000010278008002eb0000c3b30001c2b3007b
:10219000b2c2b3000e0037003c0290000404b2004b
:1021a000040032001c027800004a7800040ee800a7
:1021b000050037000000fb008c007800990807003c
:1021c000e10f40008b0832008d06e80089083700d7
:1021d00004037800d3c2b300b443780083cf530024
:1021e0000900320005003c0081cf53000800320096
:1021f00082cf53000c003a000700370080cf530015
:1022000009003a00060037000530a000f0ff370053
:102210000500a000eeff37000510a000ecff37001e
:102220000520a000eaff3700628262000100320050
:102230000500a10068826200010032000520a100b3
:102240000702fb000403b100e90f52000d003e003d
:10225000860378000000eb003702fb006a00b9003b
:102260000403b10007037800000042001702fb00de
:102270000403b100e90f5200f7ff3600f0a79f00fa
:102280000a0037000004eb00a4c2b300f8a79f00c7
:1022900084cf530005003a00efa497000603e8003e
:1022a00049057800e9a79f00faa79f00e4c2b300a0
:1022b000964f12001b003a0005e0a0006442520055
:1022c000c5af9f00d64f120003003200860378008e
:1022d0000000eb000c0037006fa097000603e80039
:1022e000c0007800e0a79f00b1af9f0095c6b30083
:1022f00007c7b300c1c6b3004fa997000e0037004f
:102300006a00b90000004200070378003702fb00b2
:102310000403b100e90f5200f9ff3600b0af9f008f
:10232000f2ff370005c0a0000001eb00c5af9f0021
:10233000b2af9f00edff3700060078003042780012
:1023400000037800854f52003200320016003c0036
:10235000c2af9f0090a79f0035c6b300854f5200c3
:10236000bf00320009003c00fcc25200854f520001
:1023700032003200f1c24200854f52003e0032006e
:10238000e04f520020083200d500370045c6b300a8
:10239000854f520021003200e3c24200854f5200b7
:1023a000cf003a0019003700874f5200300032004a
:1023b00008003c00814f52001a003200c2af9f005b
:1023c00090a79f00f5c6b300854f5200c4003a00a5
:1023d00022003700c2af9f0090a79f0055c7b300ef
:1023e000854f5200c5003200e3c24200854f5200c3
:1023f00004003200e5c25200854f5200b8003a0096
:1024000025003700c4479f001f003700c4479f00c6
:102410000e003700c2af9f0090a79f00c4479f00e7
:10242000ba00370070006100040120000100320092
:102430000400280002017200bfff3700cfa99700f7
:102440000350a000c3af9f00c4479f004faa97004e
:102450000490a000c4af9f00ac003700cfaa970043
:10246000c4479f000560a000c5af9f00a7003700cc
:10247000c2af9f0090a79f004fab97000650a000ef
:10248000c6af9f00c4479f00cfab97000770a00066
:10249000c7af9f009d0037006fa49700c4479f00ff
:1024a00048027800e8a79f00d4af9f00e00f5200d9
:1024b00002003a00caa32000daaf9f005fab97008a
:1024c0000002eb00010037000402e800e6427a0057
:1024d000e0cf5200fcff3a00e4af9f00bfad970091
:1024e000e08f5500050032006fa89700808f5500df
:1024f000020031008b007800e1af9f006faa9700c7
:102500000004eb007fa19700840f5100010036000a
:1025100004045100cfa997000ec2b300e884610003
:102520000f003200290037003c0290000404b20082
:10253000040032001c0278000e4a7800040ee80005
:10254000050037008c00780000022000b507070066
:10255000e10f4000010032008d06e8000804e900a8
:10256000e00f5400f0ff3a000084eb001700370042
:10257000bc0290000504b200090032008802780015
:102580009c03780035437800864b7800050478007a
:10259000070ee800e04f53000a003a001100370030
:1025a000880278008c0078003500fb00b4b79f00eb
:1025b000050478009b0707003fb29700e10f400039
:1025c000080032008d06e800060037000807780092
:1025d000090278005fac9700efac97007fad9700e1
:1025e0008fb59700890278008504e900e08f5200da
:1025f000dfff3a00d8af9f00e9af9f00faaf9f001e
:102600008bb79f000e04780084047800e08f54009c
:102610007807320009c2b3000e0037003c02900078
:102620000404b200040032001c027800094a780059
:10263000040ee800050037008c007800000220003e
:1026400078070700e10f4000010032008d06e80026
:102650000804e900e00f5400f0ff3a006507370076
:10266000efa097004fab9700410278000404780078
:10267000cfc4de00090578008a057800e1a79f0035
:102680000800be000a01be004800de00480add0066
:102690000000720070026300c0479f000900320012
:1026a000e04f500007003200e14f400005003200cb
:1026b00027002000d0479f00e8479f00e7af9f001a
:1026c00003003700d8479f0018002000e8af9f00a4
:1026d00059f82f0089844700d9af9f007fff37004a
:1026e0004af82f001b0020000a854700c4479f00be
:1026f000daaf9f00ebaf9f0078ff37004fa897003d
:10270000000cb300c0af9f00c4479f0004702000be
:10271000cfa8970004826000020532000400210067
:10272000048260000200320062002000b2af9f000d
:10273000cfa9970070826100050032006fa2970058
:102740004405be004404be00e4a79f000600370015
:10275000efa297004500be00e5a79f00cbf9070058
:102760000004be000205be006022b8006033b8005d
:102770000800be000a01be00e3f90700e00f5000a8
:1027800004003d004fab97003600b300c6af9f007a
:102790000bf0a2000002eb000800be00c4879f00ff
:1027a0000a01be006022b8006033b800dbf9070000
:1027b000e00f50003000320084f82f000f0242007a
:1027c0000800be000a01be00d9f907004f83970038
:1027d000a40020000603e9006333b90011000900da
:1027e0000403d800c0879f00e00f500002003d00a6
:1027f0000000e900c0879f004f8797000e40ea0065
:10280000e9fd07000802be000a03be002af907001e
:102810000002be000203be00d49f9f00e59f9f0000
:10282000f69f9f0087a79f006022b8000600200047
:1028300007ff2300b4f90700e00f500002003d003d
:102840000e07e9000b0037006022b80006002000e8
:10285000470224005f989700ef9897007f999700b0
:102860008fa19700cff90700e00f5000020035005c
:102870000e07e800ce879f004faa97004f8797006a
:102880000420b200b9023200e40f47000300350013
:10289000bfaa9700850f5700400235003fab970055
:1028a000e00f5300020032000603e900b6af9f00bc
:1028b000bfab9700f28f53000300360024c1b30072
:1028c000c4479f00020037006fd09700c0479f00a9
:1028d0006022b8006033b8000800be000a01be00e4
:1028e0008ef90700e00f500063003200cf409700e0
:1028f000a1df9f0001405700abfd07000002be00b2
:102900000203be000800be000a01be00aaf90700cb
:102910000205be000004be0001fa070026fa070007
:102920000002be000203be000800be000a01be0095
:1029300023fa07006022b8000600200007fe2300eb
:1029400098f90700e00f5000080035000800be00ad
:102950000a01be006022b8000600200007fe230026
:1029600019fa07000004be000205be000a01be00fd
:102970000800be00eaf90700afdb9700d0979f0080
:10298000e1979f008703fb00a19720000702e80062
:102990004322dd00048040008002eb000003eb00d6
:1029a000f5979f00869f9f00a7a79f003002be005b
:1029b0002003be005f909700ef9097007f919700f3
:1029c0008f999700d4af9f00e5af9f00f6af9f00af
:1029d00087b79f000400e1000588e1000690e10050
:1029e0000798e1000b0039000800be000a01be0094
:1029f0000400200005002a009699290097fb230077
:102a0000adf807000e07e8000004be000205be0096
:102a100018003700afa09700a2972000430add00fe
:102a2000040241005f909700ef9097007f9197001c
:102a30008f9997005403be004402be000400e100d9
:102a40000588e1000690e1000798e1000a003100e6
:102a50000800be000a01be006022b8000600200087
:102a60004702240094f807000e07e9000004be00a6
:102a70000205be00ce879f00ffa097003fa99700e8
:102a800065825000cfa9970002025200f4a79f0070
:102a900063826100030032007fa297000402e90014
:102aa000f4a79f00cfaa970064826200470032001b
:102ab00062836200850378003c029000e18263003b
:102ac000e00f5300100032000404b200080032008e
:102ad0001c037800b4c2b300e08f52000100320042
:102ae00004c2e800044b7800060ee800140037002a
:102af000b0022000e08f5200010032000080e800a8
:102b00008c0078000b003700e08f52002500320067
:102b10000404b200050032009c02780004c2b30035
:102b2000844a7800050ee800050037008c00780024
:102b3000000220003b060700e10f400019003200b0
:102b40008d06e800170037003c0090000004b2003a
:102b5000040032001c0078000e487800000ee800e7
:102b60000d003700b4b79f00c5b79f0096b79f0010
:102b7000a7b79f008c0078000003200029060700fb
:102b80003fb29700cfb297001fb39700afb3970043
:102b9000e10f4000010032008d06e8008904e900e1
:102ba000040037000802be00ffa497000ec3b30064
:102bb0000a03be00e08f5400e3ff3c00f9a79f002a
:102bc0000605be000404be00490037004fa8970068
:102bd0006802600021003a00170037003c009000b6
:102be0000004b200040032001c0078000e48780097
:102bf000000ee8000d003700b4b79f00c5b79f0076
:102c000096b79f00a7b79f008c00780000022000b5
:102c1000040607003fb29700cfb297001fb397009a
:102c2000afb39700e10f4000010032008d06e800cd
:102c30008904e900040037000802be00ffa49700e1
:102c40000ec2b3000a03be00e08f5400e3ff3c0055
:102c5000f9a79f000605be000404be00cfa8970098
:102c60003c02900062836000e1826000e00f53004c
:102c7000100032000404b200080032001c03780087
:102c8000b4c2b300e08f52000100320004c2e80079
:102c9000044b7800060ee80014003700b002200054
:102ca000e08f5200010032000080e8008c007800c4
:102cb0000b003700e08f52000d0032000404b20018
:102cc000050032009c02780004c2b300844a7800f8
:102cd000050ee800050037008c0078000002200097
:102ce000d0050700e10f4000010032008d06e8002a
:102cf0000a01be000800be0009f907000002eb004f
:102d00008001eb00c49f9f00bc0290004f439700de
:102d1000909f9f00a19f9f00b39f9f000504b2005a
:102d20000602fb00838f520011003200a59720009d
:102d30004322dd00048242001c0478001f989700a3
:102d4000af9897003f999700cf9997005403be0022
:102d50004402be0013fa07000043b000004c7800a4
:102d6000080ee800e04f500010003a001000370055
:102d7000a59720004322dd00048242001f9897009f
:102d8000af9897003f999700cf9997005403be00e2
:102d90004402be0003fa07008c0078000003b00074
:102da000a0050700e10f4000010032008d06e80099
:102db000cf439700a59720000702fb004322dd00c8
:102dc000048242001f989700af9897003f999700a0
:102dd000cf9997005403be004402be00f8f90700e3
:102de000bfac9700d0af9f00e1af9f00f2af9f0054
:102df00083b79f00e08f54006b0032003c029000cc
:102e00000404b200050032009c027800e4c2b30062
:102e1000844a7800050ee800050037008c00780031
:102e2000e00220007f050700e10f400001003200b2
:102e30008d06e8004f479700a99720003f00370014
:102e40005fa89700efa897007fa997008fb1970020
:102e5000e00f5000e08f5800e00f5900e08f59005c
:102e600004003a008040eb000004eb00c1479f00e3
:102e70004a0037003c0290008502fb000404b200c7
:102e800010003200c32add00858244001c04780053
:102e90005fa89700efa897007fa997008fb19700d0
:102ea0005503be004502be00bef907000043b00056
:102eb000004c7800080ee800e04f50000f003a0088
:102ec0000f003700c32add00858244005fa8970009
:102ed000efa897007fa997008fb197005503be0018
:102ee0004502be00aff907008c0078000003b00077
:102ef0004c050700e10f4000010032008d06e8009c
:102f00004f4197000202fb004322dd00048244008f
:102f10005fa89700efa897007fa997008fb197004f
:102f20005403be004402be00a5f90700d0af9f00c5
:102f3000e1af9f00f2af9f0083b79f004f42970021
:102f40008442e900c5479f00e04f5200bcff3a00b1
:102f50000e04fb00bfaa9700088452000f00370040
:102f60003c0290000404b200040032001c0278000d
:102f7000094a7800040ee800050037008c0078004c
:102f80000003200027050700e10f40000100320088
:102f90008d06e8000804e9000100370009c3b3000a
:102fa000e00f5400eeff3a00cfaa97003c029000d9
:102fb0000502b200080032000404b200030032002f
:102fc0009c02780054c4b300070037008c007800de
:102fd00050042000090037000404b200050032004c
:102fe0009c02780054c6b300844a7800050ee800bd
:102ff000050037008c007800500620000905070006
:10300000e10f4000010032008d06e8004f8297007a
:10301000bc029000e00f52000c003d000402ea00e8
:103020000504b200c4879f00050032001c0278002e
:10303000d6c2b300064a7800040ee8000f0037003d
:103040008c007800d0022000090037000504b2008f
:10305000050032009c027800b4c2b300844a7800b4
:10306000050ee800050037008c007800b002200053
:10307000ec040700e10f4000010032008d06e8007b
:103080003c0290004f8097000404b2000a00320016
:103090009c027800a4002000110009000400d80060
:1030a0000043b000804a7800050ee800e04f500071
:1030b00009003a0009003700a400200011000900af
:1030c0000400d8008c0078000003b000d50407008d
:1030d000e10f4000010032008d06e8003c02900044
:1030e0004f8097000404b2000a0032009c0278006e
:1030f000a4002000110009000400d8000143b00022
:10310000814a7800050ee800e0cf50000a003a003e
:103110000a003700a4002000110009000400d800b4
:1031200000032000010040008c007800bd0407006f
:10313000e10f4000010032008d06e800cfab9700a0
:10314000e8826300ab0432007fa49700e00f5400d4
:10315000a8043400ffa4970008c2b3003c0290000a
:103160000404b200040032001c027800084a78000f
:10317000040ee800050037008c00780000022000f3
:10318000a8040700e10f4000010032008d06e800ae
:103190008904e900f1ff3a0096043700e00f570078
:1031a00004003d003fa897000e87ea000e00400093
:1031b000b0af9f000800be000a01be0086f90700fc
:1031c0000802be00d0af9f00e1af9f00f2af9f00aa
:1031d00083b79f000a03be00a19720000040eb00c8
:1031e000a4a79f00b5a79f00c6a79f00d7a79f00d1
:1031f0000c0037003102be003103be005fac970007
:10320000efac97007fad97008fb597000440e100c9
:1032100005c8e10006d0e10007d8e100030039004d
:103220000040e800f44f5000f2ff3a000002fb00bb
:103230002fa49700bfa497004fa59700dfa5970084
:103240003fa8970004005000b0af9f00f80f500057
:1032500009003c006fd09700f6fa07000002be009c
:103260000203be000800be000a01be00d6f7070038
:103270000004be000205be006fd097004afb0700a5
:103280000002be000203be005fa89700efa89700ef
:103290007fa997008fb19700a4a79f00b5a79f00b3
:1032a000c6a79f00d7a79f007cf907000002be00b9
:1032b0000203be000800be000a01be00c0f70700fe
:1032c0000002be000203be002fa09700bfa097001f
:1032d0004fa19700dfa1970077f607003ef907009e
:1032e0000802be000a03be003faf9700d4af9f00a4
:1032f000e5af9f00f6af9f0087b79f000205be00b5
:103300000004be00090037000800be000a01be002c
:10331000a4002000050020006033b800a1f80700d9
:103320000e07e9000205be000004be00e00f5700d2
:103330001b003200a4002000050020006033b8000c
:103340000800be000a01be009df80700e00f500013
:10335000e08f5800e00f5900e08f5900eaff32007b
:103360008e027800b5af9f000f0037003fab97008b
:10337000f80f530010003c0006407800adfa07003b
:103380000002be000203be000800be000a01be002b
:103390008df707000004be000205be0006003700de
:1033a0008e037800b7af9f005fac9700efac97003b
:1033b0007fad97008fb597004f879700e90f5700b3
:1033c00011003c006022b8006033b8000800be0065
:1033d0000a01be00d1f60700e00f50002c003200b9
:1033e0000800be000a01be00fbf80700e00f500015
:1033f000e08f5800e00f5900e08f590024003a0098
:10340000e10f5700220034000400200005002e00c8
:10341000b6e02200170124005f989700ef9897000c
:103420007f9997008fa19700b7f60700e00f500033
:1034300002003d0073075700010037007207570074
:10344000ce879f000f489700d7fa07000002be0002
:103450000203be000800be00d49f9f00e59f9f00ae
:10346000f69f9f0087a79f000a01be006044b80036
:103470006055b800d0f60700d7f80700d0af9f001e
:10348000e1af9f00f2af9f0083b79f0011003700ac
:103490000800be000a01be00cff80700d0af9f00b1
:1034a000e1af9f00f2af9f0083b79f00fbf80700da
:1034b0000002be000203be000800be000a01be00fa
:1034c0003ff707000002eb00c4879f000004be0026
:1034d0000205be000802be000a03be0021982000bb
:1034e00010c0b300d4b79f00e5b79f00f6b79f00a8
:1034f00087bf9f00100037003104be003105be00b9
:103500005faa9700efaa97007fab97008fb3970051
:10351000a8a79f00b9a79f00caa79f00dba79f008d
:103520000820e10009a8e1000ab0e1000bb8e100c1
:10353000030039000040e800f44f5000eeff3a006d
:103540004f829700ffa297003fab97000482520082
:103550005fb49700efb497007fb597008fbd9700d9
:1035600006075200c0479f000002fb0004075700f7
:10357000e00f5300010032000e07e900cfab9700c7
:1035800063826300010032000e07e9004fa8970034
:10359000640260003b00320062026000e1026000f1
:1035a000e00f5200110032003c0290000404b2000f
:1035b000080032001c037800b4c2b300e08f520050
:1035c0000100320004c2e800044b7800060ee80057
:1035d00015003700b0022000e08f520001003200d9
:1035e0000080e8008c0078000c003700e08f52006b
:1035f000200032003c0290000404b20005003200ba
:103600009c02780004c2b300844a7800050ee800ea
:10361000050037008c0078000002200081030700bd
:10362000e10f4000130032008d06e8001100370062
:103630003c0290000404b200040032001c02780036
:10364000054a7800040ee80007003700c5b79f0060
:103650008c0078000003200072030700cfb29700af
:10366000e10f4000010032008d06e8000e07e9007e
:103670000100370005c3b300e00f5700ecff3c002a
:103680006b003700cfa897006882600015003a00f1
:10369000110037003c0290000404b2000400320024
:1036a0001c027800054a7800040ee8000700370085
:1036b000c5b79f008c007800000220005903070066
:1036c000cfb29700e10f4000010032008d06e80004
:1036d0000e07e9000100370005c2b300e00f5700f4
:1036e000ecff3c004fa9970062026100e10261001b
:1036f000e00f5200110032003c0290000404b200be
:10370000080032001c037800b4c2b300e08f5200fe
:103710000100320004c2e800044b7800060ee80005
:1037200015003700b0022000e08f52000100320087
:103730000080e8008c0078000c003700e08f520019
:103740003b0032003c0290000404b200050032004d
:103750009c02780004c2b300844a7800050ee80099
:10376000050037008c007800000220002d030700c0
:10377000e10f40002e0032008d06e8002c003700db
:103780003c0290008502fb000404b20013003200ea
:10379000a4972000c32add00850242009c01780026
:1037a0005503be004502be00d3af9f000800be0017
:1037b0000a01be007bf70700a400200005002000de
:1037c0006033b8007ef70700dfaa970006c3b30096
:1037d000864a4000050ee80013003700a797200036
:1037e000c32add00858243000800be000a01be0036
:1037f0005503be004502be006af70700a400200082
:10380000050020006033b8006df707008c007800d9
:1038100004032000000242000400780001030700b6
:10382000e10f40000c0032008d06e8000a0037006e
:103830000800be000a01be005fac9700efac970025
:103840007fad97008fb59700f0a79f0081af9f00d5
:1038500092af9f00a3af9f004f4297008442e900c0
:10386000c5479f00e04f5200c5ff3a0013003700e4
:103870003c0290000404b200040032001c027800f4
:10388000054a7800040ee80007003700c5b79f001e
:103890008c00780000032000e2020700cfb29700fe
:1038a000e10f4000010032008d06e8004f829700d2
:1038b0000402e900c4879f00050037007fa4970039
:1038c0008fac97001fad9700afad970005c3b30055
:1038d0004f829700e00f5200e5ff3c00bfa8970021
:1038e000f28f50000300340024c1b300c4479f008e
:1038f000020037006fd19700c2479f00bfa9970011
:10390000cf4297000502fb0004825100b4af9f0034
:10391000e0cf52000e0032003c0290000404b200de
:10392000050032009c027800e4c2b300844a7800ab
:10393000050ee800050037008c007800e00220004a
:10394000b8020700e10f4000010032008d06e800d8
:103950004f40970094f907000002be000203be002a
:103960000800be000a01be00a9972000d2f407009b
:1039700099f70700d0af9f00e1af9f00f2af9f0023
:1039800083b79f00380037003c0290008502fb009f
:103990000404b20012003200c32add008582440014
:1039a0001c0478005503be004502be005fa89700c6
:1039b000efa897007fa997008fb19700f9f607004d
:1039c000a4002000050020006033b800fcf60700ca
:1039d00005c3b300054c4000080ee8001200370094
:1039e000c32add00858244005fa89700efa89700f6
:1039f0007fa997008fb197005503be004502be0016
:103a0000e8f60700a4002000050020006033b8009d
:103a1000ebf607008c0078000003b000810207007d
:103a2000e10f4000010032008d06e8004f4397008f
:103a30000602fb004322dd00048244005fa89700d9
:103a4000efa897007fa997008fb197005403be009d
:103a50004402be00daf60700d0af9f00e1af9f003e
:103a6000f2af9f0083b79f004f4297008442e90066
:103a7000c5479f00e04f5200c3ff3a000f003700d8
:103a80003c0290000404b200040032001c027800e2
:103a9000084a7800040ee800050037008c00780022
:103aa000000320005f020700e10f40000100320028
:103ab0008d06e8008904e90002003700bfac9700da
:103ac00008c3b300e08f5400edff3a004fab9700fe
:103ad000e802630047023200e00f5700450234005d
:103ae00008c2b3003c0290000404b200040032009b
:103af0001c027800084a7800040ee8000500370030
:103b00008c0078000002200046020700e10f400010
:103b1000010032008d06e8000e07e900f1ff3a00cf
:103b200034023700cfaa9700050cb20040003a00db
:103b3000cfab9700e08f530005003d006fa09700ca
:103b40004005be004004be00e0a79f001100370002
:103b5000cfa8970070826000130032006fa2970018
:103b60004401be0084027800c28f9f00d38f9f0063
:103b7000e4a79f00150290004fa2de00e48f9f0093
:103b8000f48f9f004f8c9700df8c97006f8d97000c
:103b9000ff8d9700d8af9f00e9af9f00faaf9f005d
:103ba0008bb79f000b003700efa497004902780005
:103bb00004007800cf80de000101780082017800e7
:103bc000e9a79f00d0af9f00e1af9f00f2af9f0039
:103bd00083b79f005faa9700efaa97007fab97007b
:103be0008fb39700e00f5200e08f5a00e00f5b00a8
:103bf000e08f5b0034003d00cfaa97005fac9700d8
:103c0000efac97007fad97008fb597003500b300fc
:103c1000c5af9f006022b8006033b80008045200ae
:103c200089845a000a055b008b855b0022003700ff
:103c3000cfac9700e08f540005003d006fa29700c5
:103c40004401be004400be00e4a79f000e00370000
:103c50004fab9700f0026300100032006fa5970091
:103c60004a04be00a48f9f00888f9f00998f9f00f9
:103c7000b48f9f000f8897009f8897002f89970027
:103c8000bf899700eaa79f00d0af9f00e1af9f00d8
:103c9000f2af9f0083b79f000b003700efa09700a3
:103ca00041027800e1a79f00040478000900200089
:103cb0000a0020000b002000d8af9f00e9af9f0052
:103cc000faaf9f008bb79f00bfac9700e08f540006
:103cd0000d003a001a0020005fa89700efa8970097
:103ce0007fa997008fb19700baaf9f00e00f5000f7
:103cf000e08f5800e00f5900e08f590002003200b9
:103d00008000eb00b1af9f004fa997000404200092
:103d1000020cb200a2a79f00840f510034003200b1
:103d200003003c00e00f510008003200480037005b
:103d300004082000afa19700848f510014003200c6
:103d4000040c2000848f510041003a00219820008b
:103d500010c0b3003102be003103be005fac97005b
:103d6000efac97007fad97008fb597000440e1005e
:103d700005c8e10006d0e10007d8e10033003900b2
:103d80000040e800f44f5000f2ff3a002f003700e7
:103d900010c0b30004012000050020006033b8000b
:103da0005fac9700efac97007fad97008fb59700a1
:103db0000440e10005c8e10006d0e10007d8e100b9
:103dc00022003900490020000402d0008582d20080
:103dd0000683d2008783d2008904e900faff3a0003
:103de0000040e800f04f5000edff3a0017003700a8
:103df00010c0b30084002000050020006033b8002c
:103e00005fac9700efac97007fad97008fb5970040
:103e10000440e10005c8e10006d0e10007d8e10058
:103e20000a003900390020000402d0008582d20047
:103e30000683d2008783d2008904e900faff3a00a2
:103e40000040e800f54f5000edff3a00c0479f00ea
:103e50004f459700bfad97000a02fb008b0f520041
:103e600002003d00cb479f00040037003fa89700a9
:103e7000840f500001003d00b4af9f00ffa09700e9
:103e8000e08f5000050032004fa9970063026100e7
:103e9000020032008100e900f1a79f000400240025
:103ea000cfa9970004826100090032007fa2970029
:103eb000bfaa9700850f520003003400050252008c
:103ec000f4a79f00020037000003eb00f6a79f0055
:103ed000cf4397000007eb000702fb007fa4970089
:103ee000840f54000100340004075400cfac970045
:103ef000648264003800320062826400e1826400ff
:103f0000e00f5200110032003c0290000404b200a5
:103f1000080032001c037800b4c2b300e08f5200e6
:103f20000100320004c2e800044b7800060ee800ed
:103f300015003700b0022000e08f5200010032006f
:103f40000080e8008c0078000c003700e08f520001
:103f50000e0032003c0290000404b2000500320062
:103f60009c02780004c2b300844a7800050ee80081
:103f7000050037008c0078000002200029010700ae
:103f8000e10f4000010032008d06e800e00f57000d
:103f90004c00320008c3b3003c0290000404b2009d
:103fa000040032001c027800084a7800040ee80081
:103fb000050037008c00780000032000190107007d
:103fc000e10f4000010032008d06e8000e07e90015
:103fd000f1ff3a003b003700e00f570013003200ba
:103fe0004fad97006802650010003a0008c2b300a8
:103ff0003c0290000404b200040032001c0278006d
:10400000084a7800040ee800050037008c007800ac
:104010000002200003010700e10f40000100320010
:104020008d06e8000e07e900f1ff3a00cfad9700da
:1040300062826500e1826500e00f520011003200eb
:104040003c0290000404b200080032001c03780017
:10405000b4c2b300e08f52000100320004c2e80095
:10406000044b7800060ee80015003700b00220006f
:10407000e08f5200010032000080e8008c007800e0
:104080000c003700e08f52000e0032003c0290001e
:104090000404b200050032009c02780004c2b300a0
:1040a000844a7800050ee800050037008c0078008f
:1040b00000022000db000700e10f40000100320099
:1040c0008d06e8003fa89700cfa997000003e900fc
:1040d000f08161006332b900c230dd000401780074
:1040e000cfaa97004332dd000502b200a697200058
:1040f000f1a79f000602420082979f000e037800fe
:10410000f3879f00e5879f00d6879f00040778000c
:104110009f003700bfab97002fa497008703e900eb
:1041200009042000b7af9f00890f540071003200ce
:1041300003003c00e00f5400080032007c00370010
:10414000040820002fa59700840f5500540032006a
:10415000040c2000840f550075003a00cfad970085
:10416000e08f55001e003d003e04be002e05be003f
:104170005fa89700efa897007fa997008fb19700dd
:104180000802be000a03be0006f507000802be00d2
:104190000a03be00c0479f000000fb00cf80de0086
:1041a0000101780082017800e7f507005faa970017
:1041b000efaa97007fab97008fb3970000025200e1
:1041c00081825a0002035b0083835b00d4af9f00af
:1041d000e5af9f00f6af9f0087b79f002c00370028
:1041e000ff829700e08f5200210032005faa970003
:1041f000efaa97003e04be002e05be000400be00dc
:104200000801be00b4b79f00c5b79f009af207002f
:104210000801be00c0479f000004eb000000fb0047
:10422000cf80de00f1f507003fb29700cfb29700d4
:10423000c8979f000003520081835a0096979f0001
:10424000a7979f008003eb00b7979f001f909700f0
:10425000af9097003f919700cf919700d0af9f000c
:10426000e1af9f00f2af9f0083b79f0008003700c7
:104270001e0278005fa99700110009000481d80090
:10428000a4002000110009000480d800c1479f004d
:10429000cf4197000343b000c3479f00240037007d
:1042a000b4a22000ef829700e08f5200010032009c
:1042b000a4a120005fa89700efa897007fa997000e
:1042c0008fb197007fa397000603e9000500330034
:1042d0008301d1000281d3008180d3000080d3000c
:1042e000f9ff37006f00600064407800c0479f000e
:1042f0000f0037005faa9700efaa97007fab9700e7
:104300008fb397000f9497000804e900050033006d
:104310008703d1000683d3008582d3000482d300b3
:10432000f9ff3700674262000443b000c4479f00b2
:104330003c0290000404b200070032009c027800a6
:104340004f429700844a7800050ee800e04f520083
:1043500007003a0007003700cf4497008c00780030
:104360000900fb002f000700e10f400001003200b0
:104370008d06e8007fa597008f959700640555008e
:10438000e3855500faa79f008b979f0068075700a9
:104390003fa89700e00f50005eff3a00cfa89700bb
:1043a0005f879700e882600012003200e00f57003c
:1043b0001000340008c2b3003c0290000404b200b4
:1043c000040032001c027800084a7800040ee8005d
:1043d000050037008c007800000220001100070063
:1043e000e10f4000010032008d06e8000e07e900f1
:1043f000f1ff3a001fa1970012407800c0479f00cc
:10440000e04f500058f73a004f0778000d00780051
:104410004f06be004f05be004f04be000f07b1009f
:1044200000000600889fbe00010478008084eb0035
:1044300038029000e20262003b0032000403780080
:10444000980290000620b20002003a00e08f52006d
:1044500035003a000490a0008004780034049800ed
:10446000f90fb200e08f520002003a00a80290005b
:10447000050c7800ea8f540005003a000408b200e9
:1044800003003a0088007800d0002000e5ff070014
:1044900018029000d8029000850f52000b003200e5
:1044a0000402e80015c0b300140498001802780054
:1044b000094a7800040ce800c4a62000054a7800e8
:1044c000ea8f540018003a000500370009407800d0
:1044d0008800780017000700800478001200370079
:1044e000380290000410b2000f0032001801900052
:1044f000a80090004800900020f0070018029000eb
:10450000840f500004003200380290000403b3000e
:10451000340498008084eb000002eb00140498003f
:1045200028029000040c7800090078004f04be00b7
:10453000000006000200fa00889fbe000104780017
:10454000a0ff9f0038029000840278000504b200aa
:10455000020032000000fb0035003700e20262007a
:1045600005003a000403b3001504980034049800d1
:104570000080eb002e003700d8049000e08f54003c
:1045800006003a0012002000e68057004800900024
:10459000faef07001904980023003700a8029000e2
:1045a000e08f520008003a0005a720000430a00068
:1045b00025049800050c780034049800250020009c
:1045c000550498001504980018019000a800900068
:1045d00048009000e9ef0700280290008082eb007d
:1045e00015049800affa9700054a7800040ce8001b
:1045f0002ffa9700ea4f52000b003a003802900061
:104600000410b2000800320018019000a8009000c9
:1046100048009000d9ef07000002eb00a8029000cc
:1046200014049800050c78002ffa97000400fb0092
:0c4630004f04be000080fa0000000600ed
:020000040000fa
:10463c002d2d00002d2000004c6100006220000098
:10464c0030380000202d00002d2d000000500000ff
:10465c006f7300003a2000000053000065740000e6
:10466c003a20000028250000752c000020250000b1
:10467c007529000020200000200000004a6f000077
:10468c00793a0000200000004b6900005f780000c0
:10469c003a200000252e000034670000004b00007b
:1046ac00695f0000793a0000202500002e340000dc
:1046bc00670000004b7000005f7800003a2000009b
:1046cc00252e000034670000004b0000705f0000d6
:1046dc00793a0000202500002e340000670000000d
:1046ec004b6400005f7800003a200000252e00008b
:1046fc0034670000004b0000645f0000793a000052
:10470c00202500002e340000670000002825000042
:10471c00752c0000202500007529000020200000c9
:10472c0000280000257500002c20000025750000d5
:10473c00292000002020000000280000256900002e
:10474c002c200000256900002920000020200000fa
:04475c002000000039
:020000040000fa
:104760000000fa0011e1a9001021a90010c1a90060
:104770000002eb0034088800840880000440a10097
:104780000450a0008408880084e0a90094e0a800f8
:1047900004fa20006408880011e1a8000080fa00f3
:1047a000000006000000fa0005e1a9000421a900ac
:1047b00004c1a9000002eb0004088800240880005e
:1047c0000440a1000450a000240888008460a900cf
:1047d0009460a800047122001408880005e1a80074
:1047e0000080fa00000006000200fa00000f7800c6
:1047f000d2e2a9001e027800640d88001e02780033
:10480000540d880064002000740d88000080fa00b8
:10481000000006000200fa00000f7800d2c2a900d2
:104820001e027800340d88001e027800240d8800d6
:1048300064002000440d88000080fa00000006009b
:104840000000fa004519800004fe2f000482620077
:104850009400b300441988002023a8000000000041
:104860000419800061026200e00f5200fcff320078
:104870002003a9000418800084027800f4ff2000bf
:1048800004826200040078000080fa000000060044
:104890000000fa004519800004fe2f000482620027
:1048a000f400b300441988002023a8000000000091
:1048b0000419800061026200e00f5200fcff320028
:1048c0002003a9000418800084027800f4ff20006f
:1048d00004826200040078000080fa0000000600f4
:1048e0000000fa00dc22a900dc42a800dc62a8007b
:1048f00000e02e0021002000dfee07000080fa001b
:10490000000006000000fa00dc22a800dc42a9003a
:10491000dc62a90000e02e0021002000d6ee070096
:104920000080fa00000006000000fa00441b80002e
:104930000400a1000410a1000420a0000430a10084
:10494000441b88006023a80000000000041b8000b6
:1049500061026200e00f5200fcff32006003a90018
:10496000041a800084027800f4ff200004826200b0
:10497000040078000080fa00000006000000fa0041
:10498000441b80000400a0000410a1000420a0002b
:104990000430a100441b88006023a8000000000030
:1049a000041b800061026200e00f5200fcff320035
:1049b0006003a900041a800084027800f4ff20003c
:1049c00004826200040078000080fa000000060003
:1049d0000000fa0061e3a900c682a8006c83a90068
:1049e000c6a2a8006ca3a9006143a900041b800013
:1049f0000480a1000490a100041b8800041b800017
:104a00000450a0000460a0000470a000041b8800f3
:104a10000002eb00141b880065e3a900251b800041
:104a200004f0210005027200241b880024c0b3009a
:104a30000443780045362000864a780061e3a800e8
:104a40000080fa00000006000000fa0021e3a9003f
:104a5000c722a8002d23a900c7e2a8002de3a900c2
:104a60002143a800041980000480a1000490a10043
:104a700004198800041980000450a0000460a000fc
:104a80000470a000041988000002eb0014198800cb
:104a900025e3a9002519800004f021000502720019
:104aa0002419880024c0b300044378004532200054
:104ab000864a780021e3a800d822a900d842a9009c
:104ac000d862a9000080fa00000006000600fa0083
:104ad000200798000042eb00044f78000042eb00f2
:104ae000144798000042eb00144798003500370047
:104af0000042eb00044f78002c0037009e42780003
:104b00000582fb0004024200ae02900004824200d3
:104b1000940278001e4378000682fb000402e8003d
:104b2000040242002e0390000402430014027800a5
:104b3000848f52001c0036009e4278000582fb00e4
:104b40000402e80004024200ae0290000482420027
:104b500014037800160798009e4278000582fb0037
:104b60000402e80004024200ae0290008482420087
:104b70001e4378000682fb00040242002e039000d0
:104b80000402430014027800840a78009e427800f0
:104b90000582fb0004024200ae0290000482420043
:104ba0001e039000060a78001e4fe8001e4278009f
:104bb000e34f5200d1ff36001e4290000442e8004d
:104bc000144798001e429000e44f5200c8ff360080
:104bd0002e029000040078000080fa000000060019
:104be0000800fa00889fbe0030079800a4408000ab
:104bf000be029000848f520002003d00a44080005d
:104c000034079800b4408000be029000848f5200a8
:104c100002003400b440800034079800a4408000b3
:104c20008402780005f0a7008502ea003e029000a9
:104c300004824200040f78001e0278000500200064
:104c40000400be007dee07000004be00b5408000f9
:104c5000a440800004825200cfa2de000400be0007
:104c600078ee07000002be000401be000800be008e
:104c700077ee07000002be00140798002507980091
:104c80009299290093f923001e009000ae00900035
:104c9000b1ee07000002be006266260063f6230044
:104ca0000400be00e1ee07000002be0014079800f9
:104cb0002507980002002000031a24001e0090001f
:104cc000ae00900062ee07000002be00020020006d
:104cd000a35724000400be009fee07000002be00a0
:104ce00014079800250798001e009000ae00900061
:104cf0002bef07000002be000402780005fa200036
:104d000004825200044088004f04be000080fa0074
:104d1000000006000800fa00889fbe0030079800d7
:104d2000a4408000be029000848f520002003d002b
:104d3000a440800034079800b4408000be02900078
:104d4000848f520002003400b44080003407980081
:104d5000a44080008402780005f0a7008502ea00e4
:104d60003e02900004824200040f78001e02780088
:104d7000050020000400be0030ee07000004be0065
:104d8000b5408000a440800004825200cfa2de0023
:104d90000400be002bee07000002be000401be00ae
:104da0000800be002aee07000002be0014079800ab
:104db000250798009299290093f923001e0090007e
:104dc000ae00900064ee07000002be00626626009e
:104dd00063f623000400be0094ee07000002be004c
:104de000140798002507980002002000031a2400e9
:104df0001e009000ae00900015ee07000002be00fd
:104e000002002000a35724000400be0052ee070059
:104e10000002be0014079800250798001e009000ad
:104e2000ae009000deee07000002be000402780033
:104e300005fa200004825200144088004f04be008e
:104e40000080fa00000006005000fa00889fbe00b3
:104e50002a83a80000000000d902a800000000007a
:104e6000d342a800d4cc2c00c5f42300340f980002
:104e7000450f9800e47a240015de2300540f9800b3
:104e8000650f9800a4702d0035da2300740f980088
:104e9000051798001400200044538800fb02070007
:104ea000c082a90000000000c0a2a900000000000c
:104eb000c122a90000000000c142a90000000000ba
:104ec000c002a900000000000040eb001d03070025
:104ed00080c1b3001b0307000040eb00f502070090
:104ee00090c1b300170307000040eb00f102070078
:104ef000e4312a00841f78009df307008f87e900c2
:104f000000a52000a1f3070080c1b3000d03070036
:104f10000040eb00e702070090c1b300090307005f
:104f200080c0b300e3020700d4322a00841f780057
:104f30008ff307008f87e90000a5200093f3070097
:104f400080c1b300ff0207000040eb00d902070058
:104f500090c1b300fb02070000c1b300d5020700f7
:104f60009540800084408000851f7800841f780071
:104f700034332a00841f78007df30700e68757004a
:104f800000a5200081f3070080c1b300ed020700f7
:104f90000040eb00c702070090c1b300e902070020
:104fa00080c1b300c302070044342a00841f780084
:104fb0006ff307008f87e90000a5200073f3070057
:104fc00080c1b300df0207000040eb00b902070018
:104fd00090c1b300db02070000c2b300b5020700b6
:104fe0007e0a90008e129000849fbe00a4342a0096
:104ff000841f78005ef30700e687570000a52000b5
:1050000062f3070080c1b300ce02070020c4b300e2
:10501000a802070090c1b300ca02070000c2b30093
:10502000a40207007e0a90008e129000849fbe00aa
:1050300054352a00841f78004df30700e687570097
:1050400000a5200051f3070080c1b300bd02070096
:105050000040eb009702070090c1b300b9020700bf
:1050600080c2b300930207003e0a9000ce0a90006f
:10507000849fbe0004362a00841f78003cf307009a
:10508000e687570000a5200040f3070080c1b30069
:10509000ac02070020c4b3008602070090c1b30031
:1050a000a802070080c2b300820207003e0a9000f7
:1050b000ce0a9000849fbe00b4362a00841f780078
:1050c0002bf30700e687570000a520002ff3070009
:1050d00080c1b3009b0207000040eb00750207008f
:1050e00090c1b3009702070000c3b300710207002c
:1050f0005e0a9000ee0a9000849fbe0064372a008a
:10510000841f78001af30700e687570000a52000e7
:105110001ef3070080c1b3008a02070020c4b30059
:105120006402070090c1b3008602070000c3b30009
:10513000600207005e0a9000ee0a9000849fbe00a5
:1051400014382a00841f780009f30700e687570007
:1051500000a520000df307000042eb002467980033
:1051600034c0b300044f78006022b80034079800c0
:10517000450798000042eb00244f98000042eb00e6
:10518000344f98000002eb00241798000002eb0057
:10519000341798006022b8006407980075079800db
:1051a0006022b800040f9800150f98000002eb0071
:1051b000441798000002eb005417980004fe070003
:1051c00021fe070066fd070076fd07000042eb00a8
:1051d000445798003e029000ce029000823e20008c
:1051e000030020000400be000eee07000002be0017
:1051f000e00f5200e08f5a0088003a0080c1b300ef
:1052000050020700e0c1b3002a02070090c1b300ba
:105210004c02070080c0b300260207002e4a90000f
:105220000482fb000402420004024700d4229000e2
:105230002e4a90000482fb00040242000402470050
:1052400024229000851f7800841f7800c4382a002b
:10525000841f7800c6f20700e687570000a52000eb
:10526000caf20700b0fd070000027800840278004f
:10527000f4ff200004826200140798001e029000d0
:10528000a40fb100050020000400be00ebec0700f5
:105290000002be0002002400534324000400be00ac
:1052a000ebec07000002be000404be0025408000b5
:1052b0003440800004825200050020000400be003b
:1052c000deec07000002be000401be000800be00c4
:1052d00021ed07000002be000400be00b0ed070093
:1052e0000002be000402780084027800344080008e
:1052f0000482420014079800a0fd07000002780015
:1053000084027800f4ff20000482620024079800e1
:105310002e029000240db100050020000400be0004
:10532000c6ec07000002be00020028007342240001
:105330000400be00c6ec07000002be000404be006c
:105340004540800054408000048252000500200047
:105350000400be00b9ec07000002be000401be005c
:105360000800be00fcec07000002be000400be0006
:105370008bed07000002be00040278008402780072
:1053800054408000048242002407980080c1b3008a
:10539000ec010700e0c1b300c601070090c1b300f3
:1053a000e801070000c1b300c2010700954080007a
:1053b00084408000851f7800841f780074392a009b
:1053c000841f78006af20700e687570000a52000d6
:1053d0006ef2070080c1b300da010700e0c1b3003c
:1053e000b401070090c1b300d601070080c1b3002b
:1053f000b00107002e009000801f78009e009000f2
:10540000811f7800343a2a00841f780058f2070080
:10541000e687570000a520005cf20700d516800043
:105420000410200004826200e00f52000a003a00db
:105430009e4278000582fb0061026200044278000f
:10544000e04f5200040032004e5290000442e80047
:105450004457980010003700d51680000410200033
:1054600004826200e00f5200090032001e437800ff
:105470000682fb0061026200e00f520004003a0065
:105480004e5290000442e800445798000200370052
:105490000042eb0044579800ce52900014c3b30072
:1054a00084cf5200160036001e427800e24f5200b0
:1054b00012003a001e00900080408800ae0090006c
:1054c00091408800141680004422de006142620090
:1054d0000404a200614262000482fb0061026200d7
:1054e0004422dd0016168000f5fe2f0085026300c1
:1054f0000502720014168800000000001e04a200bd
:105500008481200014427800e04f520030013200c4
:10551000fcfc07000042eb00344f98000c00370001
:105520003e4a90000484fb00c5fc0700000278009e
:10553000840278000802440004024700a403b0007b
:10554000050a78003e4a90000442e800344f980073
:105550003e4a9000e44f5200f1ff3600e0fc0700a5
:105560000042eb00344f98000c0037003e4a900098
:105570000484fb00c6fc0700000278008402780067
:1055800008024400040247000403b000050a780042
:105590003e4a90000442e800344f98003e4a900092
:1055a000e44f5200f1ff3600040320000e024200d7
:1055b0000400780045fd0700a40320000e0242000d
:1055c0000400780041fd07002e4a90000482fb0091
:1055d000ae1a900004024200040247004404b000e6
:1055e000050a78002e4a90000482fb000402420063
:1055f00004024700a42290008440800004825200ec
:10560000241798002e4a90000482fb0004024200f6
:1056100004024700a42290002e4a90000482fb005e
:105620000483e80034002000110009000403d800be
:105630000102780004024200040247002422900084
:1056400004825200050020000400be00fbeb0700ae
:105650000002be00d2cc2c00c3d423000400be0044
:10566000fbeb07000002be000400be00ccec07000c
:105670000002be00641798006e009000fe009000cb
:10568000f0eb07000004be00844080008402780034
:105690002e4a90000482fb000402420004024700ec
:1056a0002422900004825200cfa2de000400be003b
:1056b000e4eb07000002be00d2cc2c00c3d42300d0
:1056c0000400be0024ec07000002be000401be007e
:1056d0000800be0054ec07000002be000400be003b
:1056e000afec07000002be00640798007507980041
:1056f0002e4a90000482fb00fe1a90000402420031
:1057000004024700a404b000050a78002e4a900065
:105710000482fb000402420004024700d4229000ed
:105720009440800004825200341798002e4a900062
:105730000482fb000402420004024700d4229000cd
:105740002e4a90000482fb000483e800340020000d
:10575000110009000403d80001027800040242008d
:1057600004024700542290000482520005002000e9
:105770000400be00b1eb07000002be00d2cc2c003a
:10578000c3d423000400be00b1eb07000002be003a
:105790000400be0082ec07000002be0074179800ef
:1057a0000e0890009e089000a6eb07000004be00c3
:1057b00094408000840278002e4a90000482fb000e
:1057c0000402420004024700542290000482520066
:1057d000cfa2de000400be009aeb07000002be006c
:1057e000d2cc2c00c3d423000400be00daeb0700a7
:1057f0000002be000401be000800be000aec070063
:105800000002be000400be0065ec07000002be00fe
:10581000040f9800150f98002e4a90000442e800eb
:10582000244f98002e4a90008482fb003400200010
:10583000110009008482d80001027800244f9800ea
:105840003e0a9000ce0a90000404be0009f0a200b7
:105850002e129000cfa2de000400be0079eb0700fc
:105860000002be000401be000800be00baeb070043
:105870000002be000404be006e129000cfa2de0043
:105880000400be006feb07000002be005e0990003e
:10589000ee0990000400be00afeb07000002be005e
:1058a0000401be000800be00dfeb07000002be00de
:1058b0000404be006e009000fe00900061eb070043
:1058c0000002be007e0990008e1190000400be0010
:1058d000a1eb07000002be000401be000800be00ec
:1058e000d1eb07000002be000400be002cec070054
:1058f0000002be00441798003e0a9000ce0a9000b5
:105900000404be0009f0a2003e129000cfa2de0007
:105910000400be004beb07000002be000401be0005
:105920000800be008ceb07000002be000404be00ad
:105930007e129000cfa2de000400be0041eb070003
:105940000002be005e099000ee0990000400be0057
:1059500081eb07000002be000401be000800be008b
:10596000b1eb07000002be000404be000e08900068
:105970009e08900033eb07000002be007e099000f5
:105980008e1190000400be0073eb07000002be0001
:105990000401be000800be00a3eb07000002be0029
:1059a0000400be00feeb07000002be005417980082
:1059b0004e1090008afc07005e109000d5fc070096
:1059c0000042eb000443780085812000864a78007d
:1059d0003e029000ce02900061024200e0824a0046
:1059e0003407980045079800fafd37003600f800a4
:1059f000809fbe00829fbe00849fbe00869fbe0027
:105a00003400f80000002000a00188000000fa0027
:105a1000044080000400780073fb070014408000fd
:105a2000040078007bfb070084e0a9000080fa00f6
:105a30003400f9004f03be004f02be004f01be000c
:105a40004f00be003600f90000400600849fbe00f3
:105a5000861f78003400f80004002000a4018800ac
:105a60000000fa0014c0b3000443780085812000d0
:105a7000864a78008460a9000080fa003400f900aa
:105a80004f0378004f02be00004006000000fa00fd
:105a9000620020000140200000002800b0f0070054
:105aa00000802e003100200073ea07000080fa0019
:105ab000000006000200fa00004f780001003700e5
